{
  "contractName": "Blacksmith",
  "abi": [
    {
      "anonymous": false,
      "inputs": [
        {
          "indexed": true,
          "internalType": "bytes32",
          "name": "role",
          "type": "bytes32"
        },
        {
          "indexed": true,
          "internalType": "bytes32",
          "name": "previousAdminRole",
          "type": "bytes32"
        },
        {
          "indexed": true,
          "internalType": "bytes32",
          "name": "newAdminRole",
          "type": "bytes32"
        }
      ],
      "name": "RoleAdminChanged",
      "type": "event"
    },
    {
      "anonymous": false,
      "inputs": [
        {
          "indexed": true,
          "internalType": "bytes32",
          "name": "role",
          "type": "bytes32"
        },
        {
          "indexed": true,
          "internalType": "address",
          "name": "account",
          "type": "address"
        },
        {
          "indexed": true,
          "internalType": "address",
          "name": "sender",
          "type": "address"
        }
      ],
      "name": "RoleGranted",
      "type": "event"
    },
    {
      "anonymous": false,
      "inputs": [
        {
          "indexed": true,
          "internalType": "bytes32",
          "name": "role",
          "type": "bytes32"
        },
        {
          "indexed": true,
          "internalType": "address",
          "name": "account",
          "type": "address"
        },
        {
          "indexed": true,
          "internalType": "address",
          "name": "sender",
          "type": "address"
        }
      ],
      "name": "RoleRevoked",
      "type": "event"
    },
    {
      "inputs": [],
      "name": "DEFAULT_ADMIN_ROLE",
      "outputs": [
        {
          "internalType": "bytes32",
          "name": "",
          "type": "bytes32"
        }
      ],
      "stateMutability": "view",
      "type": "function",
      "constant": true
    },
    {
      "inputs": [],
      "name": "GAME",
      "outputs": [
        {
          "internalType": "bytes32",
          "name": "",
          "type": "bytes32"
        }
      ],
      "stateMutability": "view",
      "type": "function",
      "constant": true
    },
    {
      "inputs": [
        {
          "internalType": "bytes32",
          "name": "role",
          "type": "bytes32"
        }
      ],
      "name": "getRoleAdmin",
      "outputs": [
        {
          "internalType": "bytes32",
          "name": "",
          "type": "bytes32"
        }
      ],
      "stateMutability": "view",
      "type": "function",
      "constant": true
    },
    {
      "inputs": [
        {
          "internalType": "bytes32",
          "name": "role",
          "type": "bytes32"
        },
        {
          "internalType": "uint256",
          "name": "index",
          "type": "uint256"
        }
      ],
      "name": "getRoleMember",
      "outputs": [
        {
          "internalType": "address",
          "name": "",
          "type": "address"
        }
      ],
      "stateMutability": "view",
      "type": "function",
      "constant": true
    },
    {
      "inputs": [
        {
          "internalType": "bytes32",
          "name": "role",
          "type": "bytes32"
        }
      ],
      "name": "getRoleMemberCount",
      "outputs": [
        {
          "internalType": "uint256",
          "name": "",
          "type": "uint256"
        }
      ],
      "stateMutability": "view",
      "type": "function",
      "constant": true
    },
    {
      "inputs": [
        {
          "internalType": "bytes32",
          "name": "role",
          "type": "bytes32"
        },
        {
          "internalType": "address",
          "name": "account",
          "type": "address"
        }
      ],
      "name": "grantRole",
      "outputs": [],
      "stateMutability": "nonpayable",
      "type": "function"
    },
    {
      "inputs": [
        {
          "internalType": "bytes32",
          "name": "role",
          "type": "bytes32"
        },
        {
          "internalType": "address",
          "name": "account",
          "type": "address"
        }
      ],
      "name": "hasRole",
      "outputs": [
        {
          "internalType": "bool",
          "name": "",
          "type": "bool"
        }
      ],
      "stateMutability": "view",
      "type": "function",
      "constant": true
    },
    {
      "inputs": [],
      "name": "randoms",
      "outputs": [
        {
          "internalType": "contract IRandoms",
          "name": "",
          "type": "address"
        }
      ],
      "stateMutability": "view",
      "type": "function",
      "constant": true
    },
    {
      "inputs": [
        {
          "internalType": "bytes32",
          "name": "role",
          "type": "bytes32"
        },
        {
          "internalType": "address",
          "name": "account",
          "type": "address"
        }
      ],
      "name": "renounceRole",
      "outputs": [],
      "stateMutability": "nonpayable",
      "type": "function"
    },
    {
      "inputs": [
        {
          "internalType": "bytes32",
          "name": "role",
          "type": "bytes32"
        },
        {
          "internalType": "address",
          "name": "account",
          "type": "address"
        }
      ],
      "name": "revokeRole",
      "outputs": [],
      "stateMutability": "nonpayable",
      "type": "function"
    },
    {
      "inputs": [
        {
          "internalType": "address",
          "name": "",
          "type": "address"
        }
      ],
      "name": "tickets",
      "outputs": [
        {
          "internalType": "uint32",
          "name": "",
          "type": "uint32"
        }
      ],
      "stateMutability": "view",
      "type": "function",
      "constant": true
    },
    {
      "inputs": [],
      "name": "weapons",
      "outputs": [
        {
          "internalType": "contract Weapons",
          "name": "",
          "type": "address"
        }
      ],
      "stateMutability": "view",
      "type": "function",
      "constant": true
    },
    {
      "inputs": [
        {
          "internalType": "contract Weapons",
          "name": "_weapons",
          "type": "address"
        },
        {
          "internalType": "contract IRandoms",
          "name": "_randoms",
          "type": "address"
        }
      ],
      "name": "initialize",
      "outputs": [],
      "stateMutability": "nonpayable",
      "type": "function"
    },
    {
      "inputs": [
        {
          "internalType": "contract IRandoms",
          "name": "_newRandoms",
          "type": "address"
        }
      ],
      "name": "migrateRandoms",
      "outputs": [],
      "stateMutability": "nonpayable",
      "type": "function"
    },
    {
      "inputs": [
        {
          "internalType": "uint32",
          "name": "_num",
          "type": "uint32"
        }
      ],
      "name": "spendTicket",
      "outputs": [],
      "stateMutability": "nonpayable",
      "type": "function"
    },
    {
      "inputs": [
        {
          "internalType": "address",
          "name": "_player",
          "type": "address"
        },
        {
          "internalType": "uint32",
          "name": "_num",
          "type": "uint32"
        }
      ],
      "name": "giveTicket",
      "outputs": [],
      "stateMutability": "nonpayable",
      "type": "function"
    }
  ],
  "bytecode": "0x608060405234801561001057600080fd5b50610e51806100206000396000f3fe608060405234801561001057600080fd5b50600436106101005760003560e01c806391d1485411610097578063bee666d811610066578063bee666d8146102e7578063ca15c873146102ef578063d547741f1461030c578063e4a0f5661461033857610100565b806391d1485414610274578063a217fddf146102b4578063b7e1cd86146102bc578063b8782935146102c457610100565b806336568abe116100d357806336568abe1461019c578063485cc955146101c85780636dcbf2a3146101f65780639010d07c1461023557610100565b806319a076b514610105578063248a9ca31461013957806327730d12146101685780632f2ff15d14610170575b600080fd5b6101376004803603604081101561011b57600080fd5b5080356001600160a01b0316906020013563ffffffff1661035e565b005b6101566004803603602081101561014f57600080fd5b50356103f6565b60408051918252519081900360200190f35b61015661040b565b6101376004803603604081101561018657600080fd5b50803590602001356001600160a01b0316610427565b610137600480360360408110156101b257600080fd5b50803590602001356001600160a01b0316610493565b610137600480360360408110156101de57600080fd5b506001600160a01b03813581169160200135166104f4565b61021c6004803603602081101561020c57600080fd5b50356001600160a01b03166105db565b6040805163ffffffff9092168252519081900360200190f35b6102586004803603604081101561024b57600080fd5b50803590602001356105f3565b604080516001600160a01b039092168252519081900360200190f35b6102a06004803603604081101561028a57600080fd5b50803590602001356001600160a01b031661061a565b604080519115158252519081900360200190f35b610156610638565b61025861063d565b610137600480360360208110156102da57600080fd5b503563ffffffff1661064c565b610258610823565b6101566004803603602081101561030557600080fd5b5035610832565b6101376004803603604081101561032257600080fd5b50803590602001356001600160a01b0316610849565b6101376004803603602081101561034e57600080fd5b50356001600160a01b03166108a2565b604080516347414d4560e01b81529051908190036004019020610381903361061a565b6103be576040805162461bcd60e51b81526020600482015260096024820152684f6e6c792067616d6560b81b604482015290519081900360640190fd5b6001600160a01b03919091166000908152606760205260409020805463ffffffff19811663ffffffff91821690930116919091179055565b60009081526033602052604090206002015490565b604080516347414d4560e01b8152905190819003600401902081565b60008281526033602052604090206002015461044a9061044561090c565b61061a565b6104855760405162461bcd60e51b815260040180806020018281038252602f815260200180610d60602f913960400191505060405180910390fd5b61048f8282610910565b5050565b61049b61090c565b6001600160a01b0316816001600160a01b0316146104ea5760405162461bcd60e51b815260040180806020018281038252602f815260200180610ded602f913960400191505060405180910390fd5b61048f828261097f565b600054610100900460ff168061050d575061050d6109ee565b8061051b575060005460ff16155b6105565760405162461bcd60e51b815260040180806020018281038252602e815260200180610dbf602e913960400191505060405180910390fd5b600054610100900460ff16158015610581576000805460ff1961ff0019909116610100171660011790555b6105896109ff565b610594600033610485565b606580546001600160a01b038086166001600160a01b031992831617909255606680549285169290911691909117905580156105d6576000805461ff00191690555b505050565b60676020526000908152604090205463ffffffff1681565b6000828152603360205260408120610611908363ffffffff610ab116565b90505b92915050565b6000828152603360205260408120610611908363ffffffff610abd16565b600081565b6065546001600160a01b031681565b60008163ffffffff161161065f57600080fd5b3360009081526067602052604090205463ffffffff808316911610156106c1576040805162461bcd60e51b81526020600482015260126024820152714e6f7420656e6f756768207469636b65747360701b604482015290519081900360640190fd5b336000908152606760205260408120805463ffffffff8082168590031663ffffffff199091161790555b8163ffffffff1681101561048f5760655460665460408051630e20f61560e21b8152336004820181905291516001600160a01b03948516946340c10f19941691633883d854916024808301926020929190829003018186803b15801561075057600080fd5b505afa158015610764573d6000803e3d6000fd5b505050506040513d602081101561077a57600080fd5b505160408051602081810193909352808201879052815180820383018152606082018084528151918501919091206001600160e01b031960e088901b169091526001600160a01b03909416606482015260848101939093525160a4808401938290030181600087803b1580156107ef57600080fd5b505af1158015610803573d6000803e3d6000fd5b505050506040513d602081101561081957600080fd5b50506001016106eb565b6066546001600160a01b031681565b600081815260336020526040812061061490610ad2565b6000828152603360205260409020600201546108679061044561090c565b6104ea5760405162461bcd60e51b8152600401808060200182810382526030815260200180610d8f6030913960400191505060405180910390fd5b6108ad60003361061a565b6108ea576040805162461bcd60e51b81526020600482015260096024820152682737ba1030b236b4b760b91b604482015290519081900360640190fd5b606680546001600160a01b0319166001600160a01b0392909216919091179055565b3390565b600082815260336020526040902061092e908263ffffffff610add16565b1561048f5761093b61090c565b6001600160a01b0316816001600160a01b0316837f2f8788117e7eff1d82e926ec794901d17c78024a50270940304540a733656f0d60405160405180910390a45050565b600082815260336020526040902061099d908263ffffffff610af216565b1561048f576109aa61090c565b6001600160a01b0316816001600160a01b0316837ff6391f5c32d9c69d2a47ea670b442974b53935d1edc7fd64eb21e047a839171b60405160405180910390a45050565b60006109f930610b07565b15905090565b600054610100900460ff1680610a185750610a186109ee565b80610a26575060005460ff16155b610a615760405162461bcd60e51b815260040180806020018281038252602e815260200180610dbf602e913960400191505060405180910390fd5b600054610100900460ff16158015610a8c576000805460ff1961ff0019909116610100171660011790555b610a94610b0d565b610a9c610b0d565b8015610aae576000805461ff00191690555b50565b60006106118383610bad565b6000610611836001600160a01b038416610c11565b600061061482610c29565b6000610611836001600160a01b038416610c2d565b6000610611836001600160a01b038416610c77565b3b151590565b600054610100900460ff1680610b265750610b266109ee565b80610b34575060005460ff16155b610b6f5760405162461bcd60e51b815260040180806020018281038252602e815260200180610dbf602e913960400191505060405180910390fd5b600054610100900460ff16158015610a9c576000805460ff1961ff0019909116610100171660011790558015610aae576000805461ff001916905550565b81546000908210610bef5760405162461bcd60e51b8152600401808060200182810382526022815260200180610d3e6022913960400191505060405180910390fd5b826000018281548110610bfe57fe5b9060005260206000200154905092915050565b60009081526001919091016020526040902054151590565b5490565b6000610c398383610c11565b610c6f57508154600181810184556000848152602080822090930184905584548482528286019093526040902091909155610614565b506000610614565b60008181526001830160205260408120548015610d335783546000198083019190810190600090879083908110610caa57fe5b9060005260206000200154905080876000018481548110610cc757fe5b600091825260208083209091019290925582815260018981019092526040902090840190558654879080610cf757fe5b60019003818190600052602060002001600090559055866001016000878152602001908152602001600020600090556001945050505050610614565b600091505061061456fe456e756d657261626c655365743a20696e646578206f7574206f6620626f756e6473416363657373436f6e74726f6c3a2073656e646572206d75737420626520616e2061646d696e20746f206772616e74416363657373436f6e74726f6c3a2073656e646572206d75737420626520616e2061646d696e20746f207265766f6b65496e697469616c697a61626c653a20636f6e747261637420697320616c726561647920696e697469616c697a6564416363657373436f6e74726f6c3a2063616e206f6e6c792072656e6f756e636520726f6c657320666f722073656c66a26469706673582212204561c102bfc8a979242874830a6d47c76b8f1be8ab1a0ab2440963767410d6e064736f6c63430006050033",
  "immutableReferences": {},
  "source": "pragma solidity ^0.6.5;\n\nimport \"@openzeppelin/contracts-upgradeable/proxy/Initializable.sol\";\nimport \"@openzeppelin/contracts-upgradeable/access/AccessControlUpgradeable.sol\";\nimport \"./interfaces/IRandoms.sol\";\nimport \"./weapons.sol\";\n\ncontract Blacksmith is Initializable, AccessControlUpgradeable {\n    /* ========== CONSTANTS ========== */\n\n    bytes32 public constant GAME = keccak256(\"GAME\");\n\n    /* ========== STATE VARIABLES ========== */\n\n    Weapons public weapons;\n    IRandoms public randoms;\n\n    mapping(address => uint32) public tickets;\n\n    /* ========== INITIALIZERS AND MIGRATORS ========== */\n\n    function initialize(Weapons _weapons, IRandoms _randoms)\n        public\n        initializer\n    {\n        __AccessControl_init();\n\n        _setupRole(DEFAULT_ADMIN_ROLE, msg.sender);\n\n        weapons = _weapons;\n        randoms = _randoms;\n    }\n\n    function migrateRandoms(IRandoms _newRandoms) external {\n        require(hasRole(DEFAULT_ADMIN_ROLE, msg.sender), \"Not admin\");\n        randoms = _newRandoms;\n    }\n\n    /* ========== VIEWS ========== */\n\n    /* ========== MUTATIVE FUNCTIONS ========== */\n\n    function spendTicket(uint32 _num) external {\n        require(_num > 0);\n        require(tickets[msg.sender] >= _num, \"Not enough tickets\");\n        tickets[msg.sender] -= _num;\n\n        for (uint256 i = 0; i < _num; i++) {\n            weapons.mint(\n                msg.sender,\n                uint256(\n                    keccak256(\n                        abi.encodePacked(randoms.getRandomSeed(msg.sender), i)\n                    )\n                )\n            );\n        }\n    }\n\n    function giveTicket(address _player, uint32 _num) external onlyGame {\n        tickets[_player] += _num;\n    }\n\n    /* ========== MODIFIERS ========== */\n\n    modifier onlyGame() {\n        require(hasRole(GAME, msg.sender), \"Only game\");\n        _;\n    }\n}\n",
  "sourcePath": "H:\\8.5.1\\contracts\\Blacksmith.sol",
  "compiler": {
    "name": "solc",
    "version": "0.6.5+commit.f956cc89.Emscripten.clang"
  },
  "schemaVersion": "3.4.16",
  "updatedAt": "2023-09-14T02:49:38.748Z",
  "networkType": "ethereum",
  "devdoc": {
    "methods": {
      "getRoleAdmin(bytes32)": {
        "details": "Returns the admin role that controls `role`. See {grantRole} and {revokeRole}.     * To change a role's admin, use {_setRoleAdmin}."
      },
      "getRoleMember(bytes32,uint256)": {
        "details": "Returns one of the accounts that have `role`. `index` must be a value between 0 and {getRoleMemberCount}, non-inclusive.     * Role bearers are not sorted in any particular way, and their ordering may change at any point.     * WARNING: When using {getRoleMember} and {getRoleMemberCount}, make sure you perform all queries on the same block. See the following https://forum.openzeppelin.com/t/iterating-over-elements-on-enumerableset-in-openzeppelin-contracts/2296[forum post] for more information."
      },
      "getRoleMemberCount(bytes32)": {
        "details": "Returns the number of accounts that have `role`. Can be used together with {getRoleMember} to enumerate all bearers of a role."
      },
      "grantRole(bytes32,address)": {
        "details": "Grants `role` to `account`.     * If `account` had not been already granted `role`, emits a {RoleGranted} event.     * Requirements:     * - the caller must have ``role``'s admin role."
      },
      "hasRole(bytes32,address)": {
        "details": "Returns `true` if `account` has been granted `role`."
      },
      "renounceRole(bytes32,address)": {
        "details": "Revokes `role` from the calling account.     * Roles are often managed via {grantRole} and {revokeRole}: this function's purpose is to provide a mechanism for accounts to lose their privileges if they are compromised (such as when a trusted device is misplaced).     * If the calling account had been granted `role`, emits a {RoleRevoked} event.     * Requirements:     * - the caller must be `account`."
      },
      "revokeRole(bytes32,address)": {
        "details": "Revokes `role` from `account`.     * If `account` had been granted `role`, emits a {RoleRevoked} event.     * Requirements:     * - the caller must have ``role``'s admin role."
      }
    }
  },
  "userdoc": {
    "methods": {}
  }
}