{
  "contractName": "ChainlinkRandoms",
  "abi": [
    {
      "inputs": [
        {
          "internalType": "address",
          "name": "_vrfCoordinator",
          "type": "address"
        },
        {
          "internalType": "address",
          "name": "_link",
          "type": "address"
        },
        {
          "internalType": "bytes32",
          "name": "_keyHash",
          "type": "bytes32"
        },
        {
          "internalType": "uint256",
          "name": "_fee",
          "type": "uint256"
        }
      ],
      "stateMutability": "nonpayable",
      "type": "constructor"
    },
    {
      "anonymous": false,
      "inputs": [
        {
          "indexed": false,
          "internalType": "address",
          "name": "account",
          "type": "address"
        }
      ],
      "name": "Paused",
      "type": "event"
    },
    {
      "anonymous": false,
      "inputs": [
        {
          "indexed": true,
          "internalType": "bytes32",
          "name": "role",
          "type": "bytes32"
        },
        {
          "indexed": true,
          "internalType": "bytes32",
          "name": "previousAdminRole",
          "type": "bytes32"
        },
        {
          "indexed": true,
          "internalType": "bytes32",
          "name": "newAdminRole",
          "type": "bytes32"
        }
      ],
      "name": "RoleAdminChanged",
      "type": "event"
    },
    {
      "anonymous": false,
      "inputs": [
        {
          "indexed": true,
          "internalType": "bytes32",
          "name": "role",
          "type": "bytes32"
        },
        {
          "indexed": true,
          "internalType": "address",
          "name": "account",
          "type": "address"
        },
        {
          "indexed": true,
          "internalType": "address",
          "name": "sender",
          "type": "address"
        }
      ],
      "name": "RoleGranted",
      "type": "event"
    },
    {
      "anonymous": false,
      "inputs": [
        {
          "indexed": true,
          "internalType": "bytes32",
          "name": "role",
          "type": "bytes32"
        },
        {
          "indexed": true,
          "internalType": "address",
          "name": "account",
          "type": "address"
        },
        {
          "indexed": true,
          "internalType": "address",
          "name": "sender",
          "type": "address"
        }
      ],
      "name": "RoleRevoked",
      "type": "event"
    },
    {
      "anonymous": false,
      "inputs": [
        {
          "indexed": false,
          "internalType": "address",
          "name": "account",
          "type": "address"
        }
      ],
      "name": "Unpaused",
      "type": "event"
    },
    {
      "inputs": [],
      "name": "DEFAULT_ADMIN_ROLE",
      "outputs": [
        {
          "internalType": "bytes32",
          "name": "",
          "type": "bytes32"
        }
      ],
      "stateMutability": "view",
      "type": "function"
    },
    {
      "inputs": [],
      "name": "RANDOMNESS_REQUESTER",
      "outputs": [
        {
          "internalType": "bytes32",
          "name": "",
          "type": "bytes32"
        }
      ],
      "stateMutability": "view",
      "type": "function"
    },
    {
      "inputs": [
        {
          "internalType": "bytes32",
          "name": "role",
          "type": "bytes32"
        }
      ],
      "name": "getRoleAdmin",
      "outputs": [
        {
          "internalType": "bytes32",
          "name": "",
          "type": "bytes32"
        }
      ],
      "stateMutability": "view",
      "type": "function"
    },
    {
      "inputs": [
        {
          "internalType": "bytes32",
          "name": "role",
          "type": "bytes32"
        },
        {
          "internalType": "uint256",
          "name": "index",
          "type": "uint256"
        }
      ],
      "name": "getRoleMember",
      "outputs": [
        {
          "internalType": "address",
          "name": "",
          "type": "address"
        }
      ],
      "stateMutability": "view",
      "type": "function"
    },
    {
      "inputs": [
        {
          "internalType": "bytes32",
          "name": "role",
          "type": "bytes32"
        }
      ],
      "name": "getRoleMemberCount",
      "outputs": [
        {
          "internalType": "uint256",
          "name": "",
          "type": "uint256"
        }
      ],
      "stateMutability": "view",
      "type": "function"
    },
    {
      "inputs": [
        {
          "internalType": "bytes32",
          "name": "role",
          "type": "bytes32"
        },
        {
          "internalType": "address",
          "name": "account",
          "type": "address"
        }
      ],
      "name": "grantRole",
      "outputs": [],
      "stateMutability": "nonpayable",
      "type": "function"
    },
    {
      "inputs": [
        {
          "internalType": "bytes32",
          "name": "role",
          "type": "bytes32"
        },
        {
          "internalType": "address",
          "name": "account",
          "type": "address"
        }
      ],
      "name": "hasRole",
      "outputs": [
        {
          "internalType": "bool",
          "name": "",
          "type": "bool"
        }
      ],
      "stateMutability": "view",
      "type": "function"
    },
    {
      "inputs": [],
      "name": "paused",
      "outputs": [
        {
          "internalType": "bool",
          "name": "",
          "type": "bool"
        }
      ],
      "stateMutability": "view",
      "type": "function"
    },
    {
      "inputs": [
        {
          "internalType": "bytes32",
          "name": "requestId",
          "type": "bytes32"
        },
        {
          "internalType": "uint256",
          "name": "randomness",
          "type": "uint256"
        }
      ],
      "name": "rawFulfillRandomness",
      "outputs": [],
      "stateMutability": "nonpayable",
      "type": "function"
    },
    {
      "inputs": [
        {
          "internalType": "bytes32",
          "name": "role",
          "type": "bytes32"
        },
        {
          "internalType": "address",
          "name": "account",
          "type": "address"
        }
      ],
      "name": "renounceRole",
      "outputs": [],
      "stateMutability": "nonpayable",
      "type": "function"
    },
    {
      "inputs": [
        {
          "internalType": "bytes32",
          "name": "role",
          "type": "bytes32"
        },
        {
          "internalType": "address",
          "name": "account",
          "type": "address"
        }
      ],
      "name": "revokeRole",
      "outputs": [],
      "stateMutability": "nonpayable",
      "type": "function"
    },
    {
      "inputs": [
        {
          "internalType": "address",
          "name": "user",
          "type": "address"
        }
      ],
      "name": "getRandomSeed",
      "outputs": [
        {
          "internalType": "uint256",
          "name": "",
          "type": "uint256"
        }
      ],
      "stateMutability": "view",
      "type": "function"
    },
    {
      "inputs": [],
      "name": "requestRandomNumber",
      "outputs": [],
      "stateMutability": "nonpayable",
      "type": "function"
    },
    {
      "inputs": [],
      "name": "pause",
      "outputs": [],
      "stateMutability": "nonpayable",
      "type": "function"
    },
    {
      "inputs": [],
      "name": "unpause",
      "outputs": [],
      "stateMutability": "nonpayable",
      "type": "function"
    },
    {
      "inputs": [
        {
          "internalType": "uint256",
          "name": "tokenAmount",
          "type": "uint256"
        }
      ],
      "name": "withdrawLink",
      "outputs": [],
      "stateMutability": "nonpayable",
      "type": "function"
    }
  ],
  "bytecode": "0x60c06040523480156200001157600080fd5b506040516200158838038062001588833981810160405260808110156200003757600080fd5b508051602082015160408301516060938401516000805460ff191681556001600160601b031985871b811660a0529584901b909516608052600382905560048190559293919290916200009490336001600160e01b036200009e16565b50505050620001d8565b620000b382826001600160e01b03620000b716565b5050565b6000828152600160209081526040909120620000de91839062000cea6200013b821b17901c565b15620000b357620000f76001600160e01b036200016416565b6001600160a01b0316816001600160a01b0316837f2f8788117e7eff1d82e926ec794901d17c78024a50270940304540a733656f0d60405160405180910390a45050565b60006200015b836001600160a01b0384166001600160e01b036200016816565b90505b92915050565b3390565b60006200017f83836001600160e01b03620001c016565b620001b7575081546001818101845560008481526020808220909301849055845484825282860190935260409020919091556200015e565b5060006200015e565b60009081526001919091016020526040902054151590565b60805160601c60a05160601c61137762000211600039806107a95280610b2952508061051052806106665280610afa52506113776000f3fe608060405234801561001057600080fd5b50600436106101005760003560e01c80638456cb591161009757806394985ddd1161006657806394985ddd14610278578063a217fddf1461029b578063ca15c873146102a3578063d547741f146102c057610100565b80638456cb59146101fd5780638678a7b2146102055780639010d07c1461020d57806391d148541461024c57610100565b80633f4ba83a116100d35780633f4ba83a146101b45780635c975abb146101bc578063790273dd146101d85780637a8042bd146101e057610100565b8063248a9ca3146101055780632f2ff15d1461013457806336568abe146101625780633883d8541461018e575b600080fd5b6101226004803603602081101561011b57600080fd5b50356102ec565b60408051918252519081900360200190f35b6101606004803603604081101561014a57600080fd5b50803590602001356001600160a01b0316610301565b005b6101606004803603604081101561017857600080fd5b50803590602001356001600160a01b031661036d565b610122600480360360208110156101a457600080fd5b50356001600160a01b03166103ce565b610160610434565b6101c4610486565b604080519115158252519081900360200190f35b61012261048f565b610160600480360360208110156101f657600080fd5b50356104bb565b610160610540565b610160610590565b6102306004803603604081101561022357600080fd5b5080359060200135610759565b604080516001600160a01b039092168252519081900360200190f35b6101c46004803603604081101561026257600080fd5b50803590602001356001600160a01b0316610780565b6101606004803603604081101561028e57600080fd5b508035906020013561079e565b610122610825565b610122600480360360208110156102b957600080fd5b503561082a565b610160600480360360408110156102d657600080fd5b50803590602001356001600160a01b0316610841565b60009081526001602052604090206002015490565b6000828152600160205260409020600201546103249061031f61089a565b610780565b61035f5760405162461bcd60e51b815260040180806020018281038252602f815260200180611264602f913960400191505060405180910390fd5b610369828261089e565b5050565b61037561089a565b6001600160a01b0316816001600160a01b0316146103c45760405162461bcd60e51b815260040180806020018281038252602f815260200180611313602f913960400191505060405180910390fd5b610369828261090d565b60008160055460014303405a60405160200180856001600160a01b03166001600160a01b031660601b81526014018481526020018381526020018281526020019450505050506040516020818303038152906040528051906020012060001c9050919050565b61043f600033610780565b61047c576040805162461bcd60e51b81526020600482015260096024820152682737ba1030b236b4b760b91b604482015290519081900360640190fd5b61048461097c565b565b60005460ff1690565b60408051732920a72227a6a722a9a9afa922a8aaa2a9aa22a960611b8152905190819003601401902081565b6104c6600033610780565b610503576040805162461bcd60e51b81526020600482015260096024820152682737ba1030b236b4b760b91b604482015290519081900360640190fd5b61053d6001600160a01b037f000000000000000000000000000000000000000000000000000000000000000016338363ffffffff610a1c16565b50565b61054b600033610780565b610588576040805162461bcd60e51b81526020600482015260096024820152682737ba1030b236b4b760b91b604482015290519081900360640190fd5b610484610a73565b610598610486565b156105dd576040805162461bcd60e51b815260206004820152601060248201526f14185d5cd8589b194e881c185d5cd95960821b604482015290519081900360640190fd5b60408051732920a72227a6a722a9a9afa922a8aaa2a9aa22a960611b815290519081900360140190206106109033610780565b610661576040805162461bcd60e51b815260206004820152601a60248201527f53656e6465722063616e6e6f7420726571756573742073656564000000000000604482015290519081900360640190fd5b6004547f00000000000000000000000000000000000000000000000000000000000000006001600160a01b03166370a08231306040518263ffffffff1660e01b815260040180826001600160a01b03166001600160a01b0316815260200191505060206040518083038186803b1580156106da57600080fd5b505afa1580156106ee573d6000803e3d6000fd5b505050506040513d602081101561070457600080fd5b5051101561074b576040805162461bcd60e51b815260206004820152600f60248201526e4e6f7420656e6f756768204c494e4b60881b604482015290519081900360640190fd5b61053d600354600454610af6565b6000828152600160205260408120610777908363ffffffff610cb816565b90505b92915050565b6000828152600160205260408120610777908363ffffffff610cc416565b336001600160a01b037f0000000000000000000000000000000000000000000000000000000000000000161461081b576040805162461bcd60e51b815260206004820152601f60248201527f4f6e6c7920565246436f6f7264696e61746f722063616e2066756c66696c6c00604482015290519081900360640190fd5b6103698282610cd9565b600081565b600081815260016020526040812061077a90610cdf565b60008281526001602052604090206002015461085f9061031f61089a565b6103c45760405162461bcd60e51b81526004018080602001828103825260308152602001806112b96030913960400191505060405180910390fd5b3390565b60008281526001602052604090206108bc908263ffffffff610cea16565b15610369576108c961089a565b6001600160a01b0316816001600160a01b0316837f2f8788117e7eff1d82e926ec794901d17c78024a50270940304540a733656f0d60405160405180910390a45050565b600082815260016020526040902061092b908263ffffffff610cff16565b156103695761093861089a565b6001600160a01b0316816001600160a01b0316837ff6391f5c32d9c69d2a47ea670b442974b53935d1edc7fd64eb21e047a839171b60405160405180910390a45050565b610984610486565b6109cc576040805162461bcd60e51b815260206004820152601460248201527314185d5cd8589b194e881b9bdd081c185d5cd95960621b604482015290519081900360640190fd5b6000805460ff191690557f5db9ee0a495bf2e6ff9c91a7834c1ba4fdd244a5e8aa4e537bd38aeae4b073aa6109ff61089a565b604080516001600160a01b039092168252519081900360200190a1565b604080516001600160a01b038416602482015260448082018490528251808303909101815260649091019091526020810180516001600160e01b031663a9059cbb60e01b179052610a6e908490610d14565b505050565b610a7b610486565b15610ac0576040805162461bcd60e51b815260206004820152601060248201526f14185d5cd8589b194e881c185d5cd95960821b604482015290519081900360640190fd5b6000805460ff191660011790557f62e78cea01bee320cd4e420270b5ea74000d11b0c9f74754ebdbfc544b05a2586109ff61089a565b60007f00000000000000000000000000000000000000000000000000000000000000006001600160a01b0316634000aea07f00000000000000000000000000000000000000000000000000000000000000008486600060405160200180838152602001828152602001925050506040516020818303038152906040526040518463ffffffff1660e01b815260040180846001600160a01b03166001600160a01b0316815260200183815260200180602001828103825283818151815260200191508051906020019080838360005b83811015610bdc578181015183820152602001610bc4565b50505050905090810190601f168015610c095780820380516001836020036101000a031916815260200191505b50945050505050602060405180830381600087803b158015610c2a57600080fd5b505af1158015610c3e573d6000803e3d6000fd5b505050506040513d6020811015610c5457600080fd5b5050600083815260026020526040812054610c7490859083903090610dc5565b600085815260026020526040902054909150610c9790600163ffffffff610e0c16565b600085815260026020526040902055610cb08482610e66565b949350505050565b60006107778383610e92565b6000610777836001600160a01b038416610ef6565b60055550565b600061077a82610f0e565b6000610777836001600160a01b038416610f12565b6000610777836001600160a01b038416610f5c565b6060610d69826040518060400160405280602081526020017f5361666545524332303a206c6f772d6c6576656c2063616c6c206661696c6564815250856001600160a01b03166110229092919063ffffffff16565b805190915015610a6e57808060200190516020811015610d8857600080fd5b5051610a6e5760405162461bcd60e51b815260040180806020018281038252602a8152602001806112e9602a913960400191505060405180910390fd5b60408051602080820196909652808201949094526001600160a01b039290921660608401526080808401919091528151808403909101815260a09092019052805191012090565b600082820183811015610777576040805162461bcd60e51b815260206004820152601b60248201527f536166654d6174683a206164646974696f6e206f766572666c6f770000000000604482015290519081900360640190fd5b604080516020808201949094528082019290925280518083038201815260609092019052805191012090565b81546000908210610ed45760405162461bcd60e51b81526004018080602001828103825260228152602001806112426022913960400191505060405180910390fd5b826000018281548110610ee357fe5b9060005260206000200154905092915050565b60009081526001919091016020526040902054151590565b5490565b6000610f1e8383610ef6565b610f545750815460018181018455600084815260208082209093018490558454848252828601909352604090209190915561077a565b50600061077a565b600081815260018301602052604081205480156110185783546000198083019190810190600090879083908110610f8f57fe5b9060005260206000200154905080876000018481548110610fac57fe5b600091825260208083209091019290925582815260018981019092526040902090840190558654879080610fdc57fe5b6001900381819060005260206000200160009055905586600101600087815260200190815260200160002060009055600194505050505061077a565b600091505061077a565b6060611031848460008561103b565b90505b9392505050565b60608247101561107c5760405162461bcd60e51b81526004018080602001828103825260268152602001806112936026913960400191505060405180910390fd5b61108585611197565b6110d6576040805162461bcd60e51b815260206004820152601d60248201527f416464726573733a2063616c6c20746f206e6f6e2d636f6e7472616374000000604482015290519081900360640190fd5b60006060866001600160a01b031685876040518082805190602001908083835b602083106111155780518252601f1990920191602091820191016110f6565b6001836020036101000a03801982511681845116808217855250505050505090500191505060006040518083038185875af1925050503d8060008114611177576040519150601f19603f3d011682016040523d82523d6000602084013e61117c565b606091505b509150915061118c82828661119d565b979650505050505050565b3b151590565b606083156111ac575081611034565b8251156111bc5782518084602001fd5b8160405162461bcd60e51b81526004018080602001828103825283818151815260200191508051906020019080838360005b838110156112065781810151838201526020016111ee565b50505050905090810190601f1680156112335780820380516001836020036101000a031916815260200191505b509250505060405180910390fdfe456e756d657261626c655365743a20696e646578206f7574206f6620626f756e6473416363657373436f6e74726f6c3a2073656e646572206d75737420626520616e2061646d696e20746f206772616e74416464726573733a20696e73756666696369656e742062616c616e636520666f722063616c6c416363657373436f6e74726f6c3a2073656e646572206d75737420626520616e2061646d696e20746f207265766f6b655361666545524332303a204552433230206f7065726174696f6e20646964206e6f742073756363656564416363657373436f6e74726f6c3a2063616e206f6e6c792072656e6f756e636520726f6c657320666f722073656c66a26469706673582212205d83c21c8dc8b5fd53623dfc452bd78e6d8a634fff9dc718285377ea20d3b21264736f6c63430006050033",
  "immutableReferences": {
    "76": [
      {
        "length": 32,
        "start": 1296
      },
      {
        "length": 32,
        "start": 1638
      },
      {
        "length": 32,
        "start": 2810
      }
    ],
    "78": [
      {
        "length": 32,
        "start": 1961
      },
      {
        "length": 32,
        "start": 2857
      }
    ]
  },
  "source": "pragma solidity ^0.6.0;\n\nimport \"@openzeppelin/contracts/access/AccessControl.sol\";\nimport \"@openzeppelin/contracts/utils/Pausable.sol\";\nimport \"@openzeppelin/contracts/token/ERC20/SafeERC20.sol\";\nimport \"@openzeppelin/contracts/token/ERC20/IERC20.sol\";\nimport \"@chainlink/contracts/src/v0.6/VRFConsumerBase.sol\";\nimport \"./interfaces/IRandoms.sol\";\n\nstruct SeedState {\n    bytes32 requestId;\n    uint256 seed;\n    bool isAvailable;\n}\n\ncontract ChainlinkRandoms is IRandoms, Pausable, AccessControl, VRFConsumerBase {\n    using SafeERC20 for IERC20;\n\n    uint256 constant VRF_MAGIC_SEED = uint256(keccak256(\"CryptoBlades\"));\n\n    bytes32 public constant RANDOMNESS_REQUESTER = keccak256(\"RANDOMNESS_REQUESTER\");\n\n    bytes32 private keyHash;\n    uint256 private fee;\n\n    uint256 private seed;\n\n    // BSC testnet details:\n    // LINK token: 0x84b9B910527Ad5C03A9Ca831909E21e236EA7b06\n    // VRF Coordinator: 0xa555fC018435bef5A13C6c6870a9d4C11DEC329C\n    // Key Hash: 0xcaf3c3727e033261d383b315559476f48034c13b18f8cafed4d871abe5049186\n    // Fee: 0.1 * 10 ** 18 // 0.1 LINK\n\n    constructor(address _vrfCoordinator, address _link, bytes32 _keyHash, uint256 _fee)\n        VRFConsumerBase(\n            _vrfCoordinator, // VRF Coordinator\n            _link  // LINK Token\n        ) public\n    {\n        keyHash = _keyHash;\n        fee = _fee;\n\n        _setupRole(DEFAULT_ADMIN_ROLE, msg.sender);\n    }\n\n    // Views\n    function getRandomSeed(address user) external override view returns (uint256) {\n        return uint256(keccak256(abi.encodePacked(user, seed, blockhash(block.number - 1), gasleft())));\n    }\n\n    // Mutative\n\n    /**\n     * Requests randomness from a user-provided seed\n     */\n    function requestRandomNumber() external whenNotPaused {\n        require(hasRole(RANDOMNESS_REQUESTER, msg.sender), \"Sender cannot request seed\");\n        require(LINK.balanceOf(address(this)) >= fee, \"Not enough LINK\");\n\n        // the user-provided seed is not necessary, as per the docs\n        // hence we set it to an arbitrary constant\n        requestRandomness(keyHash, fee);\n    }\n\n    function pause() external onlyOwner {\n        _pause();\n    }\n\n    function unpause() external onlyOwner {\n        _unpause();\n    }\n\n    /**\n     * Callback function used by VRF Coordinator\n     */\n    function fulfillRandomness(bytes32 /* requestId */, uint256 randomness) internal override {\n        seed = randomness;\n    }\n\n    function withdrawLink(uint256 tokenAmount) external onlyOwner {\n        // very awkward - but should be safe given that the LINK token is ERC20-compatible\n        IERC20(address(LINK)).safeTransfer(msg.sender, tokenAmount);\n    }\n\n    // Modifiers\n    modifier onlyOwner() {\n        require(hasRole(DEFAULT_ADMIN_ROLE, msg.sender), \"Not admin\");\n        _;\n    }\n}\n",
  "sourcePath": "H:\\8.5.1\\contracts\\ChainlinkRandoms.sol",
  "compiler": {
    "name": "solc",
    "version": "0.6.5+commit.f956cc89.Emscripten.clang"
  },
  "schemaVersion": "3.4.16",
  "updatedAt": "2023-09-14T02:49:38.756Z",
  "networkType": "ethereum",
  "devdoc": {
    "methods": {
      "getRoleAdmin(bytes32)": {
        "details": "Returns the admin role that controls `role`. See {grantRole} and {revokeRole}.     * To change a role's admin, use {_setRoleAdmin}."
      },
      "getRoleMember(bytes32,uint256)": {
        "details": "Returns one of the accounts that have `role`. `index` must be a value between 0 and {getRoleMemberCount}, non-inclusive.     * Role bearers are not sorted in any particular way, and their ordering may change at any point.     * WARNING: When using {getRoleMember} and {getRoleMemberCount}, make sure you perform all queries on the same block. See the following https://forum.openzeppelin.com/t/iterating-over-elements-on-enumerableset-in-openzeppelin-contracts/2296[forum post] for more information."
      },
      "getRoleMemberCount(bytes32)": {
        "details": "Returns the number of accounts that have `role`. Can be used together with {getRoleMember} to enumerate all bearers of a role."
      },
      "grantRole(bytes32,address)": {
        "details": "Grants `role` to `account`.     * If `account` had not been already granted `role`, emits a {RoleGranted} event.     * Requirements:     * - the caller must have ``role``'s admin role."
      },
      "hasRole(bytes32,address)": {
        "details": "Returns `true` if `account` has been granted `role`."
      },
      "paused()": {
        "details": "Returns true if the contract is paused, and false otherwise."
      },
      "renounceRole(bytes32,address)": {
        "details": "Revokes `role` from the calling account.     * Roles are often managed via {grantRole} and {revokeRole}: this function's purpose is to provide a mechanism for accounts to lose their privileges if they are compromised (such as when a trusted device is misplaced).     * If the calling account had been granted `role`, emits a {RoleRevoked} event.     * Requirements:     * - the caller must be `account`."
      },
      "revokeRole(bytes32,address)": {
        "details": "Revokes `role` from `account`.     * If `account` had been granted `role`, emits a {RoleRevoked} event.     * Requirements:     * - the caller must have ``role``'s admin role."
      }
    }
  },
  "userdoc": {
    "methods": {
      "requestRandomNumber()": {
        "notice": "Requests randomness from a user-provided seed"
      }
    }
  }
}