{
  "contractName": "Characters",
  "abi": [
    {
      "anonymous": false,
      "inputs": [
        {
          "indexed": true,
          "internalType": "address",
          "name": "owner",
          "type": "address"
        },
        {
          "indexed": true,
          "internalType": "address",
          "name": "approved",
          "type": "address"
        },
        {
          "indexed": true,
          "internalType": "uint256",
          "name": "tokenId",
          "type": "uint256"
        }
      ],
      "name": "Approval",
      "type": "event"
    },
    {
      "anonymous": false,
      "inputs": [
        {
          "indexed": true,
          "internalType": "address",
          "name": "owner",
          "type": "address"
        },
        {
          "indexed": true,
          "internalType": "address",
          "name": "operator",
          "type": "address"
        },
        {
          "indexed": false,
          "internalType": "bool",
          "name": "approved",
          "type": "bool"
        }
      ],
      "name": "ApprovalForAll",
      "type": "event"
    },
    {
      "anonymous": false,
      "inputs": [
        {
          "indexed": true,
          "internalType": "address",
          "name": "owner",
          "type": "address"
        },
        {
          "indexed": true,
          "internalType": "uint256",
          "name": "character",
          "type": "uint256"
        },
        {
          "indexed": false,
          "internalType": "uint16",
          "name": "level",
          "type": "uint16"
        }
      ],
      "name": "LevelUp",
      "type": "event"
    },
    {
      "anonymous": false,
      "inputs": [
        {
          "indexed": true,
          "internalType": "uint256",
          "name": "character",
          "type": "uint256"
        },
        {
          "indexed": true,
          "internalType": "address",
          "name": "minter",
          "type": "address"
        }
      ],
      "name": "NewCharacter",
      "type": "event"
    },
    {
      "anonymous": false,
      "inputs": [
        {
          "indexed": true,
          "internalType": "bytes32",
          "name": "role",
          "type": "bytes32"
        },
        {
          "indexed": true,
          "internalType": "bytes32",
          "name": "previousAdminRole",
          "type": "bytes32"
        },
        {
          "indexed": true,
          "internalType": "bytes32",
          "name": "newAdminRole",
          "type": "bytes32"
        }
      ],
      "name": "RoleAdminChanged",
      "type": "event"
    },
    {
      "anonymous": false,
      "inputs": [
        {
          "indexed": true,
          "internalType": "bytes32",
          "name": "role",
          "type": "bytes32"
        },
        {
          "indexed": true,
          "internalType": "address",
          "name": "account",
          "type": "address"
        },
        {
          "indexed": true,
          "internalType": "address",
          "name": "sender",
          "type": "address"
        }
      ],
      "name": "RoleGranted",
      "type": "event"
    },
    {
      "anonymous": false,
      "inputs": [
        {
          "indexed": true,
          "internalType": "bytes32",
          "name": "role",
          "type": "bytes32"
        },
        {
          "indexed": true,
          "internalType": "address",
          "name": "account",
          "type": "address"
        },
        {
          "indexed": true,
          "internalType": "address",
          "name": "sender",
          "type": "address"
        }
      ],
      "name": "RoleRevoked",
      "type": "event"
    },
    {
      "anonymous": false,
      "inputs": [
        {
          "indexed": true,
          "internalType": "address",
          "name": "from",
          "type": "address"
        },
        {
          "indexed": true,
          "internalType": "address",
          "name": "to",
          "type": "address"
        },
        {
          "indexed": true,
          "internalType": "uint256",
          "name": "tokenId",
          "type": "uint256"
        }
      ],
      "name": "Transfer",
      "type": "event"
    },
    {
      "inputs": [],
      "name": "DEFAULT_ADMIN_ROLE",
      "outputs": [
        {
          "internalType": "bytes32",
          "name": "",
          "type": "bytes32"
        }
      ],
      "stateMutability": "view",
      "type": "function",
      "constant": true
    },
    {
      "inputs": [],
      "name": "GAME_ADMIN",
      "outputs": [
        {
          "internalType": "bytes32",
          "name": "",
          "type": "bytes32"
        }
      ],
      "stateMutability": "view",
      "type": "function",
      "constant": true
    },
    {
      "inputs": [],
      "name": "NO_OWNED_LIMIT",
      "outputs": [
        {
          "internalType": "bytes32",
          "name": "",
          "type": "bytes32"
        }
      ],
      "stateMutability": "view",
      "type": "function",
      "constant": true
    },
    {
      "inputs": [],
      "name": "RECEIVE_DOES_NOT_SET_TRANSFER_TIMESTAMP",
      "outputs": [
        {
          "internalType": "bytes32",
          "name": "",
          "type": "bytes32"
        }
      ],
      "stateMutability": "view",
      "type": "function",
      "constant": true
    },
    {
      "inputs": [],
      "name": "TRANSFER_COOLDOWN",
      "outputs": [
        {
          "internalType": "uint256",
          "name": "",
          "type": "uint256"
        }
      ],
      "stateMutability": "view",
      "type": "function",
      "constant": true
    },
    {
      "inputs": [
        {
          "internalType": "address",
          "name": "to",
          "type": "address"
        },
        {
          "internalType": "uint256",
          "name": "tokenId",
          "type": "uint256"
        }
      ],
      "name": "approve",
      "outputs": [],
      "stateMutability": "nonpayable",
      "type": "function"
    },
    {
      "inputs": [
        {
          "internalType": "address",
          "name": "owner",
          "type": "address"
        }
      ],
      "name": "balanceOf",
      "outputs": [
        {
          "internalType": "uint256",
          "name": "",
          "type": "uint256"
        }
      ],
      "stateMutability": "view",
      "type": "function",
      "constant": true
    },
    {
      "inputs": [],
      "name": "baseURI",
      "outputs": [
        {
          "internalType": "string",
          "name": "",
          "type": "string"
        }
      ],
      "stateMutability": "view",
      "type": "function",
      "constant": true
    },
    {
      "inputs": [],
      "name": "characterLimit",
      "outputs": [
        {
          "internalType": "uint256",
          "name": "",
          "type": "uint256"
        }
      ],
      "stateMutability": "view",
      "type": "function",
      "constant": true
    },
    {
      "inputs": [
        {
          "internalType": "uint256",
          "name": "tokenId",
          "type": "uint256"
        }
      ],
      "name": "getApproved",
      "outputs": [
        {
          "internalType": "address",
          "name": "",
          "type": "address"
        }
      ],
      "stateMutability": "view",
      "type": "function",
      "constant": true
    },
    {
      "inputs": [
        {
          "internalType": "bytes32",
          "name": "role",
          "type": "bytes32"
        }
      ],
      "name": "getRoleAdmin",
      "outputs": [
        {
          "internalType": "bytes32",
          "name": "",
          "type": "bytes32"
        }
      ],
      "stateMutability": "view",
      "type": "function",
      "constant": true
    },
    {
      "inputs": [
        {
          "internalType": "bytes32",
          "name": "role",
          "type": "bytes32"
        },
        {
          "internalType": "uint256",
          "name": "index",
          "type": "uint256"
        }
      ],
      "name": "getRoleMember",
      "outputs": [
        {
          "internalType": "address",
          "name": "",
          "type": "address"
        }
      ],
      "stateMutability": "view",
      "type": "function",
      "constant": true
    },
    {
      "inputs": [
        {
          "internalType": "bytes32",
          "name": "role",
          "type": "bytes32"
        }
      ],
      "name": "getRoleMemberCount",
      "outputs": [
        {
          "internalType": "uint256",
          "name": "",
          "type": "uint256"
        }
      ],
      "stateMutability": "view",
      "type": "function",
      "constant": true
    },
    {
      "inputs": [
        {
          "internalType": "bytes32",
          "name": "role",
          "type": "bytes32"
        },
        {
          "internalType": "address",
          "name": "account",
          "type": "address"
        }
      ],
      "name": "grantRole",
      "outputs": [],
      "stateMutability": "nonpayable",
      "type": "function"
    },
    {
      "inputs": [
        {
          "internalType": "bytes32",
          "name": "role",
          "type": "bytes32"
        },
        {
          "internalType": "address",
          "name": "account",
          "type": "address"
        }
      ],
      "name": "hasRole",
      "outputs": [
        {
          "internalType": "bool",
          "name": "",
          "type": "bool"
        }
      ],
      "stateMutability": "view",
      "type": "function",
      "constant": true
    },
    {
      "inputs": [
        {
          "internalType": "address",
          "name": "owner",
          "type": "address"
        },
        {
          "internalType": "address",
          "name": "operator",
          "type": "address"
        }
      ],
      "name": "isApprovedForAll",
      "outputs": [
        {
          "internalType": "bool",
          "name": "",
          "type": "bool"
        }
      ],
      "stateMutability": "view",
      "type": "function",
      "constant": true
    },
    {
      "inputs": [
        {
          "internalType": "uint256",
          "name": "",
          "type": "uint256"
        }
      ],
      "name": "lastTransferTimestamp",
      "outputs": [
        {
          "internalType": "uint256",
          "name": "",
          "type": "uint256"
        }
      ],
      "stateMutability": "view",
      "type": "function",
      "constant": true
    },
    {
      "inputs": [],
      "name": "maxStamina",
      "outputs": [
        {
          "internalType": "uint256",
          "name": "",
          "type": "uint256"
        }
      ],
      "stateMutability": "view",
      "type": "function",
      "constant": true
    },
    {
      "inputs": [],
      "name": "name",
      "outputs": [
        {
          "internalType": "string",
          "name": "",
          "type": "string"
        }
      ],
      "stateMutability": "view",
      "type": "function",
      "constant": true
    },
    {
      "inputs": [
        {
          "internalType": "uint256",
          "name": "tokenId",
          "type": "uint256"
        }
      ],
      "name": "ownerOf",
      "outputs": [
        {
          "internalType": "address",
          "name": "",
          "type": "address"
        }
      ],
      "stateMutability": "view",
      "type": "function",
      "constant": true
    },
    {
      "inputs": [],
      "name": "promos",
      "outputs": [
        {
          "internalType": "contract Promos",
          "name": "",
          "type": "address"
        }
      ],
      "stateMutability": "view",
      "type": "function",
      "constant": true
    },
    {
      "inputs": [
        {
          "internalType": "bytes32",
          "name": "role",
          "type": "bytes32"
        },
        {
          "internalType": "address",
          "name": "account",
          "type": "address"
        }
      ],
      "name": "renounceRole",
      "outputs": [],
      "stateMutability": "nonpayable",
      "type": "function"
    },
    {
      "inputs": [
        {
          "internalType": "bytes32",
          "name": "role",
          "type": "bytes32"
        },
        {
          "internalType": "address",
          "name": "account",
          "type": "address"
        }
      ],
      "name": "revokeRole",
      "outputs": [],
      "stateMutability": "nonpayable",
      "type": "function"
    },
    {
      "inputs": [
        {
          "internalType": "address",
          "name": "from",
          "type": "address"
        },
        {
          "internalType": "address",
          "name": "to",
          "type": "address"
        },
        {
          "internalType": "uint256",
          "name": "tokenId",
          "type": "uint256"
        }
      ],
      "name": "safeTransferFrom",
      "outputs": [],
      "stateMutability": "nonpayable",
      "type": "function"
    },
    {
      "inputs": [
        {
          "internalType": "address",
          "name": "from",
          "type": "address"
        },
        {
          "internalType": "address",
          "name": "to",
          "type": "address"
        },
        {
          "internalType": "uint256",
          "name": "tokenId",
          "type": "uint256"
        },
        {
          "internalType": "bytes",
          "name": "_data",
          "type": "bytes"
        }
      ],
      "name": "safeTransferFrom",
      "outputs": [],
      "stateMutability": "nonpayable",
      "type": "function"
    },
    {
      "inputs": [],
      "name": "secondsPerStamina",
      "outputs": [
        {
          "internalType": "uint256",
          "name": "",
          "type": "uint256"
        }
      ],
      "stateMutability": "view",
      "type": "function",
      "constant": true
    },
    {
      "inputs": [
        {
          "internalType": "address",
          "name": "operator",
          "type": "address"
        },
        {
          "internalType": "bool",
          "name": "approved",
          "type": "bool"
        }
      ],
      "name": "setApprovalForAll",
      "outputs": [],
      "stateMutability": "nonpayable",
      "type": "function"
    },
    {
      "inputs": [
        {
          "internalType": "bytes4",
          "name": "interfaceId",
          "type": "bytes4"
        }
      ],
      "name": "supportsInterface",
      "outputs": [
        {
          "internalType": "bool",
          "name": "",
          "type": "bool"
        }
      ],
      "stateMutability": "view",
      "type": "function",
      "constant": true
    },
    {
      "inputs": [],
      "name": "symbol",
      "outputs": [
        {
          "internalType": "string",
          "name": "",
          "type": "string"
        }
      ],
      "stateMutability": "view",
      "type": "function",
      "constant": true
    },
    {
      "inputs": [
        {
          "internalType": "uint256",
          "name": "index",
          "type": "uint256"
        }
      ],
      "name": "tokenByIndex",
      "outputs": [
        {
          "internalType": "uint256",
          "name": "",
          "type": "uint256"
        }
      ],
      "stateMutability": "view",
      "type": "function",
      "constant": true
    },
    {
      "inputs": [
        {
          "internalType": "address",
          "name": "owner",
          "type": "address"
        },
        {
          "internalType": "uint256",
          "name": "index",
          "type": "uint256"
        }
      ],
      "name": "tokenOfOwnerByIndex",
      "outputs": [
        {
          "internalType": "uint256",
          "name": "",
          "type": "uint256"
        }
      ],
      "stateMutability": "view",
      "type": "function",
      "constant": true
    },
    {
      "inputs": [
        {
          "internalType": "uint256",
          "name": "tokenId",
          "type": "uint256"
        }
      ],
      "name": "tokenURI",
      "outputs": [
        {
          "internalType": "string",
          "name": "",
          "type": "string"
        }
      ],
      "stateMutability": "view",
      "type": "function",
      "constant": true
    },
    {
      "inputs": [],
      "name": "totalSupply",
      "outputs": [
        {
          "internalType": "uint256",
          "name": "",
          "type": "uint256"
        }
      ],
      "stateMutability": "view",
      "type": "function",
      "constant": true
    },
    {
      "inputs": [
        {
          "internalType": "address",
          "name": "from",
          "type": "address"
        },
        {
          "internalType": "address",
          "name": "to",
          "type": "address"
        },
        {
          "internalType": "uint256",
          "name": "tokenId",
          "type": "uint256"
        }
      ],
      "name": "transferFrom",
      "outputs": [],
      "stateMutability": "nonpayable",
      "type": "function"
    },
    {
      "inputs": [],
      "name": "initialize",
      "outputs": [],
      "stateMutability": "nonpayable",
      "type": "function"
    },
    {
      "inputs": [],
      "name": "migrateTo_1ee400a",
      "outputs": [],
      "stateMutability": "nonpayable",
      "type": "function"
    },
    {
      "inputs": [],
      "name": "migrateTo_951a020",
      "outputs": [],
      "stateMutability": "nonpayable",
      "type": "function"
    },
    {
      "inputs": [
        {
          "internalType": "contract Promos",
          "name": "_promos",
          "type": "address"
        }
      ],
      "name": "migrateTo_ef994e2",
      "outputs": [],
      "stateMutability": "nonpayable",
      "type": "function"
    },
    {
      "inputs": [],
      "name": "migrateTo_b627f23",
      "outputs": [],
      "stateMutability": "nonpayable",
      "type": "function"
    },
    {
      "inputs": [
        {
          "internalType": "uint256",
          "name": "tokenId",
          "type": "uint256"
        }
      ],
      "name": "transferCooldownEnd",
      "outputs": [
        {
          "internalType": "uint256",
          "name": "",
          "type": "uint256"
        }
      ],
      "stateMutability": "view",
      "type": "function",
      "constant": true
    },
    {
      "inputs": [
        {
          "internalType": "uint256",
          "name": "tokenId",
          "type": "uint256"
        }
      ],
      "name": "transferCooldownLeft",
      "outputs": [
        {
          "internalType": "uint256",
          "name": "",
          "type": "uint256"
        }
      ],
      "stateMutability": "view",
      "type": "function",
      "constant": true
    },
    {
      "inputs": [
        {
          "internalType": "uint256",
          "name": "id",
          "type": "uint256"
        }
      ],
      "name": "get",
      "outputs": [
        {
          "internalType": "uint16",
          "name": "",
          "type": "uint16"
        },
        {
          "internalType": "uint8",
          "name": "",
          "type": "uint8"
        },
        {
          "internalType": "uint8",
          "name": "",
          "type": "uint8"
        },
        {
          "internalType": "uint64",
          "name": "",
          "type": "uint64"
        },
        {
          "internalType": "uint16",
          "name": "",
          "type": "uint16"
        },
        {
          "internalType": "uint16",
          "name": "",
          "type": "uint16"
        },
        {
          "internalType": "uint16",
          "name": "",
          "type": "uint16"
        },
        {
          "internalType": "uint16",
          "name": "",
          "type": "uint16"
        },
        {
          "internalType": "uint16",
          "name": "",
          "type": "uint16"
        },
        {
          "internalType": "uint16",
          "name": "",
          "type": "uint16"
        }
      ],
      "stateMutability": "view",
      "type": "function",
      "constant": true
    },
    {
      "inputs": [
        {
          "internalType": "address",
          "name": "minter",
          "type": "address"
        },
        {
          "internalType": "uint256",
          "name": "seed",
          "type": "uint256"
        }
      ],
      "name": "mint",
      "outputs": [],
      "stateMutability": "nonpayable",
      "type": "function"
    },
    {
      "inputs": [
        {
          "internalType": "uint256",
          "name": "id",
          "type": "uint256"
        }
      ],
      "name": "getLevel",
      "outputs": [
        {
          "internalType": "uint8",
          "name": "",
          "type": "uint8"
        }
      ],
      "stateMutability": "view",
      "type": "function",
      "constant": true
    },
    {
      "inputs": [
        {
          "internalType": "uint8",
          "name": "currentLevel",
          "type": "uint8"
        }
      ],
      "name": "getRequiredXpForNextLevel",
      "outputs": [
        {
          "internalType": "uint16",
          "name": "",
          "type": "uint16"
        }
      ],
      "stateMutability": "view",
      "type": "function",
      "constant": true
    },
    {
      "inputs": [
        {
          "internalType": "uint256",
          "name": "id",
          "type": "uint256"
        }
      ],
      "name": "getPower",
      "outputs": [
        {
          "internalType": "uint24",
          "name": "",
          "type": "uint24"
        }
      ],
      "stateMutability": "view",
      "type": "function",
      "constant": true
    },
    {
      "inputs": [
        {
          "internalType": "uint8",
          "name": "level",
          "type": "uint8"
        }
      ],
      "name": "getPowerAtLevel",
      "outputs": [
        {
          "internalType": "uint24",
          "name": "",
          "type": "uint24"
        }
      ],
      "stateMutability": "pure",
      "type": "function",
      "constant": true
    },
    {
      "inputs": [
        {
          "internalType": "uint256",
          "name": "id",
          "type": "uint256"
        }
      ],
      "name": "getTrait",
      "outputs": [
        {
          "internalType": "uint8",
          "name": "",
          "type": "uint8"
        }
      ],
      "stateMutability": "view",
      "type": "function",
      "constant": true
    },
    {
      "inputs": [
        {
          "internalType": "uint256",
          "name": "id",
          "type": "uint256"
        }
      ],
      "name": "getXp",
      "outputs": [
        {
          "internalType": "uint32",
          "name": "",
          "type": "uint32"
        }
      ],
      "stateMutability": "view",
      "type": "function",
      "constant": true
    },
    {
      "inputs": [
        {
          "internalType": "uint256",
          "name": "id",
          "type": "uint256"
        },
        {
          "internalType": "uint16",
          "name": "xp",
          "type": "uint16"
        }
      ],
      "name": "gainXp",
      "outputs": [],
      "stateMutability": "nonpayable",
      "type": "function"
    },
    {
      "inputs": [
        {
          "internalType": "uint256",
          "name": "id",
          "type": "uint256"
        }
      ],
      "name": "getStaminaTimestamp",
      "outputs": [
        {
          "internalType": "uint64",
          "name": "",
          "type": "uint64"
        }
      ],
      "stateMutability": "view",
      "type": "function",
      "constant": true
    },
    {
      "inputs": [
        {
          "internalType": "uint256",
          "name": "id",
          "type": "uint256"
        },
        {
          "internalType": "uint64",
          "name": "timestamp",
          "type": "uint64"
        }
      ],
      "name": "setStaminaTimestamp",
      "outputs": [],
      "stateMutability": "nonpayable",
      "type": "function"
    },
    {
      "inputs": [
        {
          "internalType": "uint256",
          "name": "id",
          "type": "uint256"
        }
      ],
      "name": "getStaminaPoints",
      "outputs": [
        {
          "internalType": "uint8",
          "name": "",
          "type": "uint8"
        }
      ],
      "stateMutability": "view",
      "type": "function",
      "constant": true
    },
    {
      "inputs": [
        {
          "internalType": "uint64",
          "name": "timestamp",
          "type": "uint64"
        }
      ],
      "name": "getStaminaPointsFromTimestamp",
      "outputs": [
        {
          "internalType": "uint8",
          "name": "",
          "type": "uint8"
        }
      ],
      "stateMutability": "view",
      "type": "function",
      "constant": true
    },
    {
      "inputs": [
        {
          "internalType": "uint256",
          "name": "id",
          "type": "uint256"
        }
      ],
      "name": "isStaminaFull",
      "outputs": [
        {
          "internalType": "bool",
          "name": "",
          "type": "bool"
        }
      ],
      "stateMutability": "view",
      "type": "function",
      "constant": true
    },
    {
      "inputs": [],
      "name": "getStaminaMaxWait",
      "outputs": [
        {
          "internalType": "uint64",
          "name": "",
          "type": "uint64"
        }
      ],
      "stateMutability": "pure",
      "type": "function",
      "constant": true
    },
    {
      "inputs": [
        {
          "internalType": "uint256",
          "name": "id",
          "type": "uint256"
        },
        {
          "internalType": "uint8",
          "name": "amount",
          "type": "uint8"
        }
      ],
      "name": "getFightDataAndDrainStamina",
      "outputs": [
        {
          "internalType": "uint96",
          "name": "",
          "type": "uint96"
        }
      ],
      "stateMutability": "nonpayable",
      "type": "function"
    },
    {
      "inputs": [
        {
          "internalType": "uint256",
          "name": "max",
          "type": "uint256"
        }
      ],
      "name": "setCharacterLimit",
      "outputs": [],
      "stateMutability": "nonpayable",
      "type": "function"
    }
  ],
  "bytecode": "0x608060405234801561001057600080fd5b5061467e806100206000396000f3fe608060405234801561001057600080fd5b506004361061038e5760003560e01c806370a08231116101de578063a217fddf1161010f578063befd20c6116100ad578063e9477e671161007c578063e9477e6714610ba0578063e985e9c514610ba8578063f2a7417a14610bd6578063ff2e65ab14610c025761038e565b8063befd20c614610b14578063c87b56dd14610b3a578063ca15c87314610b57578063d547741f14610b745761038e565b8063aa3c6cfc116100e9578063aa3c6cfc14610a23578063acb586df14610a2b578063b88d4fde14610a48578063bb3ccd7014610b0c5761038e565b8063a217fddf146109c7578063a22cb465146109cf578063a93bde2f146109fd5761038e565b806386481d401161017c57806391d148541161015657806391d14854146108f05780639507d39a1461091c57806395d89b41146109a25780639d7c828b146109aa5761038e565b806386481d40146108a85780638f08d9e2146108c55780639010d07c146108cd5761038e565b80637d5f8e1e116101b85780637d5f8e1e146108445780637d66a9991461087b5780638129fc1c14610883578063847c8e541461088b5761038e565b806370a082311461080e578063752fde9e146108345780637a4a34121461083c5761038e565b806330947d2a116102c357806354ec7fc01161026157806360eb73e71161023057806360eb73e7146107ab5780636352211e146107e15780636a4d521d146107fe5780636c0360eb146108065761038e565b806354ec7fc01461075a5780635504d3d2146107935780635dba06e41461079b57806360df35d3146107a35761038e565b806342842e0e1161029d57806342842e0e146106e257806344678be1146107185780634f6ccce71461073557806351e717ac146107525761038e565b806330947d2a1461066d57806336568abe1461068a57806340c10f19146106b65761038e565b80630fc0057511610330578063248a9ca31161030a578063248a9ca3146105b15780632ee6accf146105ce5780632f2ff15d146106155780632f745c59146106415761038e565b80630fc005751461053a57806318160ddd1461056157806323b872dd1461057b5761038e565b806306fdde031161036c57806306fdde0314610436578063081812fc146104b3578063095ea7b3146104ec5780630bb185461461051a5761038e565b8063017fe8091461039357806301ffc9a7146103c857806305d3d93a14610403575b600080fd5b6103b0600480360360208110156103a957600080fd5b5035610c1f565b6040805162ffffff9092168252519081900360200190f35b6103ef600480360360208110156103de57600080fd5b50356001600160e01b031916610c5c565b604080519115158252519081900360200190f35b6104206004803603602081101561041957600080fd5b5035610c7f565b6040805160ff9092168252519081900360200190f35b61043e610cbc565b6040805160208082528351818301528351919283929083019185019080838360005b83811015610478578181015183820152602001610460565b50505050905090810190601f1680156104a55780820380516001836020036101000a031916815260200191505b509250505060405180910390f35b6104d0600480360360208110156104c957600080fd5b5035610d53565b604080516001600160a01b039092168252519081900360200190f35b6105186004803603604081101561050257600080fd5b506001600160a01b038135169060200135610db5565b005b6103b06004803603602081101561053057600080fd5b503560ff16610e90565b6105186004803603604081101561055057600080fd5b508035906020013561ffff16610ef2565b610569611040565b60408051918252519081900360200190f35b6105186004803603606081101561059157600080fd5b506001600160a01b03813581169160208101359091169060400135611051565b610569600480360360208110156105c757600080fd5b50356110a8565b6105f4600480360360408110156105e457600080fd5b508035906020013560ff166110bd565b604080516bffffffffffffffffffffffff9092168252519081900360200190f35b6105186004803603604081101561062b57600080fd5b50803590602001356001600160a01b0316611250565b6105696004803603604081101561065757600080fd5b506001600160a01b0381351690602001356112bc565b6103ef6004803603602081101561068357600080fd5b50356112e4565b610518600480360360408110156106a057600080fd5b50803590602001356001600160a01b0316611307565b610518600480360360408110156106cc57600080fd5b506001600160a01b038135169060200135611368565b610518600480360360608110156106f857600080fd5b506001600160a01b0381358116916020810135909116906040013561152d565b6105186004803603602081101561072e57600080fd5b5035611548565b6105696004803603602081101561074b57600080fd5b5035611556565b6104d0611572565b6107776004803603602081101561077057600080fd5b5035611582565b604080516001600160401b039092168252519081900360200190f35b6105696115be565b6105696115e0565b610777611606565b6107c8600480360360208110156107c157600080fd5b503561160c565b6040805163ffffffff9092168252519081900360200190f35b6104d0600480360360208110156107f757600080fd5b503561163c565b61056961166a565b61043e611685565b6105696004803603602081101561082457600080fd5b50356001600160a01b03166116e6565b61051861174e565b6105696117a8565b6108646004803603602081101561085a57600080fd5b503560ff166117af565b6040805161ffff9092168252519081900360200190f35b6105696117ca565b6105186117d0565b610569600480360360208110156108a157600080fd5b50356118d8565b610420600480360360208110156108be57600080fd5b5035611928565b61056961195d565b6104d0600480360360408110156108e357600080fd5b5080359060200135611962565b6103ef6004803603604081101561090657600080fd5b50803590602001356001600160a01b0316611980565b6109396004803603602081101561093257600080fd5b503561199e565b6040805161ffff9b8c16815260ff9a8b16602082015298909916888a01526001600160401b039096166060880152938816608087015291871660a0860152861660c0850152851660e0840152841661010083015290921661012083015251908190036101400190f35b61043e611b03565b610569600480360360208110156109c057600080fd5b5035611b64565b610569611b77565b610518600480360360408110156109e557600080fd5b506001600160a01b0381351690602001351515611b7c565b61051860048036036020811015610a1357600080fd5b50356001600160a01b0316611c81565b610569611cec565b61042060048036036020811015610a4157600080fd5b5035611cf3565b61051860048036036080811015610a5e57600080fd5b6001600160a01b03823581169260208101359091169160408201359190810190608081016060820135600160201b811115610a9857600080fd5b820183602082011115610aaa57600080fd5b803590602001918460018302840111600160201b83111715610acb57600080fd5b91908080601f016020809104026020016040519081016040528093929190818152602001838380828437600092019190915250929550611d29945050505050565b610518611d87565b61042060048036036020811015610b2a57600080fd5b50356001600160401b03166126b9565b61043e60048036036020811015610b5057600080fd5b50356126f6565b61056960048036036020811015610b6d57600080fd5b5035612979565b61051860048036036040811015610b8a57600080fd5b50803590602001356001600160a01b0316612990565b6105186129e9565b6103ef60048036036040811015610bbe57600080fd5b506001600160a01b0381358116916020013516612a39565b61051860048036036040811015610bec57600080fd5b50803590602001356001600160401b0316612a67565b61056960048036036020811015610c1857600080fd5b5035612ab2565b600081610c2b81612ad5565b610c5560c98481548110610c3b57fe5b60009182526020909120015462010000900460ff16610e90565b9392505050565b6001600160e01b0319811660009081526033602052604090205460ff165b919050565b600081610c8b81612ad5565b610c5560c98481548110610c9b57fe5b600091825260209091200154600160201b90046001600160401b03166126b9565b606a8054604080516020601f6002600019610100600188161502019095169490940493840181900481028201810190925282815260609390929091830182828015610d485780601f10610d1d57610100808354040283529160200191610d48565b820191906000526020600020905b815481529060010190602001808311610d2b57829003601f168201915b505050505090505b90565b6000610d5e82612b30565b610d995760405162461bcd60e51b815260040180806020018281038252602c81526020018061451d602c913960400191505060405180910390fd5b506000908152606860205260409020546001600160a01b031690565b6000610dc08261163c565b9050806001600160a01b0316836001600160a01b03161415610e135760405162461bcd60e51b81526004018080602001828103825260218152602001806145a16021913960400191505060405180910390fd5b806001600160a01b0316610e25612b43565b6001600160a01b03161480610e465750610e4681610e41612b43565b612a39565b610e815760405162461bcd60e51b81526004018080602001828103825260388152602001806144216038913960400191505060405180910390fd5b610e8b8383612b47565b505050565b6000610eec610eba6001610eae60ff8616600a63ffffffff612bb516565b9063ffffffff612c1c16565b610ee0610ed160ff8616600a63ffffffff612c7616565b6103e89063ffffffff612c1c16565b9063ffffffff612c7616565b92915050565b610efa612ccf565b600060c98381548110610f0957fe5b6000918252602090912001805490915060ff6201000090910481161015610e8b578054600090610f479061ffff90811690851663ffffffff612c1c16565b825490915060009060cb9062010000900460ff166101008110610f6657fe5b015490505b80821061102a57825460ff6201000080830482166001019091160262ff000019909116178355908190039084610fa08161163c565b8454604080516201000090920460ff168252516001600160a01b0392909216917f1e8ccc52fc2f78485fd47b1731bb16a4286756d20e27ba77463ba36806772372916020908290030190a3825460ff620100009091048116101561102057825460cb9062010000900460ff16610100811061101757fe5b01549050611025565b600091505b610f6b565b50815461ffff191661ffff919091161790555050565b600061104c6066612d3a565b905090565b61106261105c612b43565b82612d45565b61109d5760405162461bcd60e51b81526004018080602001828103825260318152602001806145c26031913960400191505060405180910390fd5b610e8b838383612de1565b60009081526097602052604090206002015490565b60006110c7612ccf565b600060c984815481106110d657fe5b6000918252602082200180549092506110fe90600160201b90046001600160401b03166126b9565b90508360ff168160ff161015611151576040805162461bcd60e51b81526020600482015260136024820152724e6f7420656e6f756768207374616d696e612160681b604482015290519081900360640190fd5b815460ff80861661012c02916001600160401b03600160201b909104169060c8908416106111be57816001600160401b031661118b611606565b85546001600160401b0391821642039290920116600160201b026bffffffffffffffff00000000199091161784556111ed565b83546001600160401b03600160201b80830482168501909116026bffffffffffffffff00000000199091161784555b8354602082901b6bffffffffffffffff0000000016906008906112189062010000900460ff16610e90565b62ffffff16901b8560000160039054906101000a900460ff1660ff161762ffffff16176001600160401b031694505050505092915050565b6000828152609760205260409020600201546112739061126e612b43565b611980565b6112ae5760405162461bcd60e51b815260040180806020018281038252602f815260200180614340602f913960400191505060405180910390fd5b6112b88282612f3f565b5050565b6001600160a01b0382166000908152606560205260408120610c55908363ffffffff612fae16565b6000816112f081612ad5565b60c86112fb84610c7f565b60ff1610159392505050565b61130f612b43565b6001600160a01b0316816001600160a01b03161461135e5760405162461bcd60e51b815260040180806020018281038252602f81526020018061461a602f913960400191505060405180910390fd5b6112b88282612fba565b611370612ccf565b60c9546101cd544314611384576101ce8190555b436101cd556000808061139981600387613029565b905060006113be6113a8611606565b42906001600160401b031663ffffffff61309316565b6040805160808101825261ffff808816825260ff80881660208085019182528883168587019081526001600160401b038089166060880190815260c9805460018181018355600092835299517f66be4f155c5ef2ebd3772b228f2f00681e4ed5826cdb3b1943cc11ad15ad1d289091018054975195519351909416600160201b026bffffffffffffffff000000001993891663010000000263ff0000001996909916620100000262ff00001992909a1661ffff1990981697909717169790971792909216949094171691909117909155835180850190945290835292935060ca928201906114ad908a906130f0565b905281546001808201845560009384526020938490208351600290930201805460ff191660ff90931692909217825591909201519101556114ee878661311c565b6040516001600160a01b0388169086907f4589a3573ad46836d8192432d52ee2523357610d87f3cc4cc61da7ea362989f790600090a350505050505050565b610e8b83838360405180602001604052806000815250611d29565b611550612ccf565b6101cf55565b60008061156a60668463ffffffff61325616565b509392505050565b6101cc546001600160a01b031681565b60008161158e81612ad5565b60c9838154811061159b57fe5b600091825260209091200154600160201b90046001600160401b03169392505050565b604080516923a0a6a2afa0a226a4a760b11b8152905190819003600a01902081565b604080516d1393d7d3d5d3915117d31253525560921b8152905190819003600e01902081565b61ea6090565b60008161161881612ad5565b60c9838154811061162557fe5b60009182526020909120015461ffff169392505050565b6000610eec82604051806060016040528060298152602001614483602991396066919063ffffffff61327416565b6040518060276145f382396027019050604051809103902081565b606d8054604080516020601f6002600019610100600188161502019095169490940493840181900481028201810190925282815260609390929091830182828015610d485780601f10610d1d57610100808354040283529160200191610d48565b60006001600160a01b03821661172d5760405162461bcd60e51b815260040180806020018281038252602a815260200180614459602a913960400191505060405180910390fd5b6001600160a01b0382166000908152606560205260409020610eec90612d3a565b611759600033611980565b611796576040805162461bcd60e51b81526020600482015260096024820152682737ba1030b236b4b760b91b604482015290519081900360640190fd5b6117a66117a1613281565b61328c565b565b6201518081565b600060cb8260ff1661010081106117c257fe5b015492915050565b61012c81565b600054610100900460ff16806117e957506117e9613310565b806117f7575060005460ff16155b6118325760405162461bcd60e51b815260040180806020018281038252602e8152602001806144ac602e913960400191505060405180910390fd5b600054610100900460ff1615801561185d576000805460ff1961ff0019909116610100171660011790555b6118b06040518060400160405280601681526020017521b93cb83a37a13630b232b99031b430b930b1ba32b960511b8152506040518060400160405280600381526020016243424360e81b815250613321565b6118b86133de565b6118c36000336112ae565b80156118d5576000805461ff00191690555b50565b6000808061190e6118f2426201518063ffffffff61309316565b60008681526101cb60205260409020549063ffffffff61347e16565b915091508161191e576000611920565b805b949350505050565b60008161193481612ad5565b60c9838154811061194157fe5b60009182526020909120015462010000900460ff169392505050565b60c881565b6000828152609760205260408120610c55908363ffffffff612fae16565b6000828152609760205260408120610c55908363ffffffff6134a016565b6000806000806000806000806000808a6119b781612ad5565b6119bf614212565b60c98d815481106119cc57fe5b600091825260209182902060408051608081018252929091015461ffff8116835262010000810460ff908116948401949094526301000000810490931690820152600160201b9091046001600160401b031660608201529050611a2d614239565b60ca8e81548110611a3a57fe5b60009182526020918290206040805180820182526002909302909101805460ff168352600190810154838501819052865194870151928701516060880151949650929391611a8a9190600d6134b5565b611a9b86602001516002602d6134b5565b611aac87602001516003603d6134b5565b611abd8860200151600460296134b5565b611ace8960200151600560166134b5565b611adf8a60200151600660026134b5565b9c509c509c509c509c509c509c509c509c509c505050509193959799509193959799565b606b8054604080516020601f6002600019610100600188161502019095169490940493840181900481028201810190925282815260609390929091830182828015610d485780601f10610d1d57610100808354040283529160200191610d48565b6101cb6020526000908152604090205481565b600081565b611b84612b43565b6001600160a01b0316826001600160a01b03161415611bea576040805162461bcd60e51b815260206004820152601960248201527f4552433732313a20617070726f766520746f2063616c6c657200000000000000604482015290519081900360640190fd5b8060696000611bf7612b43565b6001600160a01b03908116825260208083019390935260409182016000908120918716808252919093529120805460ff191692151592909217909155611c3b612b43565b60408051841515815290516001600160a01b0392909216917f17307eab39ab6107e8899845ad3d59bd9653f200f220920489ca2b5937696c319181900360200190a35050565b611c8c600033611980565b611cc9576040805162461bcd60e51b81526020600482015260096024820152682737ba1030b236b4b760b91b604482015290519081900360640190fd5b6101cc80546001600160a01b0319166001600160a01b0392909216919091179055565b6101cf5481565b600081611cff81612ad5565b60c98381548110611d0c57fe5b6000918252602090912001546301000000900460ff169392505050565b611d3a611d34612b43565b83612d45565b611d755760405162461bcd60e51b81526004018080602001828103825260318152602001806145c26031913960400191505060405180910390fd5b611d81848484846134d0565b50505050565b611d92600033611980565b611dcf576040805162461bcd60e51b81526020600482015260096024820152682737ba1030b236b4b760b91b604482015290519081900360640190fd5b60408051611fe08101825260108152601160208201526012918101919091526013606082015260146080820152601660a0820152601860c0820152601a60e0820152601c610100820152601e610120820152602161014082015260246101608201526027610180820152602a6101a0820152602e6101c082015260326101e08201526037610200820152603c61022082015260426102408201526048610260820152604f61028082015260566102a0820152605e6102c082015260676102e08201526071610300820152607c6103208201526088610340820152609561036082015260a361038082015260b26103a082015260c26103c082015260d36103e082015260e561040082015260f861042082015261010c61044082015261012161046082015261013761048082015261014e6104a08201526101666104c082015261017f6104e08201526101996105008201526101b46105208201526101d06105408201526101ed61056082015261020b61058082015261022a6105a082015261024a6105c082015261026b6105e082015261028d6106008201526102b06106208201526102d46106408201526102f961066082015261031f6106808201526103466106a082015261036e6106c08201526103976106e08201526103c16107008201526103ec610720820152610418610740820152610445610760808301919091526104736107808301526104a26107a08301526104d26107c08301526105036107e083015261053561080083015261056861082083015261059c6108408301526105d161086083015261060761088083015261063e6108a08301526106766108c08301526106af6108e08301526106e96109008301526107246109208084019190915261094083019190915261079d6109608301526107db61098083015261081a6109a083015261085a6109c083015261089b6109e08301526108dd610a00830152610a20820152610964610a408201526109a9610a608201526109ef610a80820152610a36610aa0820152610a7e610ac0820152610ac7610ae0820152610b11610b00820152610b5c610b20820152610ba8610b40820152610bf5610b60820152610c43610b80820152610c92610ba0820152610ce2610bc0820152610d33610be0820152610d85610c00820152610dd8610c20820152610e2c610c40820152610e81610c60820152610ed7610c80820152610f2e610ca0820152610f86610cc0820152610fdf610ce0820152611039610d00820152611094610d208201526110f0610d4082015261114d610d608201526111ab610d8082015261120a610da082015261126a610dc08201526112cb610de082015261132d610e00820152611390610e208201526113f4610e40820152611459610e608201526114bf610e80820152611526610ea082015261158e610ec08201526115f7610ee0820152611661610f008201526116cc610f20820152611738610f408201526117a5610f60820152611813610f80820152611882610fa08201526118f2610fc0820152611963610fe08201526119d5611000820152611a48611020820152611abc611040820152611b31611060820152611ba7611080820152611c1e6110a0820152611c966110c0820152611d0f6110e0820152611d89611100820152611e04611120820152611e806111408201819052611efd611160830152611f7b611180830152611ffa6111a083015261207a6111c08301526120fb6111e083015261217d61120083015261220061122083015261228461124083015261230961126083015261238f6112808301526124166112a083015261249e6112c08301526125276112e08301526125b161130083015261263c6113208301526126c86113408301526127556113608301526127e36113808301526128726113a08301526129026113c08301526129936113e0830152612a25611400830152612ab8611420830152612b4c611440830152612be1611460830152612c77611480830152612d0e6114a0830152612da66114c0830152612e3f6114e0830152612ed9611500830152612f746115208301526130106115408301526130ad61156083015261314b6115808301526131ea6115a083015261328a6115c083015261332b6115e08301526133cd6116008301526134706116208301526135146116408301526135b961166083015261365f6116808301526137066116a08301526137ae6116c08301526138576116e08301526139016117008301526139ac611720830152613a58611740830152613b05611760830152613bb3611780830152613c626117a0830152613d126117c0830152613dc36117e0830152613e75611800830152613f28611820830152613fdc6118408301526140916118608301526141476118808301526141fe6118a08301526142b66118c083015261436f6118e08301526144296119008301526144e46119208301526145a061194083015261465d61196083015261471b6119808301526147da6119a083015261489a6119c083015261495b6119e0830152614a1d611a00830152614ae0611a20830152614ba4611a40830152614c69611a60830152614d2f611a80830152614df6611aa0830152614ebe611ac0830152614f87611ae0830152615051611b0083015261511c611b208301526151e8611b408301526152b5611b60830152615383611b80830152615452611ba0830152615522611bc08301526155f3611be08301526156c5611c00830152615798611c2083015261586c611c40830152615941611c60830152615a17611c80830152615aee611ca0830152615bc6611cc0830152615c9f611ce0830152615d79611d00830152615e54611d20830152615f30611d4083015261600d611d608301526160eb611d808301526161ca611da08301526162aa611dc083015261638b611de083015261646d611e00830152616550611e20830152616634611e40830152616719611e608301526167ff908201526168e6611ea08201526169ce611ec0820152616ab7611ee0820152616ba1611f00820152616c8c611f20820152616d78611f40820152616e65611f60820152616f53611f80820152617042611fa0820152617132611fc08201526118d59060cb9060ff614250565b600042826001600160401b031611156126d457506000610c7a565b61012c6001600160401b03831642030460c8811115610eec575060c892915050565b606061270182612b30565b61273c5760405162461bcd60e51b815260040180806020018281038252602f815260200180614572602f913960400191505060405180910390fd5b6000828152606c602090815260409182902080548351601f60026000196101006001861615020190931692909204918201849004840281018401909452808452606093928301828280156127d15780601f106127a6576101008083540402835291602001916127d1565b820191906000526020600020905b8154815290600101906020018083116127b457829003601f168201915b5050505050905060606127e2611685565b90508051600014156127f657509050610c7a565b8151156128b75780826040516020018083805190602001908083835b602083106128315780518252601f199092019160209182019101612812565b51815160209384036101000a600019018019909216911617905285519190930192850191508083835b602083106128795780518252601f19909201916020918201910161285a565b6001836020036101000a0380198251168184511680821785525050505050509050019250505060405160208183030381529060405292505050610c7a565b806128c185613522565b6040516020018083805190602001908083835b602083106128f35780518252601f1990920191602091820191016128d4565b51815160209384036101000a600019018019909216911617905285519190930192850191508083835b6020831061293b5780518252601f19909201916020918201910161291c565b6001836020036101000a0380198251168184511680821785525050505050509050019250505060405160208183030381529060405292505050919050565b6000818152609760205260408120610eec90612d3a565b6000828152609760205260409020600201546129ae9061126e612b43565b61135e5760405162461bcd60e51b81526004018080602001828103825260308152602001806143f16030913960400191505060405180910390fd5b6129f4600033611980565b612a31576040805162461bcd60e51b81526020600482015260096024820152682737ba1030b236b4b760b91b604482015290519081900360640190fd5b60046101cf55565b6001600160a01b03918216600090815260696020908152604080832093909416825291909152205460ff1690565b612a6f612ccf565b8060c98381548110612a7d57fe5b9060005260206000200160000160046101000a8154816001600160401b0302191690836001600160401b031602179055505050565b60008181526101cb6020526040812054610eec906201518063ffffffff612c1c16565b6101ce54811080612ae85750436101cd54105b6118d5576040805162461bcd60e51b81526020600482015260146024820152730546f6f20667265736820666f72206c6f6f6b75760641b604482015290519081900360640190fd5b6000610eec60668363ffffffff6135fc16565b3390565b600081815260686020526040902080546001600160a01b0319166001600160a01b0384169081179091558190612b7c8261163c565b6001600160a01b03167f8c5be1e5ebec7d5bd14f71427d1e84f3dd0314c0f7b2291e5b200ac8c7c3b92560405160405180910390a45050565b6000808211612c0b576040805162461bcd60e51b815260206004820152601a60248201527f536166654d6174683a206469766973696f6e206279207a65726f000000000000604482015290519081900360640190fd5b818381612c1457fe5b049392505050565b600082820183811015610c55576040805162461bcd60e51b815260206004820152601b60248201527f536166654d6174683a206164646974696f6e206f766572666c6f770000000000604482015290519081900360640190fd5b600082612c8557506000610eec565b82820282848281612c9257fe5b0414610c555760405162461bcd60e51b81526004018080602001828103825260218152602001806144fc6021913960400191505060405180910390fd5b604080516923a0a6a2afa0a226a4a760b11b8152905190819003600a019020612cf89033611980565b6117a6576040805162461bcd60e51b815260206004820152600e60248201526d2737ba1033b0b6b29030b236b4b760911b604482015290519081900360640190fd5b6000610eec82613608565b6000612d5082612b30565b612d8b5760405162461bcd60e51b815260040180806020018281038252602c8152602001806143c5602c913960400191505060405180910390fd5b6000612d968361163c565b9050806001600160a01b0316846001600160a01b03161480612dd15750836001600160a01b0316612dc684610d53565b6001600160a01b0316145b8061192057506119208185612a39565b826001600160a01b0316612df48261163c565b6001600160a01b031614612e395760405162461bcd60e51b81526004018080602001828103825260298152602001806145496029913960400191505060405180910390fd5b6001600160a01b038216612e7e5760405162461bcd60e51b81526004018080602001828103825260248152602001806143a16024913960400191505060405180910390fd5b612e8983838361360c565b612e94600082612b47565b6001600160a01b0383166000908152606560205260409020612ebc908263ffffffff61395716565b506001600160a01b0382166000908152606560205260409020612ee5908263ffffffff61396316565b50612ef86066828463ffffffff61396f16565b5080826001600160a01b0316846001600160a01b03167fddf252ad1be2c89b69c2b068fc378daa952ba7f163c4a11628f55a4df523b3ef60405160405180910390a4505050565b6000828152609760205260409020612f5d908263ffffffff61398516565b156112b857612f6a612b43565b6001600160a01b0316816001600160a01b0316837f2f8788117e7eff1d82e926ec794901d17c78024a50270940304540a733656f0d60405160405180910390a45050565b6000610c55838361399a565b6000828152609760205260409020612fd8908263ffffffff6139fe16565b156112b857612fe5612b43565b6001600160a01b0316816001600160a01b0316837ff6391f5c32d9c69d2a47ea670b442974b53935d1edc7fd64eb21e047a839171b60405160405180910390a45050565b6000806130416001610eae868863ffffffff61309316565b6040805160208082018790528251808303820181529183019092528051910120909150600090613077908363ffffffff613a1316565b9050613089818763ffffffff612c1c16565b9695505050505050565b6000828211156130ea576040805162461bcd60e51b815260206004820152601e60248201527f536166654d6174683a207375627472616374696f6e206f766572666c6f770000604482015290519081900360640190fd5b50900390565b604080516020808201949094528082019290925280518083038201815260609092019052805191012090565b6001600160a01b038216613177576040805162461bcd60e51b815260206004820181905260248201527f4552433732313a206d696e7420746f20746865207a65726f2061646472657373604482015290519081900360640190fd5b61318081612b30565b156131d2576040805162461bcd60e51b815260206004820152601c60248201527f4552433732313a20746f6b656e20616c7265616479206d696e74656400000000604482015290519081900360640190fd5b6131de6000838361360c565b6001600160a01b0382166000908152606560205260409020613206908263ffffffff61396316565b506132196066828463ffffffff61396f16565b5060405181906001600160a01b038416906000907fddf252ad1be2c89b69c2b068fc378daa952ba7f163c4a11628f55a4df523b3ef908290a45050565b60008080806132658686613a7a565b909450925050505b9250929050565b6000611920848484613af5565b63398b9a5d60e21b90565b6001600160e01b031980821614156132eb576040805162461bcd60e51b815260206004820152601c60248201527f4552433136353a20696e76616c696420696e7465726661636520696400000000604482015290519081900360640190fd5b6001600160e01b0319166000908152603360205260409020805460ff19166001179055565b600061331b30613bbf565b15905090565b600054610100900460ff168061333a575061333a613310565b80613348575060005460ff16155b6133835760405162461bcd60e51b815260040180806020018281038252602e8152602001806144ac602e913960400191505060405180910390fd5b600054610100900460ff161580156133ae576000805460ff1961ff0019909116610100171660011790555b6133b66133de565b6133be613bc5565b6133c88383613c62565b8015610e8b576000805461ff0019169055505050565b600054610100900460ff16806133f757506133f7613310565b80613405575060005460ff16155b6134405760405162461bcd60e51b815260040180806020018281038252602e8152602001806144ac602e913960400191505060405180910390fd5b600054610100900460ff161580156118c3576000805460ff1961ff00199091166101001716600117905580156118d5576000805461ff001916905550565b600080838311156134945750600090508061326d565b50600193919092039150565b6000610c55836001600160a01b038416613d47565b600061192060008361ffff166134cb87876130f0565b613029565b6134db848484612de1565b6134e784848484613d5f565b611d815760405162461bcd60e51b815260040180806020018281038252603281526020018061436f6032913960400191505060405180910390fd5b60608161354757506040805180820190915260018152600360fc1b6020820152610c7a565b8160005b811561355f57600101600a8204915061354b565b6060816001600160401b038111801561357757600080fd5b506040519080825280601f01601f1916602001820160405280156135a2576020820181803683370190505b50859350905060001982015b83156135f357600a840660300160f81b828280600190039350815181106135d157fe5b60200101906001600160f81b031916908160001a905350600a840493506135ae565b50949350505050565b6000610c558383613d47565b5490565b6001600160a01b0382161580159061362f57506001600160a01b03821661dead14155b80156136655750604080516d1393d7d3d5d3915117d31253525560921b8152905190819003600e0190206136639083611980565b155b156136c9576101cf54613677836116e6565b106136c9576040805162461bcd60e51b815260206004820152601c60248201527f526563762068617320746f6f206d616e79206368617261637465727300000000604482015290519081900360640190fd5b6001600160a01b038316158015906136e957506001600160a01b03821615155b1561379057613701426201518063ffffffff61309316565b60008281526101cb602052604090205410613757576040805162461bcd60e51b81526020600482015260116024820152702a3930b739b332b91031b7b7b63237bbb760791b604482015290519081900360640190fd5b61377960405180806145f3602791396027019050604051809103902083611980565b6137905760008181526101cb602052604090204290555b6101cc546040805163bf2a28cf60e01b815290516001600160a01b039092169163260730e0918691849163bf2a28cf916004808301926020929190829003018186803b1580156137df57600080fd5b505afa1580156137f3573d6000803e3d6000fd5b505050506040513d602081101561380957600080fd5b5051604080516001600160e01b031960e086901b1681526001600160a01b039093166004840152602483019190915251604480830192600092919082900301818387803b15801561385957600080fd5b505af115801561386d573d6000803e3d6000fd5b50506101cc546040805163bf2a28cf60e01b815290516001600160a01b03909216935063260730e092508591849163bf2a28cf916004808301926020929190829003018186803b1580156138c057600080fd5b505afa1580156138d4573d6000803e3d6000fd5b505050506040513d60208110156138ea57600080fd5b5051604080516001600160e01b031960e086901b1681526001600160a01b039093166004840152602483019190915251604480830192600092919082900301818387803b15801561393a57600080fd5b505af115801561394e573d6000803e3d6000fd5b50505050505050565b6000610c558383613edf565b6000610c558383613fa5565b600061192084846001600160a01b038516613fef565b6000610c55836001600160a01b038416613fa5565b815460009082106139dc5760405162461bcd60e51b815260040180806020018281038252602281526020018061431e6022913960400191505060405180910390fd5b8260000182815481106139eb57fe5b9060005260206000200154905092915050565b6000610c55836001600160a01b038416613edf565b6000808211613a69576040805162461bcd60e51b815260206004820152601860248201527f536166654d6174683a206d6f64756c6f206279207a65726f0000000000000000604482015290519081900360640190fd5b818381613a7257fe5b069392505050565b815460009081908310613abe5760405162461bcd60e51b81526004018080602001828103825260228152602001806144da6022913960400191505060405180910390fd5b6000846000018481548110613acf57fe5b906000526020600020906002020190508060000154816001015492509250509250929050565b60008281526001840160205260408120548281613b905760405162461bcd60e51b81526004018080602001828103825283818151815260200191508051906020019080838360005b83811015613b55578181015183820152602001613b3d565b50505050905090810190601f168015613b825780820380516001836020036101000a031916815260200191505b509250505060405180910390fd5b50846000016001820381548110613ba357fe5b9060005260206000209060020201600101549150509392505050565b3b151590565b600054610100900460ff1680613bde5750613bde613310565b80613bec575060005460ff16155b613c275760405162461bcd60e51b815260040180806020018281038252602e8152602001806144ac602e913960400191505060405180910390fd5b600054610100900460ff16158015613c52576000805460ff1961ff0019909116610100171660011790555b6118c36301ffc9a760e01b61328c565b600054610100900460ff1680613c7b5750613c7b613310565b80613c89575060005460ff16155b613cc45760405162461bcd60e51b815260040180806020018281038252602e8152602001806144ac602e913960400191505060405180910390fd5b600054610100900460ff16158015613cef576000805460ff1961ff0019909116610100171660011790555b8251613d0290606a906020860190614295565b508151613d1690606b906020850190614295565b50613d276380ac58cd60e01b61328c565b613d37635b5e139f60e01b61328c565b6133c863780e9d6360e01b61328c565b60009081526001919091016020526040902054151590565b6000613d73846001600160a01b0316613bbf565b613d7f57506001611920565b6060613ea5630a85bd0160e11b613d94612b43565b88878760405160240180856001600160a01b03166001600160a01b03168152602001846001600160a01b03166001600160a01b0316815260200183815260200180602001828103825283818151815260200191508051906020019080838360005b83811015613e0d578181015183820152602001613df5565b50505050905090810190601f168015613e3a5780820380516001836020036101000a031916815260200191505b5095505050505050604051602081830303815290604052906001600160e01b0319166020820180516001600160e01b03838183161783525050505060405180606001604052806032815260200161436f603291396001600160a01b038816919063ffffffff61408616565b90506000818060200190516020811015613ebe57600080fd5b50516001600160e01b031916630a85bd0160e11b1492505050949350505050565b60008181526001830160205260408120548015613f9b5783546000198083019190810190600090879083908110613f1257fe5b9060005260206000200154905080876000018481548110613f2f57fe5b600091825260208083209091019290925582815260018981019092526040902090840190558654879080613f5f57fe5b60019003818190600052602060002001600090559055866001016000878152602001908152602001600020600090556001945050505050610eec565b6000915050610eec565b6000613fb18383613d47565b613fe757508154600181810184556000848152602080822090930184905584548482528286019093526040902091909155610eec565b506000610eec565b600082815260018401602052604081205480614054575050604080518082018252838152602080820184815286546001818101895560008981528481209551600290930290950191825591519082015586548684528188019092529290912055610c55565b8285600001600183038154811061406757fe5b9060005260206000209060020201600101819055506000915050610c55565b606061192084846000858561409a85613bbf565b6140eb576040805162461bcd60e51b815260206004820152601d60248201527f416464726573733a2063616c6c20746f206e6f6e2d636f6e7472616374000000604482015290519081900360640190fd5b60006060866001600160a01b031685876040518082805190602001908083835b6020831061412a5780518252601f19909201916020918201910161410b565b6001836020036101000a03801982511681845116808217855250505050505090500191505060006040518083038185875af1925050503d806000811461418c576040519150601f19603f3d011682016040523d82523d6000602084013e614191565b606091505b50915091506141a18282866141ac565b979650505050505050565b606083156141bb575081610c55565b8251156141cb5782518084602001fd5b60405162461bcd60e51b8152602060048201818152845160248401528451859391928392604401919085019080838360008315613b55578181015183820152602001613b3d565b60408051608081018252600080825260208201819052918101829052606081019190915290565b604080518082019091526000808252602082015290565b826101008101928215614285579160200282015b82811115614285578251829061ffff16905591602001919060010190614264565b50614291929150614303565b5090565b828054600181600116156101000203166002900490600052602060002090601f016020900481019282601f106142d657805160ff1916838001178555614285565b82800160010185558215614285579182015b828111156142855782518255916020019190600101906142e8565b610d5091905b80821115614291576000815560010161430956fe456e756d657261626c655365743a20696e646578206f7574206f6620626f756e6473416363657373436f6e74726f6c3a2073656e646572206d75737420626520616e2061646d696e20746f206772616e744552433732313a207472616e7366657220746f206e6f6e20455243373231526563656976657220696d706c656d656e7465724552433732313a207472616e7366657220746f20746865207a65726f20616464726573734552433732313a206f70657261746f7220717565727920666f72206e6f6e6578697374656e7420746f6b656e416363657373436f6e74726f6c3a2073656e646572206d75737420626520616e2061646d696e20746f207265766f6b654552433732313a20617070726f76652063616c6c6572206973206e6f74206f776e6572206e6f7220617070726f76656420666f7220616c6c4552433732313a2062616c616e636520717565727920666f7220746865207a65726f20616464726573734552433732313a206f776e657220717565727920666f72206e6f6e6578697374656e7420746f6b656e496e697469616c697a61626c653a20636f6e747261637420697320616c726561647920696e697469616c697a6564456e756d657261626c654d61703a20696e646578206f7574206f6620626f756e6473536166654d6174683a206d756c7469706c69636174696f6e206f766572666c6f774552433732313a20617070726f76656420717565727920666f72206e6f6e6578697374656e7420746f6b656e4552433732313a207472616e73666572206f6620746f6b656e2074686174206973206e6f74206f776e4552433732314d657461646174613a2055524920717565727920666f72206e6f6e6578697374656e7420746f6b656e4552433732313a20617070726f76616c20746f2063757272656e74206f776e65724552433732313a207472616e736665722063616c6c6572206973206e6f74206f776e6572206e6f7220617070726f766564524543454956455f444f45535f4e4f545f5345545f5452414e534645525f54494d455354414d50416363657373436f6e74726f6c3a2063616e206f6e6c792072656e6f756e636520726f6c657320666f722073656c66a264697066735822122014aa7925e6f271324d3efe6c60622949f9fdb75bf8b3f4a831215ec440e9a91f64736f6c63430006050033",
  "immutableReferences": {},
  "source": "pragma solidity ^0.6.0;\n\nimport \"@openzeppelin/contracts-upgradeable/proxy/Initializable.sol\";\nimport \"@openzeppelin/contracts-upgradeable/token/ERC721/ERC721Upgradeable.sol\";\nimport \"@openzeppelin/contracts-upgradeable/access/AccessControlUpgradeable.sol\";\nimport \"@openzeppelin/contracts/math/SafeMath.sol\";\nimport \"./Promos.sol\";\nimport \"./util.sol\";\nimport \"./interfaces/ITransferCooldownable.sol\";\n\ncontract Characters is Initializable, ERC721Upgradeable, AccessControlUpgradeable, ITransferCooldownable {\n\n    using SafeMath for uint16;\n    using SafeMath for uint8;\n\n    bytes32 public constant GAME_ADMIN = keccak256(\"GAME_ADMIN\");\n    bytes32 public constant NO_OWNED_LIMIT = keccak256(\"NO_OWNED_LIMIT\");\n    bytes32 public constant RECEIVE_DOES_NOT_SET_TRANSFER_TIMESTAMP = keccak256(\"RECEIVE_DOES_NOT_SET_TRANSFER_TIMESTAMP\");\n\n    uint256 public constant TRANSFER_COOLDOWN = 1 days;\n\n    function initialize () public initializer {\n        __ERC721_init(\"CryptoBlades character\", \"CBC\");\n        __AccessControl_init_unchained();\n\n        _setupRole(DEFAULT_ADMIN_ROLE, msg.sender);\n    }\n\n    function migrateTo_1ee400a() public {\n        require(hasRole(DEFAULT_ADMIN_ROLE, msg.sender), \"Not admin\");\n\n        experienceTable = [\n            16, 17, 18, 19, 20, 22, 24, 26, 28, 30, 33, 36, 39, 42, 46, 50, 55, 60, 66\n            , 72, 79, 86, 94, 103, 113, 124, 136, 149, 163, 178, 194, 211, 229, 248, 268\n            , 289, 311, 334, 358, 383, 409, 436, 464, 493, 523, 554, 586, 619, 653, 688\n            , 724, 761, 799, 838, 878, 919, 961, 1004, 1048, 1093, 1139, 1186, 1234, 1283\n            , 1333, 1384, 1436, 1489, 1543, 1598, 1654, 1711, 1769, 1828, 1888, 1949, 2011\n            , 2074, 2138, 2203, 2269, 2336, 2404, 2473, 2543, 2614, 2686, 2759, 2833, 2908\n            , 2984, 3061, 3139, 3218, 3298, 3379, 3461, 3544, 3628, 3713, 3799, 3886, 3974\n            , 4063, 4153, 4244, 4336, 4429, 4523, 4618, 4714, 4811, 4909, 5008, 5108, 5209\n            , 5311, 5414, 5518, 5623, 5729, 5836, 5944, 6053, 6163, 6274, 6386, 6499, 6613\n            , 6728, 6844, 6961, 7079, 7198, 7318, 7439, 7561, 7684, 7808, 7933, 8059, 8186\n            , 8314, 8443, 8573, 8704, 8836, 8969, 9103, 9238, 9374, 9511, 9649, 9788, 9928\n            , 10069, 10211, 10354, 10498, 10643, 10789, 10936, 11084, 11233, 11383, 11534\n            , 11686, 11839, 11993, 12148, 12304, 12461, 12619, 12778, 12938, 13099, 13261\n            , 13424, 13588, 13753, 13919, 14086, 14254, 14423, 14593, 14764, 14936, 15109\n            , 15283, 15458, 15634, 15811, 15989, 16168, 16348, 16529, 16711, 16894, 17078\n            , 17263, 17449, 17636, 17824, 18013, 18203, 18394, 18586, 18779, 18973, 19168\n            , 19364, 19561, 19759, 19958, 20158, 20359, 20561, 20764, 20968, 21173, 21379\n            , 21586, 21794, 22003, 22213, 22424, 22636, 22849, 23063, 23278, 23494, 23711\n            , 23929, 24148, 24368, 24589, 24811, 25034, 25258, 25483, 25709, 25936, 26164\n            , 26393, 26623, 26854, 27086, 27319, 27553, 27788, 28024, 28261, 28499, 28738\n            , 28978\n        ];\n    }\n\n    function migrateTo_951a020() public {\n        require(hasRole(DEFAULT_ADMIN_ROLE, msg.sender), \"Not admin\");\n\n        _registerInterface(TransferCooldownableInterfaceId.interfaceId());\n    }\n\n    function migrateTo_ef994e2(Promos _promos) public {\n        require(hasRole(DEFAULT_ADMIN_ROLE, msg.sender), \"Not admin\");\n\n        promos = _promos;\n    }\n\n    function migrateTo_b627f23() external {\n        require(hasRole(DEFAULT_ADMIN_ROLE, msg.sender), \"Not admin\");\n\n        characterLimit = 4;\n    }\n\n    /*\n        visual numbers start at 0, increment values by 1\n        levels: 1-256\n        traits: 0-3 [0(fire) > 1(earth) > 2(lightning) > 3(water) > repeat]\n    */\n\n    struct Character {\n        uint16 xp; // xp to next level\n        uint8 level; // up to 256 cap\n        uint8 trait; // 2b trait, TBD\n        uint64 staminaTimestamp; // standard timestamp in seconds-resolution marking regen start from 0\n    }\n    struct CharacterCosmetics {\n        uint8 version;\n        uint256 seed;\n    }\n\n    Character[] private tokens;\n    CharacterCosmetics[] private cosmetics;\n\n    uint256 public constant maxStamina = 200;\n    uint256 public constant secondsPerStamina = 300; //5 * 60\n\n    uint256[256] private experienceTable; // fastest lookup in the west\n\n    mapping(uint256 => uint256) public override lastTransferTimestamp;\n\n    Promos public promos;\n\n    uint256 private lastMintedBlock;\n    uint256 private firstMintedOfLastBlock;\n\n    uint256 public characterLimit;\n\n    event NewCharacter(uint256 indexed character, address indexed minter);\n    event LevelUp(address indexed owner, uint256 indexed character, uint16 level);\n\n    modifier restricted() {\n        _restricted();\n        _;\n    }\n\n    function _restricted() internal view {\n        require(hasRole(GAME_ADMIN, msg.sender), \"Not game admin\");\n    }\n\n    modifier noFreshLookup(uint256 id) {\n        _noFreshLookup(id);\n        _;\n    }\n\n    function _noFreshLookup(uint256 id) internal view {\n        require(id < firstMintedOfLastBlock || lastMintedBlock < block.number, \"Too fresh for lookup\");\n    }\n\n    function transferCooldownEnd(uint256 tokenId) public override view returns (uint256) {\n        return lastTransferTimestamp[tokenId].add(TRANSFER_COOLDOWN);\n    }\n\n    function transferCooldownLeft(uint256 tokenId) public override view returns (uint256) {\n        (bool success, uint256 secondsLeft) =\n            lastTransferTimestamp[tokenId].trySub(\n                block.timestamp.sub(TRANSFER_COOLDOWN)\n            );\n\n        return success ? secondsLeft : 0;\n    }\n\n    function get(uint256 id) public view noFreshLookup(id) returns (uint16, uint8, uint8, uint64, uint16, uint16, uint16, uint16, uint16, uint16) {\n        Character memory c = tokens[id];\n        CharacterCosmetics memory cc = cosmetics[id];\n        return (c.xp, c.level, c.trait, c.staminaTimestamp,\n            getRandomCosmetic(cc.seed, 1, 13), // head\n            getRandomCosmetic(cc.seed, 2, 45), // arms\n            getRandomCosmetic(cc.seed, 3, 61), // torso\n            getRandomCosmetic(cc.seed, 4, 41), // legs\n            getRandomCosmetic(cc.seed, 5, 22), // boots\n            getRandomCosmetic(cc.seed, 6, 2) // race\n        );\n    }\n\n    function getRandomCosmetic(uint256 seed, uint256 seed2, uint16 limit) private pure returns (uint16) {\n        return uint16(RandomUtil.randomSeededMinMax(0, limit, RandomUtil.combineSeeds(seed, seed2)));\n    }\n\n    function mint(address minter, uint256 seed) public restricted {\n        uint256 tokenID = tokens.length;\n\n        if(block.number != lastMintedBlock)\n            firstMintedOfLastBlock = tokenID;\n        lastMintedBlock = block.number;\n\n        uint16 xp = 0;\n        uint8 level = 0; // 1\n        uint8 trait = uint8(RandomUtil.randomSeededMinMax(0,3,seed));\n        uint64 staminaTimestamp = uint64(now.sub(getStaminaMaxWait()));\n\n        tokens.push(Character(xp, level, trait, staminaTimestamp));\n        cosmetics.push(CharacterCosmetics(0, RandomUtil.combineSeeds(seed, 1)));\n        _mint(minter, tokenID);\n        emit NewCharacter(tokenID, minter);\n    }\n\n    function getLevel(uint256 id) public view noFreshLookup(id) returns (uint8) {\n        return tokens[id].level; // this is used by dataminers and it benefits us\n    }\n\n    function getRequiredXpForNextLevel(uint8 currentLevel) public view returns (uint16) {\n        return uint16(experienceTable[currentLevel]); // this is helpful to users as the array is private\n    }\n\n    function getPower(uint256 id) public view noFreshLookup(id) returns (uint24) {\n        return getPowerAtLevel(tokens[id].level);\n    }\n\n    function getPowerAtLevel(uint8 level) public pure returns (uint24) {\n        // does not use fixed points since the numbers are simple\n        // the breakpoints every 10 levels are floored as expected\n        // level starts at 0 (visually 1)\n        // 1000 at lvl 1\n        // 9000 at lvl 51 (~3months)\n        // 22440 at lvl 105 (~3 years)\n        // 92300 at lvl 255 (heat death of the universe)\n        return uint24(\n            uint256(1000)\n                .add(level.mul(10))\n                .mul(level.div(10).add(1))\n        );\n    }\n\n    function getTrait(uint256 id) public view noFreshLookup(id) returns (uint8) {\n        return tokens[id].trait;\n    }\n\n    function getXp(uint256 id) public view noFreshLookup(id) returns (uint32) {\n        return tokens[id].xp;\n    }\n\n    function gainXp(uint256 id, uint16 xp) public restricted {\n        Character storage char = tokens[id];\n        if(char.level < 255) {\n            uint newXp = char.xp.add(xp);\n            uint requiredToLevel = experienceTable[char.level]; // technically next level\n            while(newXp >= requiredToLevel) {\n                newXp = newXp - requiredToLevel;\n                char.level += 1;\n                emit LevelUp(ownerOf(id), id, char.level);\n                if(char.level < 255)\n                    requiredToLevel = experienceTable[char.level];\n                else\n                    newXp = 0;\n            }\n            char.xp = uint16(newXp);\n        }\n    }\n\n    function getStaminaTimestamp(uint256 id) public view noFreshLookup(id) returns (uint64) {\n        return tokens[id].staminaTimestamp;\n    }\n\n    function setStaminaTimestamp(uint256 id, uint64 timestamp) public restricted {\n        tokens[id].staminaTimestamp = timestamp;\n    }\n\n    function getStaminaPoints(uint256 id) public view noFreshLookup(id) returns (uint8) {\n        return getStaminaPointsFromTimestamp(tokens[id].staminaTimestamp);\n    }\n\n    function getStaminaPointsFromTimestamp(uint64 timestamp) public view returns (uint8) {\n        if(timestamp  > now)\n            return 0;\n\n        uint256 points = (now - timestamp) / secondsPerStamina;\n        if(points > maxStamina) {\n            points = maxStamina;\n        }\n        return uint8(points);\n    }\n\n    function isStaminaFull(uint256 id) public view noFreshLookup(id) returns (bool) {\n        return getStaminaPoints(id) >= maxStamina;\n    }\n\n    function getStaminaMaxWait() public pure returns (uint64) {\n        return uint64(maxStamina * secondsPerStamina);\n    }\n\n    function getFightDataAndDrainStamina(uint256 id, uint8 amount) public restricted returns(uint96) {\n        Character storage char = tokens[id];\n        uint8 staminaPoints = getStaminaPointsFromTimestamp(char.staminaTimestamp);\n        require(staminaPoints >= amount, \"Not enough stamina!\");\n\n        uint64 drainTime = uint64(amount * secondsPerStamina);\n        uint64 preTimestamp = char.staminaTimestamp;\n        if(staminaPoints >= maxStamina) { // if stamina full, we reset timestamp and drain from that\n            char.staminaTimestamp = uint64(now - getStaminaMaxWait() + drainTime);\n        }\n        else {\n            char.staminaTimestamp = uint64(char.staminaTimestamp + drainTime);\n        }\n        // bitwise magic to avoid stacking limitations later on\n        return uint96(char.trait | (getPowerAtLevel(char.level) << 8) | (preTimestamp << 32));\n    }\n\n    function _beforeTokenTransfer(address from, address to, uint256 tokenId) internal override {\n        if(to != address(0) && to != address(0x000000000000000000000000000000000000dEaD) && !hasRole(NO_OWNED_LIMIT, to)) {\n            require(balanceOf(to) < characterLimit, \"Recv has too many characters\");\n        }\n\n        // when not minting or burning...\n        if(from != address(0) && to != address(0)) {\n            // only allow transferring a particular token every TRANSFER_COOLDOWN seconds\n            require(lastTransferTimestamp[tokenId] < block.timestamp.sub(TRANSFER_COOLDOWN), \"Transfer cooldown\");\n\n            if(!hasRole(RECEIVE_DOES_NOT_SET_TRANSFER_TIMESTAMP, to)) {\n                lastTransferTimestamp[tokenId] = block.timestamp;\n            }\n        }\n\n        promos.setBit(from, promos.BIT_FIRST_CHARACTER());\n        promos.setBit(to, promos.BIT_FIRST_CHARACTER());\n    }\n\n    function setCharacterLimit(uint256 max) public restricted {\n        characterLimit = max;\n    }\n}\n",
  "sourcePath": "H:\\8.5.1\\contracts\\characters.sol",
  "compiler": {
    "name": "solc",
    "version": "0.6.5+commit.f956cc89.Emscripten.clang"
  },
  "schemaVersion": "3.4.16",
  "updatedAt": "2023-09-14T02:49:07.872Z",
  "networkType": "ethereum",
  "devdoc": {
    "methods": {
      "approve(address,uint256)": {
        "details": "See {IERC721-approve}."
      },
      "balanceOf(address)": {
        "details": "See {IERC721-balanceOf}."
      },
      "baseURI()": {
        "details": "Returns the base URI set via {_setBaseURI}. This will be automatically added as a prefix in {tokenURI} to each token's URI, or to the token ID if no specific URI is set for that token ID."
      },
      "getApproved(uint256)": {
        "details": "See {IERC721-getApproved}."
      },
      "getRoleAdmin(bytes32)": {
        "details": "Returns the admin role that controls `role`. See {grantRole} and {revokeRole}.     * To change a role's admin, use {_setRoleAdmin}."
      },
      "getRoleMember(bytes32,uint256)": {
        "details": "Returns one of the accounts that have `role`. `index` must be a value between 0 and {getRoleMemberCount}, non-inclusive.     * Role bearers are not sorted in any particular way, and their ordering may change at any point.     * WARNING: When using {getRoleMember} and {getRoleMemberCount}, make sure you perform all queries on the same block. See the following https://forum.openzeppelin.com/t/iterating-over-elements-on-enumerableset-in-openzeppelin-contracts/2296[forum post] for more information."
      },
      "getRoleMemberCount(bytes32)": {
        "details": "Returns the number of accounts that have `role`. Can be used together with {getRoleMember} to enumerate all bearers of a role."
      },
      "grantRole(bytes32,address)": {
        "details": "Grants `role` to `account`.     * If `account` had not been already granted `role`, emits a {RoleGranted} event.     * Requirements:     * - the caller must have ``role``'s admin role."
      },
      "hasRole(bytes32,address)": {
        "details": "Returns `true` if `account` has been granted `role`."
      },
      "isApprovedForAll(address,address)": {
        "details": "See {IERC721-isApprovedForAll}."
      },
      "name()": {
        "details": "See {IERC721Metadata-name}."
      },
      "ownerOf(uint256)": {
        "details": "See {IERC721-ownerOf}."
      },
      "renounceRole(bytes32,address)": {
        "details": "Revokes `role` from the calling account.     * Roles are often managed via {grantRole} and {revokeRole}: this function's purpose is to provide a mechanism for accounts to lose their privileges if they are compromised (such as when a trusted device is misplaced).     * If the calling account had been granted `role`, emits a {RoleRevoked} event.     * Requirements:     * - the caller must be `account`."
      },
      "revokeRole(bytes32,address)": {
        "details": "Revokes `role` from `account`.     * If `account` had been granted `role`, emits a {RoleRevoked} event.     * Requirements:     * - the caller must have ``role``'s admin role."
      },
      "safeTransferFrom(address,address,uint256)": {
        "details": "See {IERC721-safeTransferFrom}."
      },
      "safeTransferFrom(address,address,uint256,bytes)": {
        "details": "See {IERC721-safeTransferFrom}."
      },
      "setApprovalForAll(address,bool)": {
        "details": "See {IERC721-setApprovalForAll}."
      },
      "supportsInterface(bytes4)": {
        "details": "See {IERC165-supportsInterface}.     * Time complexity O(1), guaranteed to always use less than 30 000 gas."
      },
      "symbol()": {
        "details": "See {IERC721Metadata-symbol}."
      },
      "tokenByIndex(uint256)": {
        "details": "See {IERC721Enumerable-tokenByIndex}."
      },
      "tokenOfOwnerByIndex(address,uint256)": {
        "details": "See {IERC721Enumerable-tokenOfOwnerByIndex}."
      },
      "tokenURI(uint256)": {
        "details": "See {IERC721Metadata-tokenURI}."
      },
      "totalSupply()": {
        "details": "See {IERC721Enumerable-totalSupply}."
      },
      "transferFrom(address,address,uint256)": {
        "details": "See {IERC721-transferFrom}."
      }
    }
  },
  "userdoc": {
    "methods": {}
  }
}