{
  "contractName": "DummyRandoms",
  "abi": [
    {
      "anonymous": false,
      "inputs": [
        {
          "indexed": true,
          "internalType": "address",
          "name": "previousOwner",
          "type": "address"
        },
        {
          "indexed": true,
          "internalType": "address",
          "name": "newOwner",
          "type": "address"
        }
      ],
      "name": "OwnershipTransferred",
      "type": "event"
    },
    {
      "inputs": [],
      "name": "main",
      "outputs": [
        {
          "internalType": "address",
          "name": "",
          "type": "address"
        }
      ],
      "stateMutability": "view",
      "type": "function",
      "constant": true
    },
    {
      "inputs": [],
      "name": "owner",
      "outputs": [
        {
          "internalType": "address",
          "name": "",
          "type": "address"
        }
      ],
      "stateMutability": "view",
      "type": "function",
      "constant": true
    },
    {
      "inputs": [],
      "name": "renounceOwnership",
      "outputs": [],
      "stateMutability": "nonpayable",
      "type": "function"
    },
    {
      "inputs": [
        {
          "internalType": "address",
          "name": "newMain",
          "type": "address"
        }
      ],
      "name": "setMain",
      "outputs": [],
      "stateMutability": "nonpayable",
      "type": "function"
    },
    {
      "inputs": [
        {
          "internalType": "address",
          "name": "newOwner",
          "type": "address"
        }
      ],
      "name": "transferOwnership",
      "outputs": [],
      "stateMutability": "nonpayable",
      "type": "function"
    },
    {
      "inputs": [],
      "name": "initialize",
      "outputs": [],
      "stateMutability": "nonpayable",
      "type": "function"
    },
    {
      "inputs": [
        {
          "internalType": "address",
          "name": "user",
          "type": "address"
        }
      ],
      "name": "getRandomSeed",
      "outputs": [
        {
          "internalType": "uint256",
          "name": "",
          "type": "uint256"
        }
      ],
      "stateMutability": "view",
      "type": "function",
      "constant": true
    },
    {
      "inputs": [
        {
          "internalType": "uint256",
          "name": "randomValue",
          "type": "uint256"
        }
      ],
      "name": "setRandomNumberForTestingPurposes",
      "outputs": [],
      "stateMutability": "nonpayable",
      "type": "function"
    }
  ],
  "bytecode": "0x608060405234801561001057600080fd5b5061091b806100206000396000f3fe608060405234801561001057600080fd5b50600436106100885760003560e01c80638129fc1c1161005b5780638129fc1c146101125780638da5cb5b1461011a578063dffeadd01461013e578063f2fde38b1461014657610088565b80630d2a0b341461008d5780633883d854146100ac578063715018a6146100e4578063801161b0146100ec575b600080fd5b6100aa600480360360208110156100a357600080fd5b503561016c565b005b6100d2600480360360208110156100c257600080fd5b50356001600160a01b0316610171565b60408051918252519081900360200190f35b6100aa6101c1565b6100aa6004803603602081101561010257600080fd5b50356001600160a01b031661027f565b6100aa610315565b6101226103bf565b604080516001600160a01b039092168252519081900360200190f35b6101226103ce565b6100aa6004803603602081101561015c57600080fd5b50356001600160a01b03166103dd565b606955565b6069546040805160609390931b6bffffffffffffffffffffffff19166020808501919091526034840192909252426054808501919091528151808503909101815260749093019052815191012090565b6101c96104f2565b6001600160a01b03166101da6103bf565b6001600160a01b031614610235576040805162461bcd60e51b815260206004820181905260248201527f4f776e61626c653a2063616c6c6572206973206e6f7420746865206f776e6572604482015290519081900360640190fd5b6033546040516000916001600160a01b0316907f8be0079c531659141344cd1fd0a4f28419497f9722a3daafe3b4186f6b6457e0908390a3603380546001600160a01b0319169055565b6102876104f2565b6001600160a01b03166102986103bf565b6001600160a01b0316146102f3576040805162461bcd60e51b815260206004820181905260248201527f4f776e61626c653a2063616c6c6572206973206e6f7420746865206f776e6572604482015290519081900360640190fd5b606580546001600160a01b0319166001600160a01b0392909216919091179055565b600054610100900460ff168061032e575061032e6104f6565b8061033c575060005460ff16155b6103775760405162461bcd60e51b815260040180806020018281038252602e8152602001806108b8602e913960400191505060405180910390fd5b600054610100900460ff161580156103a2576000805460ff1961ff0019909116610100171660011790555b6103aa610507565b80156103bc576000805461ff00191690555b50565b6033546001600160a01b031690565b6065546001600160a01b031681565b6103e56104f2565b6001600160a01b03166103f66103bf565b6001600160a01b031614610451576040805162461bcd60e51b815260206004820181905260248201527f4f776e61626c653a2063616c6c6572206973206e6f7420746865206f776e6572604482015290519081900360640190fd5b6001600160a01b0381166104965760405162461bcd60e51b81526004018080602001828103825260268152602001806108926026913960400191505060405180910390fd5b6033546040516001600160a01b038084169216907f8be0079c531659141344cd1fd0a4f28419497f9722a3daafe3b4186f6b6457e090600090a3603380546001600160a01b0319166001600160a01b0392909216919091179055565b3390565b6000610501306105a4565b15905090565b600054610100900460ff168061052057506105206104f6565b8061052e575060005460ff16155b6105695760405162461bcd60e51b815260040180806020018281038252602e8152602001806108b8602e913960400191505060405180910390fd5b600054610100900460ff16158015610594576000805460ff1961ff0019909116610100171660011790555b61059c6105aa565b6103aa610647565b3b151590565b600054610100900460ff16806105c357506105c36104f6565b806105d1575060005460ff16155b61060c5760405162461bcd60e51b815260040180806020018281038252602e8152602001806108b8602e913960400191505060405180910390fd5b600054610100900460ff16158015610637576000805460ff1961ff0019909116610100171660011790555b61063f6106f8565b6103aa610798565b600054610100900460ff168061066057506106606104f6565b8061066e575060005460ff16155b6106a95760405162461bcd60e51b815260040180806020018281038252602e8152602001806108b8602e913960400191505060405180910390fd5b600054610100900460ff161580156106d4576000805460ff1961ff0019909116610100171660011790555b606580546001600160a01b031916905580156103bc576000805461ff001916905550565b600054610100900460ff168061071157506107116104f6565b8061071f575060005460ff16155b61075a5760405162461bcd60e51b815260040180806020018281038252602e8152602001806108b8602e913960400191505060405180910390fd5b600054610100900460ff161580156103aa576000805460ff1961ff00199091166101001716600117905580156103bc576000805461ff001916905550565b600054610100900460ff16806107b157506107b16104f6565b806107bf575060005460ff16155b6107fa5760405162461bcd60e51b815260040180806020018281038252602e8152602001806108b8602e913960400191505060405180910390fd5b600054610100900460ff16158015610825576000805460ff1961ff0019909116610100171660011790555b600061082f6104f2565b603380546001600160a01b0319166001600160a01b038316908117909155604051919250906000907f8be0079c531659141344cd1fd0a4f28419497f9722a3daafe3b4186f6b6457e0908290a35080156103bc576000805461ff00191690555056fe4f776e61626c653a206e6577206f776e657220697320746865207a65726f2061646472657373496e697469616c697a61626c653a20636f6e747261637420697320616c726561647920696e697469616c697a6564a2646970667358221220d0ab89f8a0b6620a5a7619870db4d4b716395af36e25b8c2f9851040a2c1beb964736f6c63430006050033",
  "immutableReferences": {},
  "source": "pragma solidity ^0.6.5;\n\nimport \"./interfaces/IRandoms.sol\";\nimport \"./HasMain.sol\";\n\ncontract DummyRandoms is IRandoms, HasMain {\n    // UNUSED; KEPT FOR UPGRADEABILITY PROXY COMPATIBILITY\n    mapping(address => bool) private alreadyRequestedTestingFlag;\n    // UNUSED; KEPT FOR UPGRADEABILITY PROXY COMPATIBILITY\n    mapping(address => bool) private seedAvailable;\n    // UNUSED; KEPT FOR UPGRADEABILITY PROXY COMPATIBILITY\n    mapping(address => uint256) private seeds;\n\n    uint256 private seed;\n\n    function initialize() public initializer {\n        __HasMain_init();\n    }\n\n    // Views\n    function getRandomSeed(address user) external view override returns (uint256) {\n        return uint256(keccak256(abi.encodePacked(user, seed, block.timestamp)));\n    }\n\n    // Mutative\n    function setRandomNumberForTestingPurposes(uint256 randomValue) external {\n        seed = randomValue;\n    }\n}\n",
  "sourcePath": "H:\\8.5.1\\contracts\\DummyRandoms.sol",
  "compiler": {
    "name": "solc",
    "version": "0.6.5+commit.f956cc89.Emscripten.clang"
  },
  "schemaVersion": "3.4.16",
  "updatedAt": "2023-09-14T02:48:16.299Z",
  "networkType": "ethereum",
  "devdoc": {
    "methods": {
      "owner()": {
        "details": "Returns the address of the current owner."
      },
      "renounceOwnership()": {
        "details": "Leaves the contract without owner. It will not be possible to call `onlyOwner` functions anymore. Can only be called by the current owner.     * NOTE: Renouncing ownership will leave the contract without an owner, thereby removing any functionality that is only available to the owner."
      },
      "transferOwnership(address)": {
        "details": "Transfers ownership of the contract to a new account (`newOwner`). Can only be called by the current owner."
      }
    }
  },
  "userdoc": {
    "methods": {}
  }
}