{
  "contractName": "LP2StakingRewardsUpgradeable",
  "abi": [
    {
      "anonymous": false,
      "inputs": [],
      "name": "FailsafeModeEnabled",
      "type": "event"
    },
    {
      "anonymous": false,
      "inputs": [
        {
          "indexed": false,
          "internalType": "uint256",
          "name": "newMinimumStakeAmount",
          "type": "uint256"
        }
      ],
      "name": "MinimumStakeAmountUpdated",
      "type": "event"
    },
    {
      "anonymous": false,
      "inputs": [
        {
          "indexed": false,
          "internalType": "uint256",
          "name": "newMinimumStakeTime",
          "type": "uint256"
        }
      ],
      "name": "MinimumStakeTimeUpdated",
      "type": "event"
    },
    {
      "anonymous": false,
      "inputs": [
        {
          "indexed": true,
          "internalType": "address",
          "name": "previousOwner",
          "type": "address"
        },
        {
          "indexed": true,
          "internalType": "address",
          "name": "newOwner",
          "type": "address"
        }
      ],
      "name": "OwnershipTransferred",
      "type": "event"
    },
    {
      "anonymous": false,
      "inputs": [
        {
          "indexed": false,
          "internalType": "address",
          "name": "account",
          "type": "address"
        }
      ],
      "name": "Paused",
      "type": "event"
    },
    {
      "anonymous": false,
      "inputs": [
        {
          "indexed": false,
          "internalType": "address",
          "name": "token",
          "type": "address"
        },
        {
          "indexed": false,
          "internalType": "uint256",
          "name": "amount",
          "type": "uint256"
        }
      ],
      "name": "Recovered",
      "type": "event"
    },
    {
      "anonymous": false,
      "inputs": [
        {
          "indexed": false,
          "internalType": "uint256",
          "name": "reward",
          "type": "uint256"
        }
      ],
      "name": "RewardAdded",
      "type": "event"
    },
    {
      "anonymous": false,
      "inputs": [
        {
          "indexed": true,
          "internalType": "address",
          "name": "user",
          "type": "address"
        },
        {
          "indexed": false,
          "internalType": "uint256",
          "name": "reward",
          "type": "uint256"
        }
      ],
      "name": "RewardPaid",
      "type": "event"
    },
    {
      "anonymous": false,
      "inputs": [
        {
          "indexed": false,
          "internalType": "uint256",
          "name": "newDuration",
          "type": "uint256"
        }
      ],
      "name": "RewardsDurationUpdated",
      "type": "event"
    },
    {
      "anonymous": false,
      "inputs": [
        {
          "indexed": true,
          "internalType": "address",
          "name": "user",
          "type": "address"
        },
        {
          "indexed": false,
          "internalType": "uint256",
          "name": "amount",
          "type": "uint256"
        }
      ],
      "name": "Staked",
      "type": "event"
    },
    {
      "anonymous": false,
      "inputs": [
        {
          "indexed": false,
          "internalType": "address",
          "name": "account",
          "type": "address"
        }
      ],
      "name": "Unpaused",
      "type": "event"
    },
    {
      "anonymous": false,
      "inputs": [
        {
          "indexed": true,
          "internalType": "address",
          "name": "user",
          "type": "address"
        },
        {
          "indexed": false,
          "internalType": "uint256",
          "name": "amount",
          "type": "uint256"
        }
      ],
      "name": "Withdrawn",
      "type": "event"
    },
    {
      "inputs": [
        {
          "internalType": "address",
          "name": "account",
          "type": "address"
        }
      ],
      "name": "balanceOf",
      "outputs": [
        {
          "internalType": "uint256",
          "name": "",
          "type": "uint256"
        }
      ],
      "stateMutability": "view",
      "type": "function",
      "constant": true
    },
    {
      "inputs": [
        {
          "internalType": "address",
          "name": "account",
          "type": "address"
        }
      ],
      "name": "earned",
      "outputs": [
        {
          "internalType": "uint256",
          "name": "",
          "type": "uint256"
        }
      ],
      "stateMutability": "view",
      "type": "function",
      "constant": true
    },
    {
      "inputs": [],
      "name": "enableFailsafeMode",
      "outputs": [],
      "stateMutability": "nonpayable",
      "type": "function"
    },
    {
      "inputs": [],
      "name": "exit",
      "outputs": [],
      "stateMutability": "nonpayable",
      "type": "function"
    },
    {
      "inputs": [],
      "name": "failsafeModeActive",
      "outputs": [
        {
          "internalType": "bool",
          "name": "",
          "type": "bool"
        }
      ],
      "stateMutability": "view",
      "type": "function",
      "constant": true
    },
    {
      "inputs": [],
      "name": "getReward",
      "outputs": [],
      "stateMutability": "nonpayable",
      "type": "function"
    },
    {
      "inputs": [],
      "name": "getRewardForDuration",
      "outputs": [
        {
          "internalType": "uint256",
          "name": "",
          "type": "uint256"
        }
      ],
      "stateMutability": "view",
      "type": "function",
      "constant": true
    },
    {
      "inputs": [],
      "name": "getStakeRewardDistributionTimeLeft",
      "outputs": [
        {
          "internalType": "uint256",
          "name": "",
          "type": "uint256"
        }
      ],
      "stateMutability": "view",
      "type": "function",
      "constant": true
    },
    {
      "inputs": [],
      "name": "getStakeUnlockTimeLeft",
      "outputs": [
        {
          "internalType": "uint256",
          "name": "",
          "type": "uint256"
        }
      ],
      "stateMutability": "view",
      "type": "function",
      "constant": true
    },
    {
      "inputs": [
        {
          "internalType": "address",
          "name": "_owner",
          "type": "address"
        },
        {
          "internalType": "address",
          "name": "_rewardsDistribution",
          "type": "address"
        },
        {
          "internalType": "address",
          "name": "_rewardsToken",
          "type": "address"
        },
        {
          "internalType": "address",
          "name": "_stakingToken",
          "type": "address"
        },
        {
          "internalType": "uint256",
          "name": "_minimumStakeTime",
          "type": "uint256"
        }
      ],
      "name": "initialize",
      "outputs": [],
      "stateMutability": "nonpayable",
      "type": "function"
    },
    {
      "inputs": [],
      "name": "lastTimeRewardApplicable",
      "outputs": [
        {
          "internalType": "uint256",
          "name": "",
          "type": "uint256"
        }
      ],
      "stateMutability": "view",
      "type": "function",
      "constant": true
    },
    {
      "inputs": [],
      "name": "lastUpdateTime",
      "outputs": [
        {
          "internalType": "uint256",
          "name": "",
          "type": "uint256"
        }
      ],
      "stateMutability": "view",
      "type": "function",
      "constant": true
    },
    {
      "inputs": [
        {
          "internalType": "uint256",
          "name": "_minimumStakeAmount",
          "type": "uint256"
        }
      ],
      "name": "migrateTo_8cb6e70",
      "outputs": [],
      "stateMutability": "nonpayable",
      "type": "function"
    },
    {
      "inputs": [],
      "name": "minimumStakeAmount",
      "outputs": [
        {
          "internalType": "uint256",
          "name": "",
          "type": "uint256"
        }
      ],
      "stateMutability": "view",
      "type": "function",
      "constant": true
    },
    {
      "inputs": [],
      "name": "minimumStakeTime",
      "outputs": [
        {
          "internalType": "uint256",
          "name": "",
          "type": "uint256"
        }
      ],
      "stateMutability": "view",
      "type": "function",
      "constant": true
    },
    {
      "inputs": [
        {
          "internalType": "uint256",
          "name": "reward",
          "type": "uint256"
        }
      ],
      "name": "notifyRewardAmount",
      "outputs": [],
      "stateMutability": "nonpayable",
      "type": "function"
    },
    {
      "inputs": [],
      "name": "owner",
      "outputs": [
        {
          "internalType": "address",
          "name": "",
          "type": "address"
        }
      ],
      "stateMutability": "view",
      "type": "function",
      "constant": true
    },
    {
      "inputs": [],
      "name": "pause",
      "outputs": [],
      "stateMutability": "nonpayable",
      "type": "function"
    },
    {
      "inputs": [],
      "name": "paused",
      "outputs": [
        {
          "internalType": "bool",
          "name": "",
          "type": "bool"
        }
      ],
      "stateMutability": "view",
      "type": "function",
      "constant": true
    },
    {
      "inputs": [],
      "name": "periodFinish",
      "outputs": [
        {
          "internalType": "uint256",
          "name": "",
          "type": "uint256"
        }
      ],
      "stateMutability": "view",
      "type": "function",
      "constant": true
    },
    {
      "inputs": [
        {
          "internalType": "address",
          "name": "tokenAddress",
          "type": "address"
        },
        {
          "internalType": "uint256",
          "name": "tokenAmount",
          "type": "uint256"
        }
      ],
      "name": "recoverERC20",
      "outputs": [],
      "stateMutability": "nonpayable",
      "type": "function"
    },
    {
      "inputs": [],
      "name": "recoverExtraStakingTokensToOwner",
      "outputs": [],
      "stateMutability": "nonpayable",
      "type": "function"
    },
    {
      "inputs": [],
      "name": "recoverOwnStake",
      "outputs": [],
      "stateMutability": "nonpayable",
      "type": "function"
    },
    {
      "inputs": [],
      "name": "renounceOwnership",
      "outputs": [],
      "stateMutability": "nonpayable",
      "type": "function"
    },
    {
      "inputs": [],
      "name": "rewardPerToken",
      "outputs": [
        {
          "internalType": "uint256",
          "name": "",
          "type": "uint256"
        }
      ],
      "stateMutability": "view",
      "type": "function",
      "constant": true
    },
    {
      "inputs": [],
      "name": "rewardPerTokenStored",
      "outputs": [
        {
          "internalType": "uint256",
          "name": "",
          "type": "uint256"
        }
      ],
      "stateMutability": "view",
      "type": "function",
      "constant": true
    },
    {
      "inputs": [],
      "name": "rewardRate",
      "outputs": [
        {
          "internalType": "uint256",
          "name": "",
          "type": "uint256"
        }
      ],
      "stateMutability": "view",
      "type": "function",
      "constant": true
    },
    {
      "inputs": [
        {
          "internalType": "address",
          "name": "",
          "type": "address"
        }
      ],
      "name": "rewards",
      "outputs": [
        {
          "internalType": "uint256",
          "name": "",
          "type": "uint256"
        }
      ],
      "stateMutability": "view",
      "type": "function",
      "constant": true
    },
    {
      "inputs": [],
      "name": "rewardsDistribution",
      "outputs": [
        {
          "internalType": "address",
          "name": "",
          "type": "address"
        }
      ],
      "stateMutability": "view",
      "type": "function",
      "constant": true
    },
    {
      "inputs": [],
      "name": "rewardsDuration",
      "outputs": [
        {
          "internalType": "uint256",
          "name": "",
          "type": "uint256"
        }
      ],
      "stateMutability": "view",
      "type": "function",
      "constant": true
    },
    {
      "inputs": [],
      "name": "rewardsToken",
      "outputs": [
        {
          "internalType": "contract IERC20",
          "name": "",
          "type": "address"
        }
      ],
      "stateMutability": "view",
      "type": "function",
      "constant": true
    },
    {
      "inputs": [
        {
          "internalType": "uint256",
          "name": "_minimumStakeAmount",
          "type": "uint256"
        }
      ],
      "name": "setMinimumStakeAmount",
      "outputs": [],
      "stateMutability": "nonpayable",
      "type": "function"
    },
    {
      "inputs": [
        {
          "internalType": "uint256",
          "name": "_minimumStakeTime",
          "type": "uint256"
        }
      ],
      "name": "setMinimumStakeTime",
      "outputs": [],
      "stateMutability": "nonpayable",
      "type": "function"
    },
    {
      "inputs": [
        {
          "internalType": "address",
          "name": "_rewardsDistribution",
          "type": "address"
        }
      ],
      "name": "setRewardsDistribution",
      "outputs": [],
      "stateMutability": "nonpayable",
      "type": "function"
    },
    {
      "inputs": [
        {
          "internalType": "uint256",
          "name": "_rewardsDuration",
          "type": "uint256"
        }
      ],
      "name": "setRewardsDuration",
      "outputs": [],
      "stateMutability": "nonpayable",
      "type": "function"
    },
    {
      "inputs": [
        {
          "internalType": "uint256",
          "name": "amount",
          "type": "uint256"
        }
      ],
      "name": "stake",
      "outputs": [],
      "stateMutability": "nonpayable",
      "type": "function"
    },
    {
      "inputs": [],
      "name": "stakingToken",
      "outputs": [
        {
          "internalType": "contract IERC20",
          "name": "",
          "type": "address"
        }
      ],
      "stateMutability": "view",
      "type": "function",
      "constant": true
    },
    {
      "inputs": [],
      "name": "totalSupply",
      "outputs": [
        {
          "internalType": "uint256",
          "name": "",
          "type": "uint256"
        }
      ],
      "stateMutability": "view",
      "type": "function",
      "constant": true
    },
    {
      "inputs": [
        {
          "internalType": "address",
          "name": "newOwner",
          "type": "address"
        }
      ],
      "name": "transferOwnership",
      "outputs": [],
      "stateMutability": "nonpayable",
      "type": "function"
    },
    {
      "inputs": [],
      "name": "unpause",
      "outputs": [],
      "stateMutability": "nonpayable",
      "type": "function"
    },
    {
      "inputs": [
        {
          "internalType": "uint256",
          "name": "timestamp",
          "type": "uint256"
        }
      ],
      "name": "updatePeriodFinish",
      "outputs": [],
      "stateMutability": "nonpayable",
      "type": "function"
    },
    {
      "inputs": [
        {
          "internalType": "address",
          "name": "",
          "type": "address"
        }
      ],
      "name": "userRewardPerTokenPaid",
      "outputs": [
        {
          "internalType": "uint256",
          "name": "",
          "type": "uint256"
        }
      ],
      "stateMutability": "view",
      "type": "function",
      "constant": true
    },
    {
      "inputs": [
        {
          "internalType": "uint256",
          "name": "amount",
          "type": "uint256"
        }
      ],
      "name": "withdraw",
      "outputs": [],
      "stateMutability": "nonpayable",
      "type": "function"
    }
  ],
  "bytecode": "0x608060405234801561001057600080fd5b50612d7d806100206000396000f3fe608060405234801561001057600080fd5b50600436106102685760003560e01c8063715018a611610151578063cd3daf9d116100c3578063e9fad8ee11610087578063e9fad8ee14610526578063ebe2b12b1461052e578063f2fde38b14610536578063f603944c1461055c578063f7013ef614610564578063ff994033146105aa57610268565b8063cd3daf9d146104e9578063d1af0c7d146104f1578063df136d65146104f9578063e2adc23714610501578063e94220461461050957610268565b80638980f11f116101155780638980f11f1461044d5780638b876347146104795780638da5cb5b1461049f578063a694fc3a146104a7578063c8f33c91146104c4578063cc1a378f146104cc57610268565b8063715018a61461042557806372f702f31461042d5780637b0a47ee1461043557806380faa57d1461043d5780638456cb591461044557610268565b80632f3d3b14116101ea5780633fc6df6e116101ae5780633fc6df6e146103a657806344142db5146103ca578063556f6e6b146103d25780635c975abb146103ef5780636b036f45146103f757806370a08231146103ff57610268565b80632f3d3b1414610369578063386a9525146103715780633c6b16ab146103795780633d18b912146103965780633f4ba83a1461039e57610268565b80631976214311610231578063197621431461030e5780631c1f78eb14610334578063242df9e11461033c57806327ab1969146103445780632e1a7d4d1461034c57610268565b80628cc2621461026d5780630700037d146102a55780630d29fcd4146102cb5780631265cc97146102ea57806318160ddd14610306575b600080fd5b6102936004803603602081101561028357600080fd5b50356001600160a01b03166105c7565b60408051918252519081900360200190f35b610293600480360360208110156102bb57600080fd5b50356001600160a01b031661065d565b6102e8600480360360208110156102e157600080fd5b503561066f565b005b6102f261074e565b604080519115158252519081900360200190f35b610293610757565b6102e86004803603602081101561032457600080fd5b50356001600160a01b031661075e565b6102936107e2565b610293610800565b610293610806565b6102e86004803603602081101561036257600080fd5b5035610839565b6102e8610ac3565b610293610b7f565b6102e86004803603602081101561038f57600080fd5b5035610b85565b6102e8610e23565b6102e8611013565b6103ae6110cf565b604080516001600160a01b039092168252519081900360200190f35b6102e86110de565b6102e8600480360360208110156103e857600080fd5b50356111fb565b6102f261134c565b61029361135a565b6102936004803603602081101561041557600080fd5b50356001600160a01b0316611360565b6102e861137b565b6103ae611427565b610293611436565b61029361143c565b6102e861144a565b6102e86004803603604081101561046357600080fd5b506001600160a01b038135169060200135611501565b6102936004803603602081101561048f57600080fd5b50356001600160a01b031661161a565b6103ae61162c565b6102e8600480360360208110156104bd57600080fd5b503561163b565b6102936117b5565b6102e8600480360360208110156104e257600080fd5b50356117bb565b6102936118da565b6103ae611934565b610293611943565b6102e8611949565b6102e86004803603602081101561051f57600080fd5b5035611a0e565b6102e8611aed565b610293611b50565b6102e86004803603602081101561054c57600080fd5b50356001600160a01b0316611b56565b610293611c59565b6102e8600480360360a081101561057a57600080fd5b506001600160a01b0381358116916020810135821691604082013581169160608101359091169060800135611c94565b6102e8600480360360208110156105c057600080fd5b5035611dc7565b6001600160a01b038116600090815260d3602090815260408083205460d2909252822054610657919061064b90670de0b6b3a76400009061063f9061061a9061060e6118da565b9063ffffffff611e2e16565b6001600160a01b038816600090815260d560205260409020549063ffffffff611e8b16565b9063ffffffff611eeb16565b9063ffffffff611f5216565b92915050565b60d36020526000908152604090205481565b60985460ff16156106b15760405162461bcd60e51b8152600401808060200182810382526046815260200180612af86046913960600191505060405180910390fd5b6106b9611fac565b6001600160a01b03166106ca61162c565b6001600160a01b031614610713576040805162461bcd60e51b81526020600482018190526024820152600080516020612c21833981519152604482015290519081900360640190fd5b60d88190556040805182815290517ff7fc4cb95c43f64f7a376fd9ef5947d85e6aff2df3e9b1715789ffff63d716329181900360200190a150565b60985460ff1681565b60d4545b90565b610766611fac565b6001600160a01b031661077761162c565b6001600160a01b0316146107c0576040805162461bcd60e51b81526020600482018190526024820152600080516020612c21833981519152604482015290519081900360640190fd5b606580546001600160a01b0319166001600160a01b0392909216919091179055565b60006107fb60ce5460cd54611e8b90919063ffffffff16565b905090565b60cf5481565b60008060006108204260cc54611fb090919063ffffffff16565b9150915081610830576000610832565b805b9250505090565b60985460ff161561087b5760405162461bcd60e51b8152600401808060200182810382526046815260200180612af86046913960600191505060405180910390fd5b600260665414156108d3576040805162461bcd60e51b815260206004820152601f60248201527f5265656e7472616e637947756172643a207265656e7472616e742063616c6c00604482015290519081900360640190fd5b6002606655609854339060ff1661093e576108ec6118da565b60d1556108f761143c565b60d0556001600160a01b0381161561093e57610912816105c7565b6001600160a01b038216600090815260d3602090815260408083209390935560d15460d2909152919020555b60008211610987576040805162461bcd60e51b8152602060048201526011602482015270043616e6e6f74207769746864726177203607c1b604482015290519081900360640190fd5b60cf5415806109b8575060cf5433600090815260d660205260409020546109b590429063ffffffff611e2e16565b10155b6109f35760405162461bcd60e51b8152600401808060200182810382526035815260200180612c416035913960400191505060405180910390fd5b60d454610a06908363ffffffff611e2e16565b60d45533600090815260d56020526040902054610a29908363ffffffff611e2e16565b33600090815260d560205260409020819055610a545733600090815260d66020526040812055610a67565b33600090815260d6602052604090204290555b60cb54610a84906001600160a01b0316338463ffffffff611fd616565b60408051838152905133917f7084f5476618d8e60b11ef0d7d3f06914655adb8793e28ff7f018d4c76d505d5919081900360200190a250506001606655565b60985460ff16610b045760405162461bcd60e51b8152600401808060200182810382526048815260200180612b3e6048913960600191505060405180910390fd5b33600090815260d560205260409020548015610b7c5760d454610b2d908263ffffffff611e2e16565b60d45533600090815260d56020526040902054610b50908263ffffffff611e2e16565b33600081815260d5602052604090209190915560cb54610b7c916001600160a01b039091169083611fd6565b50565b60ce5481565b60985460ff1615610bc75760405162461bcd60e51b8152600401808060200182810382526046815260200180612af86046913960600191505060405180910390fd5b6065546001600160a01b03163314610c105760405162461bcd60e51b815260040180806020018281038252602a815260200180612c9c602a913960400191505060405180910390fd5b60985460009060ff16610c7757610c256118da565b60d155610c3061143c565b60d0556001600160a01b03811615610c7757610c4b816105c7565b6001600160a01b038216600090815260d3602090815260408083209390935560d15460d2909152919020555b60cc544210610c9c5760ce54610c9490839063ffffffff611eeb16565b60cd55610ceb565b60cc54600090610cb2904263ffffffff611e2e16565b90506000610ccb60cd5483611e8b90919063ffffffff16565b60ce54909150610ce59061063f868463ffffffff611f5216565b60cd5550505b60ca54604080516370a0823160e01b815230600482015290516000926001600160a01b0316916370a08231916024808301926020929190829003018186803b158015610d3657600080fd5b505afa158015610d4a573d6000803e3d6000fd5b505050506040513d6020811015610d6057600080fd5b505160ce54909150610d7990829063ffffffff611eeb16565b60cd541115610dcf576040805162461bcd60e51b815260206004820152601860248201527f50726f76696465642072657761726420746f6f20686967680000000000000000604482015290519081900360640190fd5b4260d081905560ce54610de8919063ffffffff611f5216565b60cc556040805184815290517fde88a922e0d3b88b24e9623efeb464919c6bf9f66857a65e2bfcf2ce87a9433d9181900360200190a1505050565b60985460ff1615610e655760405162461bcd60e51b8152600401808060200182810382526046815260200180612af86046913960600191505060405180910390fd5b60026066541415610ebd576040805162461bcd60e51b815260206004820152601f60248201527f5265656e7472616e637947756172643a207265656e7472616e742063616c6c00604482015290519081900360640190fd5b6002606655609854339060ff16610f2857610ed66118da565b60d155610ee161143c565b60d0556001600160a01b03811615610f2857610efc816105c7565b6001600160a01b038216600090815260d3602090815260408083209390935560d15460d2909152919020555b60cf541580610f59575060cf5433600090815260d66020526040902054610f5690429063ffffffff611e2e16565b10155b610f945760405162461bcd60e51b8152600401808060200182810382526037815260200180612cf06037913960400191505060405180910390fd5b33600090815260d36020526040902054801561100a5733600081815260d3602052604081205560ca54610fd3916001600160a01b039091169083611fd6565b60408051828152905133917fe2403640ba68fed3a2f88b7557551d1993f84b99bb10ff833f0cf8db0c5e0486919081900360200190a25b50506001606655565b61101b611fac565b6001600160a01b031661102c61162c565b6001600160a01b031614611075576040805162461bcd60e51b81526020600482018190526024820152600080516020612c21833981519152604482015290519081900360640190fd5b61107d61134c565b6110c5576040805162461bcd60e51b815260206004820152601460248201527314185d5cd8589b194e881b9bdd081c185d5cd95960621b604482015290519081900360640190fd5b6110cd61202d565b565b6065546001600160a01b031681565b6110e6611fac565b6001600160a01b03166110f761162c565b6001600160a01b031614611140576040805162461bcd60e51b81526020600482018190526024820152600080516020612c21833981519152604482015290519081900360640190fd5b60d45460cb54604080516370a0823160e01b815230600482015290516000936111cf9390926001600160a01b03909116916370a0823191602480820192602092909190829003018186803b15801561119757600080fd5b505afa1580156111ab573d6000803e3d6000fd5b505050506040513d60208110156111c157600080fd5b50519063ffffffff611e2e16565b90508015610b7c57610b7c6111e261162c565b60cb546001600160a01b0316908363ffffffff611fd616565b60985460ff161561123d5760405162461bcd60e51b8152600401808060200182810382526046815260200180612af86046913960600191505060405180910390fd5b611245611fac565b6001600160a01b031661125661162c565b6001600160a01b03161461129f576040805162461bcd60e51b81526020600482018190526024820152600080516020612c21833981519152604482015290519081900360640190fd5b60985460009060ff16611306576112b46118da565b60d1556112bf61143c565b60d0556001600160a01b03811615611306576112da816105c7565b6001600160a01b038216600090815260d3602090815260408083209390935560d15460d2909152919020555b60d05482116113465760405162461bcd60e51b8152600401808060200182810382526026815260200180612c766026913960400191505060405180910390fd5b5060cc55565b609854610100900460ff1690565b60d85481565b6001600160a01b0316600090815260d5602052604090205490565b611383611fac565b6001600160a01b031661139461162c565b6001600160a01b0316146113dd576040805162461bcd60e51b81526020600482018190526024820152600080516020612c21833981519152604482015290519081900360640190fd5b6033546040516000916001600160a01b0316907f8be0079c531659141344cd1fd0a4f28419497f9722a3daafe3b4186f6b6457e0908390a3603380546001600160a01b0319169055565b60cb546001600160a01b031681565b60cd5481565b60006107fb4260cc546120ce565b611452611fac565b6001600160a01b031661146361162c565b6001600160a01b0316146114ac576040805162461bcd60e51b81526020600482018190526024820152600080516020612c21833981519152604482015290519081900360640190fd5b6114b461134c565b156114f9576040805162461bcd60e51b815260206004820152601060248201526f14185d5cd8589b194e881c185d5cd95960821b604482015290519081900360640190fd5b6110cd6120e4565b611509611fac565b6001600160a01b031661151a61162c565b6001600160a01b031614611563576040805162461bcd60e51b81526020600482018190526024820152600080516020612c21833981519152604482015290519081900360640190fd5b60cb546001600160a01b03838116911614156115b05760405162461bcd60e51b8152600401808060200182810382526021815260200180612d276021913960400191505060405180910390fd5b6115d26115bb61162c565b6001600160a01b038416908363ffffffff611fd616565b604080516001600160a01b03841681526020810183905281517f8c1256b8896378cd5044f80c202f9772b9d77dc85c8a6eb51967210b09bfaa28929181900390910190a15050565b60d26020526000908152604090205481565b6033546001600160a01b031690565b60985460ff161561167d5760405162461bcd60e51b8152600401808060200182810382526046815260200180612af86046913960600191505060405180910390fd5b600260665414156116d5576040805162461bcd60e51b815260206004820152601f60248201527f5265656e7472616e637947756172643a207265656e7472616e742063616c6c00604482015290519081900360640190fd5b60026066556116e261134c565b15611727576040805162461bcd60e51b815260206004820152601060248201526f14185d5cd8589b194e881c185d5cd95960821b604482015290519081900360640190fd5b609854339060ff1661178d5761173b6118da565b60d15561174661143c565b60d0556001600160a01b0381161561178d57611761816105c7565b6001600160a01b038216600090815260d3602090815260408083209390935560d15460d2909152919020555b6117973383612169565b60cb5461100a906001600160a01b031633308563ffffffff61228716565b60d05481565b60985460ff16156117fd5760405162461bcd60e51b8152600401808060200182810382526046815260200180612af86046913960600191505060405180910390fd5b611805611fac565b6001600160a01b031661181661162c565b6001600160a01b03161461185f576040805162461bcd60e51b81526020600482018190526024820152600080516020612c21833981519152604482015290519081900360640190fd5b60cc54421161189f5760405162461bcd60e51b8152600401808060200182810382526058815260200180612aa06058913960600191505060405180910390fd5b60ce8190556040805182815290517ffb46ca5a5e06d4540d6387b930a7c978bce0db5f449ec6b3f5d07c6e1d44f2d39181900360200190a150565b600060d454600014156118f0575060d15461075b565b6107fb61192560d45461063f670de0b6b3a764000061191960cd5461191960d05461060e61143c565b9063ffffffff611e8b16565b60d1549063ffffffff611f5216565b60ca546001600160a01b031681565b60d15481565b60985460ff161561198b5760405162461bcd60e51b8152600401808060200182810382526046815260200180612af86046913960600191505060405180910390fd5b611993611fac565b6001600160a01b03166119a461162c565b6001600160a01b0316146119ed576040805162461bcd60e51b81526020600482018190526024820152600080516020612c21833981519152604482015290519081900360640190fd5b600060d881905560cf81905560cc81905560cd81905560d1556110cd6122e7565b60985460ff1615611a505760405162461bcd60e51b8152600401808060200182810382526046815260200180612af86046913960600191505060405180910390fd5b611a58611fac565b6001600160a01b0316611a6961162c565b6001600160a01b031614611ab2576040805162461bcd60e51b81526020600482018190526024820152600080516020612c21833981519152604482015290519081900360640190fd5b60cf8190556040805182815290517f2b0fa66d155c9598699cb6569577f27b95729bbf580268eed39db6bc4e8144779181900360200190a150565b60985460ff1615611b2f5760405162461bcd60e51b8152600401808060200182810382526046815260200180612af86046913960600191505060405180910390fd5b33600090815260d56020526040902054611b4890610839565b6110cd610e23565b60cc5481565b611b5e611fac565b6001600160a01b0316611b6f61162c565b6001600160a01b031614611bb8576040805162461bcd60e51b81526020600482018190526024820152600080516020612c21833981519152604482015290519081900360640190fd5b6001600160a01b038116611bfd5760405162461bcd60e51b8152600401808060200182810382526026815260200180612b866026913960400191505060405180910390fd5b6033546040516001600160a01b038084169216907f8be0079c531659141344cd1fd0a4f28419497f9722a3daafe3b4186f6b6457e090600090a3603380546001600160a01b0319166001600160a01b0392909216919091179055565b60cf5433600090815260d66020526040812054909182918291610820914291611c88919063ffffffff611f5216565b9063ffffffff611fb016565b600054610100900460ff1680611cad5750611cad612381565b80611cbb575060005460ff16155b611cf65760405162461bcd60e51b815260040180806020018281038252602e815260200180612bd2602e913960400191505060405180910390fd5b600054610100900460ff16158015611d21576000805460ff1961ff0019909116610100171660011790555b611d29612392565b611d3161243b565b611d39612534565b611d416125e0565b611d4961268b565b611d51612731565b611d5a86611b56565b60ca80546001600160a01b038087166001600160a01b03199283161790925560cb8054868416908316179055606580549288169290911691909117905560cf829055600060cc81905560cd5562ed4e0060ce558015611dbf576000805461ff00191690555b505050505050565b611dcf611fac565b6001600160a01b0316611de061162c565b6001600160a01b031614611e29576040805162461bcd60e51b81526020600482018190526024820152600080516020612c21833981519152604482015290519081900360640190fd5b60d855565b600082821115611e85576040805162461bcd60e51b815260206004820152601e60248201527f536166654d6174683a207375627472616374696f6e206f766572666c6f770000604482015290519081900360640190fd5b50900390565b600082611e9a57506000610657565b82820282848281611ea757fe5b0414611ee45760405162461bcd60e51b8152600401808060200182810382526021815260200180612c006021913960400191505060405180910390fd5b9392505050565b6000808211611f41576040805162461bcd60e51b815260206004820152601a60248201527f536166654d6174683a206469766973696f6e206279207a65726f000000000000604482015290519081900360640190fd5b818381611f4a57fe5b049392505050565b600082820183811015611ee4576040805162461bcd60e51b815260206004820152601b60248201527f536166654d6174683a206164646974696f6e206f766572666c6f770000000000604482015290519081900360640190fd5b3390565b60008083831115611fc657506000905080611fcf565b50600190508183035b9250929050565b604080516001600160a01b038416602482015260448082018490528251808303909101815260649091019091526020810180516001600160e01b031663a9059cbb60e01b1790526120289084906127d1565b505050565b61203561134c565b61207d576040805162461bcd60e51b815260206004820152601460248201527314185d5cd8589b194e881b9bdd081c185d5cd95960621b604482015290519081900360640190fd5b6098805461ff00191690557f5db9ee0a495bf2e6ff9c91a7834c1ba4fdd244a5e8aa4e537bd38aeae4b073aa6120b1611fac565b604080516001600160a01b039092168252519081900360200190a1565b60008183106120dd5781611ee4565b5090919050565b6120ec61134c565b15612131576040805162461bcd60e51b815260206004820152601060248201526f14185d5cd8589b194e881c185d5cd95960821b604482015290519081900360640190fd5b6098805461ff0019166101001790557f62e78cea01bee320cd4e420270b5ea74000d11b0c9f74754ebdbfc544b05a2586120b1611fac565b60d8548110156121c0576040805162461bcd60e51b815260206004820152601d60248201527f4d696e696d756d207374616b6520616d6f756e74207265717569726564000000604482015290519081900360640190fd5b60d4546121d3908263ffffffff611f5216565b60d4556001600160a01b038216600090815260d560205260409020546121ff908263ffffffff611f5216565b6001600160a01b038316600090815260d5602090815260408083209390935560d690522054612244576001600160a01b038216600090815260d6602052604090204290555b6040805182815290516001600160a01b038416917f9e71bc8eea02a63969f509818f2dafb9254532904319f9dbda79b67bd34a5f3d919081900360200190a25050565b604080516001600160a01b0380861660248301528416604482015260648082018490528251808303909101815260849091019091526020810180516001600160e01b03166323b872dd60e01b1790526122e19085906127d1565b50505050565b6122ef611fac565b6001600160a01b031661230061162c565b6001600160a01b031614612349576040805162461bcd60e51b81526020600482018190526024820152600080516020612c21833981519152604482015290519081900360640190fd5b6098805460ff191660011790556040517fe68101b30364d616deefc8cd307b7e27ccbd9c73f138bd478179497563d97a1190600090a1565b600061238c30612882565b15905090565b600054610100900460ff16806123ab57506123ab612381565b806123b9575060005460ff16155b6123f45760405162461bcd60e51b815260040180806020018281038252602e815260200180612bd2602e913960400191505060405180910390fd5b600054610100900460ff1615801561241f576000805460ff1961ff0019909116610100171660011790555b612427612731565b8015610b7c576000805461ff001916905550565b600054610100900460ff16806124545750612454612381565b80612462575060005460ff16155b61249d5760405162461bcd60e51b815260040180806020018281038252602e815260200180612bd2602e913960400191505060405180910390fd5b600054610100900460ff161580156124c8576000805460ff1961ff0019909116610100171660011790555b60006124d2611fac565b603380546001600160a01b0319166001600160a01b038316908117909155604051919250906000907f8be0079c531659141344cd1fd0a4f28419497f9722a3daafe3b4186f6b6457e0908290a3508015610b7c576000805461ff001916905550565b600054610100900460ff168061254d575061254d612381565b8061255b575060005460ff16155b6125965760405162461bcd60e51b815260040180806020018281038252602e815260200180612bd2602e913960400191505060405180910390fd5b600054610100900460ff161580156125c1576000805460ff1961ff0019909116610100171660011790555b6098805461ff00191690558015610b7c576000805461ff001916905550565b600054610100900460ff16806125f957506125f9612381565b80612607575060005460ff16155b6126425760405162461bcd60e51b815260040180806020018281038252602e815260200180612bd2602e913960400191505060405180910390fd5b600054610100900460ff1615801561266d576000805460ff1961ff0019909116610100171660011790555b6098805460ff191690558015610b7c576000805461ff001916905550565b600054610100900460ff16806126a457506126a4612381565b806126b2575060005460ff16155b6126ed5760405162461bcd60e51b815260040180806020018281038252602e815260200180612bd2602e913960400191505060405180910390fd5b600054610100900460ff16158015612718576000805460ff1961ff0019909116610100171660011790555b60016066558015610b7c576000805461ff001916905550565b600054610100900460ff168061274a575061274a612381565b80612758575060005460ff16155b6127935760405162461bcd60e51b815260040180806020018281038252602e815260200180612bd2602e913960400191505060405180910390fd5b600054610100900460ff16158015612427576000805460ff1961ff0019909116610100171660011790558015610b7c576000805461ff001916905550565b6060612826826040518060400160405280602081526020017f5361666545524332303a206c6f772d6c6576656c2063616c6c206661696c6564815250856001600160a01b03166128889092919063ffffffff16565b8051909150156120285780806020019051602081101561284557600080fd5b50516120285760405162461bcd60e51b815260040180806020018281038252602a815260200180612cc6602a913960400191505060405180910390fd5b3b151590565b6060612897848460008561289f565b949350505050565b6060824710156128e05760405162461bcd60e51b8152600401808060200182810382526026815260200180612bac6026913960400191505060405180910390fd5b6128e985612882565b61293a576040805162461bcd60e51b815260206004820152601d60248201527f416464726573733a2063616c6c20746f206e6f6e2d636f6e7472616374000000604482015290519081900360640190fd5b60006060866001600160a01b031685876040518082805190602001908083835b602083106129795780518252601f19909201916020918201910161295a565b6001836020036101000a03801982511681845116808217855250505050505090500191505060006040518083038185875af1925050503d80600081146129db576040519150601f19603f3d011682016040523d82523d6000602084013e6129e0565b606091505b50915091506129f08282866129fb565b979650505050505050565b60608315612a0a575081611ee4565b825115612a1a5782518084602001fd5b8160405162461bcd60e51b81526004018080602001828103825283818151815260200191508051906020019080838360005b83811015612a64578181015183820152602001612a4c565b50505050905090810190601f168015612a915780820380516001836020036101000a031916815260200191505b509250505060405180910390fdfe50726576696f7573207265776172647320706572696f64206d75737420626520636f6d706c657465206265666f7265206368616e67696e6720746865206475726174696f6e20666f7220746865206e657720706572696f645468697320616374696f6e2063616e6e6f7420626520706572666f726d6564207768696c652074686520636f6e747261637420697320696e204661696c73616665204d6f64655468697320616374696f6e2063616e206f6e6c7920626520706572666f726d6564207768696c652074686520636f6e747261637420697320696e204661696c73616665204d6f64654f776e61626c653a206e6577206f776e657220697320746865207a65726f2061646472657373416464726573733a20696e73756666696369656e742062616c616e636520666f722063616c6c496e697469616c697a61626c653a20636f6e747261637420697320616c726561647920696e697469616c697a6564536166654d6174683a206d756c7469706c69636174696f6e206f766572666c6f774f776e61626c653a2063616c6c6572206973206e6f7420746865206f776e657243616e6e6f7420776974686472617720756e74696c206d696e696d756d207374616b696e672074696d65206861732070617373656454696d657374616d70206d757374206265206166746572206c61737455706461746554696d6543616c6c6572206973206e6f742052657761726473446973747269627574696f6e20636f6e74726163745361666545524332303a204552433230206f7065726174696f6e20646964206e6f74207375636365656443616e6e6f74206765742072657761726420756e74696c206d696e696d756d207374616b696e672074696d65206861732070617373656443616e6e6f7420776974686472617720746865207374616b696e6720746f6b656ea264697066735822122016ee4c0bad39d5f5be42cd2d9dbc70bb888ec2a6b5b51291b76bdcf6c557b8f264736f6c63430006050033",
  "immutableReferences": {},
  "source": "pragma solidity ^0.6.2;\n\nimport \"./staking/StakingRewardsUpgradeable.sol\";\n\ncontract LP2StakingRewardsUpgradeable is StakingRewardsUpgradeable {\n}\n",
  "sourcePath": "H:\\8.5.1\\contracts\\LP2StakingRewardsUpgradeable.sol",
  "compiler": {
    "name": "solc",
    "version": "0.6.5+commit.f956cc89.Emscripten.clang"
  },
  "schemaVersion": "3.4.16",
  "updatedAt": "2023-09-14T02:49:02.392Z",
  "networkType": "ethereum",
  "devdoc": {
    "methods": {
      "owner()": {
        "details": "Returns the address of the current owner."
      },
      "paused()": {
        "details": "Returns true if the contract is paused, and false otherwise."
      },
      "renounceOwnership()": {
        "details": "Leaves the contract without owner. It will not be possible to call `onlyOwner` functions anymore. Can only be called by the current owner.     * NOTE: Renouncing ownership will leave the contract without an owner, thereby removing any functionality that is only available to the owner."
      },
      "transferOwnership(address)": {
        "details": "Transfers ownership of the contract to a new account (`newOwner`). Can only be called by the current owner."
      }
    }
  },
  "userdoc": {
    "methods": {}
  }
}