{
  "contractName": "MultiAccessUpgradeable",
  "abi": [
    {
      "inputs": [],
      "name": "initialize",
      "outputs": [],
      "stateMutability": "nonpayable",
      "type": "function"
    },
    {
      "inputs": [
        {
          "internalType": "address",
          "name": "to",
          "type": "address"
        }
      ],
      "name": "grantAccess",
      "outputs": [],
      "stateMutability": "nonpayable",
      "type": "function"
    },
    {
      "inputs": [
        {
          "internalType": "address",
          "name": "from",
          "type": "address"
        }
      ],
      "name": "revokeAccess",
      "outputs": [],
      "stateMutability": "nonpayable",
      "type": "function"
    }
  ],
  "bytecode": "0x608060405234801561001057600080fd5b506102d2806100206000396000f3fe608060405234801561001057600080fd5b50600436106100415760003560e01c80630ae5e739146100465780638129fc1c1461006e57806385e6853114610076575b600080fd5b61006c6004803603602081101561005c57600080fd5b50356001600160a01b031661009c565b005b61006c61011d565b61006c6004803603602081101561008c57600080fd5b50356001600160a01b03166101dc565b3360009081526001602081905260409091205460ff161515146100f6576040805162461bcd60e51b815260206004820152600d60248201526c1058d8d95cdcc819195b9a5959609a1b604482015290519081900360640190fd5b6001600160a01b03166000908152600160208190526040909120805460ff19169091179055565b600054610100900460ff16806101365750610136610257565b80610144575060005460ff16155b61017f5760405162461bcd60e51b815260040180806020018281038252602e81526020018061026f602e913960400191505060405180910390fd5b600054610100900460ff161580156101aa576000805460ff1961ff0019909116610100171660011790555b336000908152600160208190526040909120805460ff1916909117905580156101d9576000805461ff00191690555b50565b3360009081526001602081905260409091205460ff16151514610236576040805162461bcd60e51b815260206004820152600d60248201526c1058d8d95cdcc819195b9a5959609a1b604482015290519081900360640190fd5b6001600160a01b03166000908152600160205260409020805460ff19169055565b600061026230610268565b15905090565b3b15159056fe496e697469616c697a61626c653a20636f6e747261637420697320616c726561647920696e697469616c697a6564a2646970667358221220253cc8cc321575b6f296d55ae9f0e6bf2f6552e39148661533596652ad68adff64736f6c63430006050033",
  "immutableReferences": {},
  "source": "pragma solidity ^0.6.0;\n\nimport \"@openzeppelin/contracts-upgradeable/proxy/Initializable.sol\";\n\ncontract MultiAccessUpgradeable is Initializable {\n\n    // how about a master address that cannot be revoked?\n    mapping(address => bool) private access;\n\n    function initialize() public initializer {\n        access[msg.sender] = true;\n    }\n\n    function grantAccess(address to) public restricted {\n        access[to] = true;\n    }\n\n    function revokeAccess(address from) public restricted {\n        delete access[from];\n    }\n\n    modifier restricted() {\n        require(access[msg.sender] == true, \"Access denied\");\n        _;\n    }\n\n}",
  "sourcePath": "H:\\8.5.1\\contracts\\multiAccessUpgradeable.sol",
  "compiler": {
    "name": "solc",
    "version": "0.6.5+commit.f956cc89.Emscripten.clang"
  },
  "schemaVersion": "3.4.16",
  "updatedAt": "2023-09-14T02:45:28.799Z",
  "devdoc": {
    "methods": {}
  },
  "userdoc": {
    "methods": {}
  }
}