{
  "contractName": "NFTMarket",
  "abi": [
    {
      "anonymous": false,
      "inputs": [
        {
          "indexed": true,
          "internalType": "address",
          "name": "seller",
          "type": "address"
        },
        {
          "indexed": true,
          "internalType": "contract IERC721",
          "name": "nftAddress",
          "type": "address"
        },
        {
          "indexed": true,
          "internalType": "uint256",
          "name": "nftID",
          "type": "uint256"
        }
      ],
      "name": "CancelledListing",
      "type": "event"
    },
    {
      "anonymous": false,
      "inputs": [
        {
          "indexed": true,
          "internalType": "address",
          "name": "seller",
          "type": "address"
        },
        {
          "indexed": true,
          "internalType": "contract IERC721",
          "name": "nftAddress",
          "type": "address"
        },
        {
          "indexed": true,
          "internalType": "uint256",
          "name": "nftID",
          "type": "uint256"
        },
        {
          "indexed": false,
          "internalType": "uint256",
          "name": "newPrice",
          "type": "uint256"
        }
      ],
      "name": "ListingPriceChange",
      "type": "event"
    },
    {
      "anonymous": false,
      "inputs": [
        {
          "indexed": true,
          "internalType": "address",
          "name": "seller",
          "type": "address"
        },
        {
          "indexed": true,
          "internalType": "contract IERC721",
          "name": "nftAddress",
          "type": "address"
        },
        {
          "indexed": true,
          "internalType": "uint256",
          "name": "nftID",
          "type": "uint256"
        },
        {
          "indexed": false,
          "internalType": "uint256",
          "name": "price",
          "type": "uint256"
        }
      ],
      "name": "NewListing",
      "type": "event"
    },
    {
      "anonymous": false,
      "inputs": [
        {
          "indexed": true,
          "internalType": "address",
          "name": "buyer",
          "type": "address"
        },
        {
          "indexed": false,
          "internalType": "address",
          "name": "seller",
          "type": "address"
        },
        {
          "indexed": true,
          "internalType": "contract IERC721",
          "name": "nftAddress",
          "type": "address"
        },
        {
          "indexed": true,
          "internalType": "uint256",
          "name": "nftID",
          "type": "uint256"
        },
        {
          "indexed": false,
          "internalType": "uint256",
          "name": "price",
          "type": "uint256"
        }
      ],
      "name": "PurchasedListing",
      "type": "event"
    },
    {
      "anonymous": false,
      "inputs": [
        {
          "indexed": true,
          "internalType": "bytes32",
          "name": "role",
          "type": "bytes32"
        },
        {
          "indexed": true,
          "internalType": "bytes32",
          "name": "previousAdminRole",
          "type": "bytes32"
        },
        {
          "indexed": true,
          "internalType": "bytes32",
          "name": "newAdminRole",
          "type": "bytes32"
        }
      ],
      "name": "RoleAdminChanged",
      "type": "event"
    },
    {
      "anonymous": false,
      "inputs": [
        {
          "indexed": true,
          "internalType": "bytes32",
          "name": "role",
          "type": "bytes32"
        },
        {
          "indexed": true,
          "internalType": "address",
          "name": "account",
          "type": "address"
        },
        {
          "indexed": true,
          "internalType": "address",
          "name": "sender",
          "type": "address"
        }
      ],
      "name": "RoleGranted",
      "type": "event"
    },
    {
      "anonymous": false,
      "inputs": [
        {
          "indexed": true,
          "internalType": "bytes32",
          "name": "role",
          "type": "bytes32"
        },
        {
          "indexed": true,
          "internalType": "address",
          "name": "account",
          "type": "address"
        },
        {
          "indexed": true,
          "internalType": "address",
          "name": "sender",
          "type": "address"
        }
      ],
      "name": "RoleRevoked",
      "type": "event"
    },
    {
      "inputs": [],
      "name": "DEFAULT_ADMIN_ROLE",
      "outputs": [
        {
          "internalType": "bytes32",
          "name": "",
          "type": "bytes32"
        }
      ],
      "stateMutability": "view",
      "type": "function",
      "constant": true
    },
    {
      "inputs": [],
      "name": "GAME_ADMIN",
      "outputs": [
        {
          "internalType": "bytes32",
          "name": "",
          "type": "bytes32"
        }
      ],
      "stateMutability": "view",
      "type": "function",
      "constant": true
    },
    {
      "inputs": [],
      "name": "defaultTax",
      "outputs": [
        {
          "internalType": "int128",
          "name": "",
          "type": "int128"
        }
      ],
      "stateMutability": "view",
      "type": "function",
      "constant": true
    },
    {
      "inputs": [
        {
          "internalType": "bytes32",
          "name": "role",
          "type": "bytes32"
        }
      ],
      "name": "getRoleAdmin",
      "outputs": [
        {
          "internalType": "bytes32",
          "name": "",
          "type": "bytes32"
        }
      ],
      "stateMutability": "view",
      "type": "function",
      "constant": true
    },
    {
      "inputs": [
        {
          "internalType": "bytes32",
          "name": "role",
          "type": "bytes32"
        },
        {
          "internalType": "uint256",
          "name": "index",
          "type": "uint256"
        }
      ],
      "name": "getRoleMember",
      "outputs": [
        {
          "internalType": "address",
          "name": "",
          "type": "address"
        }
      ],
      "stateMutability": "view",
      "type": "function",
      "constant": true
    },
    {
      "inputs": [
        {
          "internalType": "bytes32",
          "name": "role",
          "type": "bytes32"
        }
      ],
      "name": "getRoleMemberCount",
      "outputs": [
        {
          "internalType": "uint256",
          "name": "",
          "type": "uint256"
        }
      ],
      "stateMutability": "view",
      "type": "function",
      "constant": true
    },
    {
      "inputs": [
        {
          "internalType": "bytes32",
          "name": "role",
          "type": "bytes32"
        },
        {
          "internalType": "address",
          "name": "account",
          "type": "address"
        }
      ],
      "name": "grantRole",
      "outputs": [],
      "stateMutability": "nonpayable",
      "type": "function"
    },
    {
      "inputs": [
        {
          "internalType": "bytes32",
          "name": "role",
          "type": "bytes32"
        },
        {
          "internalType": "address",
          "name": "account",
          "type": "address"
        }
      ],
      "name": "hasRole",
      "outputs": [
        {
          "internalType": "bool",
          "name": "",
          "type": "bool"
        }
      ],
      "stateMutability": "view",
      "type": "function",
      "constant": true
    },
    {
      "inputs": [
        {
          "internalType": "address",
          "name": "",
          "type": "address"
        }
      ],
      "name": "isTokenBanned",
      "outputs": [
        {
          "internalType": "bool",
          "name": "",
          "type": "bool"
        }
      ],
      "stateMutability": "view",
      "type": "function",
      "constant": true
    },
    {
      "inputs": [
        {
          "internalType": "address",
          "name": "",
          "type": "address"
        }
      ],
      "name": "isUserBanned",
      "outputs": [
        {
          "internalType": "bool",
          "name": "",
          "type": "bool"
        }
      ],
      "stateMutability": "view",
      "type": "function",
      "constant": true
    },
    {
      "inputs": [
        {
          "internalType": "bytes32",
          "name": "role",
          "type": "bytes32"
        },
        {
          "internalType": "address",
          "name": "account",
          "type": "address"
        }
      ],
      "name": "renounceRole",
      "outputs": [],
      "stateMutability": "nonpayable",
      "type": "function"
    },
    {
      "inputs": [
        {
          "internalType": "bytes32",
          "name": "role",
          "type": "bytes32"
        },
        {
          "internalType": "address",
          "name": "account",
          "type": "address"
        }
      ],
      "name": "revokeRole",
      "outputs": [],
      "stateMutability": "nonpayable",
      "type": "function"
    },
    {
      "inputs": [],
      "name": "dkcToken",
      "outputs": [
        {
          "internalType": "contract IERC20",
          "name": "",
          "type": "address"
        }
      ],
      "stateMutability": "view",
      "type": "function",
      "constant": true
    },
    {
      "inputs": [
        {
          "internalType": "address",
          "name": "",
          "type": "address"
        }
      ],
      "name": "tax",
      "outputs": [
        {
          "internalType": "int128",
          "name": "",
          "type": "int128"
        }
      ],
      "stateMutability": "view",
      "type": "function",
      "constant": true
    },
    {
      "inputs": [],
      "name": "taxRecipient",
      "outputs": [
        {
          "internalType": "address",
          "name": "",
          "type": "address"
        }
      ],
      "stateMutability": "view",
      "type": "function",
      "constant": true
    },
    {
      "inputs": [
        {
          "internalType": "contract IERC20",
          "name": "_dkcToken",
          "type": "address"
        },
        {
          "internalType": "address",
          "name": "_taxRecipient",
          "type": "address"
        }
      ],
      "name": "initialize",
      "outputs": [],
      "stateMutability": "nonpayable",
      "type": "function"
    },
    {
      "inputs": [
        {
          "internalType": "contract Characters",
          "name": "_charactersContract",
          "type": "address"
        },
        {
          "internalType": "contract Weapons",
          "name": "_weaponsContract",
          "type": "address"
        }
      ],
      "name": "migrateTo_a98a9ac",
      "outputs": [],
      "stateMutability": "nonpayable",
      "type": "function"
    },
    {
      "inputs": [
        {
          "internalType": "contract IERC721",
          "name": "_tokenAddress",
          "type": "address"
        }
      ],
      "name": "isTokenAllowed",
      "outputs": [
        {
          "internalType": "bool",
          "name": "",
          "type": "bool"
        }
      ],
      "stateMutability": "view",
      "type": "function",
      "constant": true
    },
    {
      "inputs": [],
      "name": "getAllowedTokenTypes",
      "outputs": [
        {
          "internalType": "contract IERC721[]",
          "name": "",
          "type": "address[]"
        }
      ],
      "stateMutability": "view",
      "type": "function",
      "constant": true
    },
    {
      "inputs": [
        {
          "internalType": "contract IERC721",
          "name": "_tokenAddress",
          "type": "address"
        },
        {
          "internalType": "uint256",
          "name": "_tokenId",
          "type": "uint256"
        }
      ],
      "name": "getSellerOfNftID",
      "outputs": [
        {
          "internalType": "address",
          "name": "",
          "type": "address"
        }
      ],
      "stateMutability": "view",
      "type": "function",
      "constant": true
    },
    {
      "inputs": [],
      "name": "defaultTaxAsRoundedPercentRoughEstimate",
      "outputs": [
        {
          "internalType": "uint256",
          "name": "",
          "type": "uint256"
        }
      ],
      "stateMutability": "view",
      "type": "function",
      "constant": true
    },
    {
      "inputs": [],
      "name": "getListedTokenTypes",
      "outputs": [
        {
          "internalType": "contract IERC721[]",
          "name": "",
          "type": "address[]"
        }
      ],
      "stateMutability": "view",
      "type": "function",
      "constant": true
    },
    {
      "inputs": [
        {
          "internalType": "contract IERC721",
          "name": "_tokenAddress",
          "type": "address"
        }
      ],
      "name": "getListingIDs",
      "outputs": [
        {
          "internalType": "uint256[]",
          "name": "",
          "type": "uint256[]"
        }
      ],
      "stateMutability": "view",
      "type": "function",
      "constant": true
    },
    {
      "inputs": [
        {
          "internalType": "contract IERC721",
          "name": "_tokenAddress",
          "type": "address"
        },
        {
          "internalType": "uint8",
          "name": "_limit",
          "type": "uint8"
        },
        {
          "internalType": "uint256",
          "name": "_pageNumber",
          "type": "uint256"
        },
        {
          "internalType": "uint8",
          "name": "_trait",
          "type": "uint8"
        },
        {
          "internalType": "uint8",
          "name": "_stars",
          "type": "uint8"
        }
      ],
      "name": "getWeaponListingIDsPage",
      "outputs": [
        {
          "internalType": "uint256[]",
          "name": "",
          "type": "uint256[]"
        }
      ],
      "stateMutability": "view",
      "type": "function",
      "constant": true
    },
    {
      "inputs": [
        {
          "internalType": "contract IERC721",
          "name": "_tokenAddress",
          "type": "address"
        },
        {
          "internalType": "uint8",
          "name": "_limit",
          "type": "uint8"
        },
        {
          "internalType": "uint256",
          "name": "_pageNumber",
          "type": "uint256"
        },
        {
          "internalType": "uint8",
          "name": "_trait",
          "type": "uint8"
        },
        {
          "internalType": "uint8",
          "name": "_minLevel",
          "type": "uint8"
        },
        {
          "internalType": "uint8",
          "name": "_maxLevel",
          "type": "uint8"
        }
      ],
      "name": "getCharacterListingIDsPage",
      "outputs": [
        {
          "internalType": "uint256[]",
          "name": "",
          "type": "uint256[]"
        }
      ],
      "stateMutability": "view",
      "type": "function",
      "constant": true
    },
    {
      "inputs": [
        {
          "internalType": "contract IERC721",
          "name": "_tokenAddress",
          "type": "address"
        },
        {
          "internalType": "address",
          "name": "_seller",
          "type": "address"
        }
      ],
      "name": "getNumberOfListingsBySeller",
      "outputs": [
        {
          "internalType": "uint256",
          "name": "",
          "type": "uint256"
        }
      ],
      "stateMutability": "view",
      "type": "function",
      "constant": true
    },
    {
      "inputs": [
        {
          "internalType": "contract IERC721",
          "name": "_tokenAddress",
          "type": "address"
        },
        {
          "internalType": "address",
          "name": "_seller",
          "type": "address"
        }
      ],
      "name": "getListingIDsBySeller",
      "outputs": [
        {
          "internalType": "uint256[]",
          "name": "tokens",
          "type": "uint256[]"
        }
      ],
      "stateMutability": "view",
      "type": "function",
      "constant": true
    },
    {
      "inputs": [
        {
          "internalType": "contract IERC721",
          "name": "_tokenAddress",
          "type": "address"
        }
      ],
      "name": "getNumberOfListingsForToken",
      "outputs": [
        {
          "internalType": "uint256",
          "name": "",
          "type": "uint256"
        }
      ],
      "stateMutability": "view",
      "type": "function",
      "constant": true
    },
    {
      "inputs": [
        {
          "internalType": "contract IERC721",
          "name": "_tokenAddress",
          "type": "address"
        },
        {
          "internalType": "uint8",
          "name": "_trait",
          "type": "uint8"
        },
        {
          "internalType": "uint8",
          "name": "_minLevel",
          "type": "uint8"
        },
        {
          "internalType": "uint8",
          "name": "_maxLevel",
          "type": "uint8"
        }
      ],
      "name": "getNumberOfCharacterListings",
      "outputs": [
        {
          "internalType": "uint256",
          "name": "",
          "type": "uint256"
        }
      ],
      "stateMutability": "view",
      "type": "function",
      "constant": true
    },
    {
      "inputs": [
        {
          "internalType": "contract IERC721",
          "name": "_tokenAddress",
          "type": "address"
        },
        {
          "internalType": "uint8",
          "name": "_trait",
          "type": "uint8"
        },
        {
          "internalType": "uint8",
          "name": "_stars",
          "type": "uint8"
        }
      ],
      "name": "getNumberOfWeaponListings",
      "outputs": [
        {
          "internalType": "uint256",
          "name": "",
          "type": "uint256"
        }
      ],
      "stateMutability": "view",
      "type": "function",
      "constant": true
    },
    {
      "inputs": [
        {
          "internalType": "contract IERC721",
          "name": "_tokenAddress",
          "type": "address"
        },
        {
          "internalType": "uint256",
          "name": "_id",
          "type": "uint256"
        }
      ],
      "name": "getSellerPrice",
      "outputs": [
        {
          "internalType": "uint256",
          "name": "",
          "type": "uint256"
        }
      ],
      "stateMutability": "view",
      "type": "function",
      "constant": true
    },
    {
      "inputs": [
        {
          "internalType": "contract IERC721",
          "name": "_tokenAddress",
          "type": "address"
        },
        {
          "internalType": "uint256",
          "name": "_id",
          "type": "uint256"
        }
      ],
      "name": "getFinalPrice",
      "outputs": [
        {
          "internalType": "uint256",
          "name": "",
          "type": "uint256"
        }
      ],
      "stateMutability": "view",
      "type": "function",
      "constant": true
    },
    {
      "inputs": [
        {
          "internalType": "contract IERC721",
          "name": "_tokenAddress",
          "type": "address"
        },
        {
          "internalType": "uint256",
          "name": "_id",
          "type": "uint256"
        }
      ],
      "name": "getTaxOnListing",
      "outputs": [
        {
          "internalType": "uint256",
          "name": "",
          "type": "uint256"
        }
      ],
      "stateMutability": "view",
      "type": "function",
      "constant": true
    },
    {
      "inputs": [
        {
          "internalType": "contract IERC721",
          "name": "_tokenAddress",
          "type": "address"
        },
        {
          "internalType": "uint256",
          "name": "start",
          "type": "uint256"
        },
        {
          "internalType": "uint256",
          "name": "length",
          "type": "uint256"
        }
      ],
      "name": "getListingSlice",
      "outputs": [
        {
          "internalType": "uint256",
          "name": "returnedCount",
          "type": "uint256"
        },
        {
          "internalType": "uint256[]",
          "name": "ids",
          "type": "uint256[]"
        },
        {
          "internalType": "address[]",
          "name": "sellers",
          "type": "address[]"
        },
        {
          "internalType": "uint256[]",
          "name": "prices",
          "type": "uint256[]"
        }
      ],
      "stateMutability": "view",
      "type": "function",
      "constant": true
    },
    {
      "inputs": [
        {
          "internalType": "contract IERC721",
          "name": "_tokenAddress",
          "type": "address"
        },
        {
          "internalType": "uint256",
          "name": "_id",
          "type": "uint256"
        },
        {
          "internalType": "uint256",
          "name": "_price",
          "type": "uint256"
        }
      ],
      "name": "addListing",
      "outputs": [],
      "stateMutability": "nonpayable",
      "type": "function"
    },
    {
      "inputs": [
        {
          "internalType": "contract IERC721",
          "name": "_tokenAddress",
          "type": "address"
        },
        {
          "internalType": "uint256",
          "name": "_id",
          "type": "uint256"
        },
        {
          "internalType": "uint256",
          "name": "_newPrice",
          "type": "uint256"
        }
      ],
      "name": "changeListingPrice",
      "outputs": [],
      "stateMutability": "nonpayable",
      "type": "function"
    },
    {
      "inputs": [
        {
          "internalType": "contract IERC721",
          "name": "_tokenAddress",
          "type": "address"
        },
        {
          "internalType": "uint256",
          "name": "_id",
          "type": "uint256"
        }
      ],
      "name": "cancelListing",
      "outputs": [],
      "stateMutability": "nonpayable",
      "type": "function"
    },
    {
      "inputs": [
        {
          "internalType": "contract IERC721",
          "name": "_tokenAddress",
          "type": "address"
        },
        {
          "internalType": "uint256",
          "name": "_id",
          "type": "uint256"
        },
        {
          "internalType": "uint256",
          "name": "_maxPrice",
          "type": "uint256"
        }
      ],
      "name": "purchaseListing",
      "outputs": [],
      "stateMutability": "nonpayable",
      "type": "function"
    },
    {
      "inputs": [
        {
          "internalType": "address",
          "name": "_taxRecipient",
          "type": "address"
        }
      ],
      "name": "setTaxRecipient",
      "outputs": [],
      "stateMutability": "nonpayable",
      "type": "function"
    },
    {
      "inputs": [
        {
          "internalType": "int128",
          "name": "_defaultTax",
          "type": "int128"
        }
      ],
      "name": "setDefaultTax",
      "outputs": [],
      "stateMutability": "nonpayable",
      "type": "function"
    },
    {
      "inputs": [
        {
          "internalType": "uint256",
          "name": "_numerator",
          "type": "uint256"
        },
        {
          "internalType": "uint256",
          "name": "_denominator",
          "type": "uint256"
        }
      ],
      "name": "setDefaultTaxAsRational",
      "outputs": [],
      "stateMutability": "nonpayable",
      "type": "function"
    },
    {
      "inputs": [
        {
          "internalType": "uint256",
          "name": "_percent",
          "type": "uint256"
        }
      ],
      "name": "setDefaultTaxAsPercent",
      "outputs": [],
      "stateMutability": "nonpayable",
      "type": "function"
    },
    {
      "inputs": [
        {
          "internalType": "contract IERC721",
          "name": "_tokenAddress",
          "type": "address"
        },
        {
          "internalType": "int128",
          "name": "_newTax",
          "type": "int128"
        }
      ],
      "name": "setTaxOnTokenType",
      "outputs": [],
      "stateMutability": "nonpayable",
      "type": "function"
    },
    {
      "inputs": [
        {
          "internalType": "contract IERC721",
          "name": "_tokenAddress",
          "type": "address"
        },
        {
          "internalType": "uint256",
          "name": "_numerator",
          "type": "uint256"
        },
        {
          "internalType": "uint256",
          "name": "_denominator",
          "type": "uint256"
        }
      ],
      "name": "setTaxOnTokenTypeAsRational",
      "outputs": [],
      "stateMutability": "nonpayable",
      "type": "function"
    },
    {
      "inputs": [
        {
          "internalType": "contract IERC721",
          "name": "_tokenAddress",
          "type": "address"
        },
        {
          "internalType": "uint256",
          "name": "_percent",
          "type": "uint256"
        }
      ],
      "name": "setTaxOnTokenTypeAsPercent",
      "outputs": [],
      "stateMutability": "nonpayable",
      "type": "function"
    },
    {
      "inputs": [
        {
          "internalType": "address",
          "name": "user",
          "type": "address"
        },
        {
          "internalType": "bool",
          "name": "to",
          "type": "bool"
        }
      ],
      "name": "setUserBan",
      "outputs": [],
      "stateMutability": "nonpayable",
      "type": "function"
    },
    {
      "inputs": [
        {
          "internalType": "contract IERC721",
          "name": "_tokenAddress",
          "type": "address"
        }
      ],
      "name": "allowToken",
      "outputs": [],
      "stateMutability": "nonpayable",
      "type": "function"
    },
    {
      "inputs": [
        {
          "internalType": "contract IERC721",
          "name": "_tokenAddress",
          "type": "address"
        }
      ],
      "name": "disallowToken",
      "outputs": [],
      "stateMutability": "nonpayable",
      "type": "function"
    },
    {
      "inputs": [
        {
          "internalType": "uint256",
          "name": "amount",
          "type": "uint256"
        }
      ],
      "name": "recoverDkc",
      "outputs": [],
      "stateMutability": "nonpayable",
      "type": "function"
    },
    {
      "inputs": [
        {
          "internalType": "address",
          "name": "",
          "type": "address"
        },
        {
          "internalType": "address",
          "name": "",
          "type": "address"
        },
        {
          "internalType": "uint256",
          "name": "_id",
          "type": "uint256"
        },
        {
          "internalType": "bytes",
          "name": "",
          "type": "bytes"
        }
      ],
      "name": "onERC721Received",
      "outputs": [
        {
          "internalType": "bytes4",
          "name": "",
          "type": "bytes4"
        }
      ],
      "stateMutability": "nonpayable",
      "type": "function"
    }
  ],
  "bytecode": "0x608060405234801561001057600080fd5b50613ee9806100206000396000f3fe608060405234801561001057600080fd5b50600436106102d55760003560e01c806386c51fa911610182578063ca15c873116100e9578063d739d8bc116100a2578063e79767af1161007c578063e79767af14610bac578063ed9999ca14610bd2578063f6d36ccb14610c04578063f9eaee0d14610c36576102d5565b8063d739d8bc14610b4a578063d9db220d14610b78578063e4ca10dc14610ba4576102d5565b8063ca15c87314610a4d578063cb8da19314610a6a578063cc8efb1414610aaf578063d1ebdfd314610ad5578063d547741f14610add578063d679756214610b09576102d5565b8063a6f957261161013b578063a6f9572614610952578063b2ddee0614610984578063b53472ef146109b0578063bb782e73146109d6578063c573a97e146109fc578063c7e4ff4214610a1f576102d5565b806386c51fa9146108635780639010d07c1461088f57806391d14854146108b25780639ed9b4fd146108f2578063a217fddf14610918578063a5bc363214610920576102d5565b806339378fb31161024157806366a417fe116101fa57806374c7b328116101d457806374c7b328146107ba5780637899d80f146107e957806378e3079e1461080f5780637ff57c5714610835576102d5565b806366a417fe146107735780636891de07146107aa578063737ea06e146107b2576102d5565b806339378fb3146106835780633b75a46a146106d2578063485cc955146106f2578063546b45ac146107205780635504d3d21461074e57806364d6786814610756576102d5565b8063248a9ca311610293578063248a9ca31461057457806327314473146105915780632df8c04a146105d95780632f2ff15d1461060557806335e0406f1461063157806336568abe14610657576102d5565b80621e9187146102da5780630bb99c5714610318578063150b7a02146103395780631a10c902146103e65780631ac0bab01461043e5780631eb788f51461045d575b600080fd5b610306600480360360408110156102f057600080fd5b506001600160a01b038135169060200135610c5c565b60408051918252519081900360200190f35b610320610c8a565b60408051600f92830b90920b8252519081900360200190f35b6103c96004803603608081101561034f57600080fd5b6001600160a01b0382358116926020810135909116916040820135919081019060808101606082013564010000000081111561038a57600080fd5b82018360208201111561039c57600080fd5b803590602001918460018302840111640100000000831117156103be57600080fd5b509092509050610c93565b604080516001600160e01b03199092168252519081900360200190f35b6103ee610d30565b60408051602080825283518183015283519192839290830191858101910280838360005b8381101561042a578181015183820152602001610412565b505050509050019250505060405180910390f35b61045b6004803603602081101561045457600080fd5b5035610dd0565b005b61048f6004803603606081101561047357600080fd5b506001600160a01b038135169060208101359060400135610e6e565b60405180858152602001806020018060200180602001848103845287818151815260200191508051906020019060200280838360005b838110156104dd5781810151838201526020016104c5565b50505050905001848103835286818151815260200191508051906020019060200280838360005b8381101561051c578181015183820152602001610504565b50505050905001848103825285818151815260200191508051906020019060200280838360005b8381101561055b578181015183820152602001610543565b5050505090500197505050505050505060405180910390f35b6103066004803603602081101561058a57600080fd5b5035611057565b6105bd600480360360408110156105a757600080fd5b506001600160a01b03813516906020013561106c565b604080516001600160a01b039092168252519081900360200190f35b610306600480360360408110156105ef57600080fd5b506001600160a01b0381351690602001356110e8565b61045b6004803603604081101561061b57600080fd5b50803590602001356001600160a01b031661111e565b6103ee6004803603602081101561064757600080fd5b50356001600160a01b031661118a565b61045b6004803603604081101561066d57600080fd5b50803590602001356001600160a01b0316611235565b6103ee600480360360c081101561069957600080fd5b506001600160a01b038135169060ff60208201358116916040810135916060820135811691608081013582169160a09091013516611296565b61045b600480360360208110156106e857600080fd5b5035600f0b611520565b61045b6004803603604081101561070857600080fd5b506001600160a01b03813581169160200135166115b2565b6103066004803603604081101561073657600080fd5b506001600160a01b03813581169160200135166116ca565b61030661175b565b61045b6004803603602081101561076c57600080fd5b503561177d565b6103066004803603606081101561078957600080fd5b506001600160a01b038135169060ff60208201358116916040013516611808565b610306611991565b6105bd6119b4565b61045b600480360360408110156107d057600080fd5b506001600160a01b038135169060200135600f0b6119c3565b610320600480360360208110156107ff57600080fd5b50356001600160a01b0316611a53565b61045b6004803603602081101561082557600080fd5b50356001600160a01b0316611a68565b61045b6004803603604081101561084b57600080fd5b506001600160a01b0381358116916020013516611af5565b61045b6004803603604081101561087957600080fd5b506001600160a01b038135169060200135611b6b565b6105bd600480360360408110156108a557600080fd5b5080359060200135611c05565b6108de600480360360408110156108c857600080fd5b50803590602001356001600160a01b0316611c23565b604080519115158252519081900360200190f35b6108de6004803603602081101561090857600080fd5b50356001600160a01b0316611c41565b610306611c56565b61045b6004803603606081101561093657600080fd5b506001600160a01b038135169060208101359060400135611c5b565b61045b6004803603606081101561096857600080fd5b506001600160a01b038135169060208101359060400135611cf5565b61045b6004803603604081101561099a57600080fd5b506001600160a01b038135169060200135611ff8565b61045b600480360360208110156109c657600080fd5b50356001600160a01b031661227a565b6108de600480360360208110156109ec57600080fd5b50356001600160a01b0316612311565b61045b60048036036040811015610a1257600080fd5b5080359060200135612326565b61045b60048036036040811015610a3557600080fd5b506001600160a01b03813516906020013515156123c4565b61030660048036036020811015610a6357600080fd5b503561245a565b6103ee600480360360a0811015610a8057600080fd5b506001600160a01b038135169060ff602082013581169160408101359160608201358116916080013516612471565b61030660048036036020811015610ac557600080fd5b50356001600160a01b03166126d9565b6105bd6126fa565b61045b60048036036040811015610af357600080fd5b50803590602001356001600160a01b0316612709565b61030660048036036080811015610b1f57600080fd5b506001600160a01b038135169060ff6020820135811691604081013582169160609091013516612762565b6103ee60048036036040811015610b6057600080fd5b506001600160a01b038135811691602001351661290c565b61030660048036036040811015610b8e57600080fd5b506001600160a01b038135169060200135612a03565b6103ee612a28565b61045b60048036036020811015610bc257600080fd5b50356001600160a01b0316612ac1565b61045b60048036036060811015610be857600080fd5b506001600160a01b038135169060208101359060400135612b3d565b61045b60048036036060811015610c1a57600080fd5b506001600160a01b038135169060208101359060400135612cf3565b6108de60048036036020811015610c4c57600080fd5b50356001600160a01b0316612f67565b6001600160a01b03821660009081526067602090815260408083208484529091529020600101545b92915050565b606f54600f0b81565b600033610ca760698263ffffffff612f7a16565b8015610cd657506001600160a01b0381166000908152606860205260409020610cd6908663ffffffff612f8f16565b610d1d576040805162461bcd60e51b8152602060048201526013602482015272151bdad95b881251081b9bdd081b1a5cdd1959606a1b604482015290519081900360640190fd5b50630a85bd0160e11b9695505050505050565b6060607081610d3e82612f9b565b67ffffffffffffffff81118015610d5457600080fd5b50604051908082528060200260200182016040528015610d7e578160200160208202803683370190505b50905060005b8151811015610dc957610d9d838263ffffffff612fa616565b828281518110610da957fe5b6001600160a01b0390921660209283029190910190910152600101610d84565b5091505090565b604080516923a0a6a2afa0a226a4a760b11b8152905190819003600a019020610df99033611c23565b610e3b576040805162461bcd60e51b815260206004820152600e60248201526d2737ba1033b0b6b29030b236b4b760911b604482015290519081900360640190fd5b610e46816064612fb2565b606f8054600f9290920b6001600160801b03166001600160801b031990921691909117905550565b80606080808367ffffffffffffffff81118015610e8a57600080fd5b50604051908082528060200260200182016040528015610eb4578160200160208202803683370190505b5092508467ffffffffffffffff81118015610ece57600080fd5b50604051908082528060200260200182016040528015610ef8578160200160208202803683370190505b5091508467ffffffffffffffff81118015610f1257600080fd5b50604051908082528060200260200182016040528015610f3c578160200160208202803683370190505b506001600160a01b038816600090815260686020526040812091925090875b87890181101561104a57610f6e82612f9b565b8110610f7f575090945061104e9050565b6000610f91838363ffffffff612fa616565b9050610f9b613d47565b506001600160a01b03808c1660009081526067602090815260408083208584528252918290208251808401909352805490931682526001909201549181019190915287518290899087908110610fed57fe5b602002602001018181525050806000015187868151811061100a57fe5b6001600160a01b03909216602092830291909101820152810151865160018701968891811061103557fe5b60209081029190910101525050600101610f5b565b5050505b93509350935093565b60009081526033602052604090206002015490565b600061107f60698463ffffffff612f7a16565b61108b57506000610c84565b6001600160a01b03831660009081526068602052604090206110b3908363ffffffff612f8f16565b6110bf57506000610c84565b506001600160a01b03918216600090815260676020908152604080832093835292905220541690565b6001600160a01b0382166000908152606d602052604081205461111790600f0b6111128585610c5c565b612ff2565b9392505050565b6000828152603360205260409020600201546111419061113c61305a565b611c23565b61117c5760405162461bcd60e51b815260040180806020018281038252602f815260200180613d81602f913960400191505060405180910390fd5b611186828261305e565b5050565b6001600160a01b0381166000908152606860205260409020606090816111af82612f9b565b67ffffffffffffffff811180156111c557600080fd5b506040519080825280602002602001820160405280156111ef578160200160208202803683370190505b50905060005b815181101561122d5761120e838263ffffffff612fa616565b82828151811061121a57fe5b60209081029190910101526001016111f5565b509392505050565b61123d61305a565b6001600160a01b0316816001600160a01b03161461128c5760405162461bcd60e51b815260040180806020018281038252602f815260200180613e85602f913960400191505060405180910390fd5b61118682826130cd565b6001600160a01b03861660009081526068602052604081206060916112bd89878787612762565b905060ff881660018801026000818310156112ec576112e78360ff8c168b0263ffffffff61313c16565b6112f1565b8960ff165b905060608167ffffffffffffffff8111801561130c57600080fd5b50604051908082528060200260200182016040528015611336578160200160208202803683370190505b509050600080805b61134788612f9b565b8110801561135457508583105b1561150d576073546000906001600160a01b031663acb586df61137d8b8563ffffffff612fa616565b6040518263ffffffff1660e01b81526004018082815260200191505060206040518083038186803b1580156113b157600080fd5b505afa1580156113c5573d6000803e3d6000fd5b505050506040513d60208110156113db57600080fd5b50516073549091506000906001600160a01b03166386481d406114048c8663ffffffff612fa616565b6040518263ffffffff1660e01b81526004018082815260200191505060206040518083038186803b15801561143857600080fd5b505afa15801561144c573d6000803e3d6000fd5b505050506040513d602081101561146257600080fd5b5051905060ff808f16148061147c57508d60ff168260ff16145b80156114ba57508c60ff1660ff148061149857508b60ff1660ff145b806114ba57508c60ff168160ff16101580156114ba57508b60ff168160ff1611155b15611503578f60ff16880385106114fc576114db8a8463ffffffff612fa616565b868560ff16815181106114ea57fe5b60209081029190910101526001909301925b6001909401935b505060010161133e565b50919d9c50505050505050505050505050565b604080516923a0a6a2afa0a226a4a760b11b8152905190819003600a0190206115499033611c23565b61158b576040805162461bcd60e51b815260206004820152600e60248201526d2737ba1033b0b6b29030b236b4b760911b604482015290519081900360640190fd5b606f8054600f9290920b6001600160801b03166001600160801b0319909216919091179055565b600054610100900460ff16806115cb57506115cb613199565b806115d9575060005460ff16155b6116145760405162461bcd60e51b815260040180806020018281038252602e815260200180613e06602e913960400191505060405180910390fd5b600054610100900460ff1615801561163f576000805460ff1961ff0019909116610100171660011790555b6116476131aa565b61165260003361117c565b606580546001600160a01b038086166001600160a01b031992831617909255606680549285169290911691909117905561168e6001600a612fb2565b606f8054600f9290920b6001600160801b03166001600160801b031990921691909117905580156116c5576000805461ff00191690555b505050565b6001600160a01b038216600090815260686020526040812081805b6116ee83612f9b565b811015611752576001600160a01b0386811660009081526067602052604081209187169190611723868563ffffffff612fa616565b81526020810191909152604001600020546001600160a01b0316141561174a576001909101905b6001016116e5565b50949350505050565b604080516923a0a6a2afa0a226a4a760b11b8152905190819003600a01902081565b604080516923a0a6a2afa0a226a4a760b11b8152905190819003600a0190206117a69033611c23565b6117e8576040805162461bcd60e51b815260206004820152600e60248201526d2737ba1033b0b6b29030b236b4b760911b604482015290519081900360640190fd5b606554611805906001600160a01b0316338363ffffffff61325b16565b50565b6001600160a01b0383166000908152606860205260408120818080805b61182e85612f9b565b811015611984576072546001600160a01b031663acb586df611856878463ffffffff612fa616565b6040518263ffffffff1660e01b81526004018082815260200191505060206040518083038186803b15801561188a57600080fd5b505afa15801561189e573d6000803e3d6000fd5b505050506040513d60208110156118b457600080fd5b50516072549093506001600160a01b031663adf04f206118da878463ffffffff612fa616565b6040518263ffffffff1660e01b81526004018082815260200191505060206040518083038186803b15801561190e57600080fd5b505afa158015611922573d6000803e3d6000fd5b505050506040513d602081101561193857600080fd5b5051915060ff808916148061195257508760ff168360ff16145b801561197057508660ff1660ff148061197057508660ff168260ff16145b1561197c576001909301925b600101611825565b5091979650505050505050565b606f546000906119af90600f90810b900b606463ffffffff612ff216565b905090565b6066546001600160a01b031681565b604080516923a0a6a2afa0a226a4a760b11b8152905190819003600a0190206119ec9033611c23565b611a2e576040805162461bcd60e51b815260206004820152600e60248201526d2737ba1033b0b6b29030b236b4b760911b604482015290519081900360640190fd5b81611a40816380ac58cd60e01b6132ad565b611a4957600080fd5b6116c583836132c9565b606d60205260009081526040902054600f0b81565b604080516923a0a6a2afa0a226a4a760b11b8152905190819003600a019020611a919033611c23565b611ad3576040805162461bcd60e51b815260206004820152600e60248201526d2737ba1033b0b6b29030b236b4b760911b604482015290519081900360640190fd5b606680546001600160a01b0319166001600160a01b0392909216919091179055565b611b00600033611c23565b611b3d576040805162461bcd60e51b81526020600482015260096024820152682737ba1030b236b4b760b91b604482015290519081900360640190fd5b607380546001600160a01b039384166001600160a01b03199182161790915560728054929093169116179055565b604080516923a0a6a2afa0a226a4a760b11b8152905190819003600a019020611b949033611c23565b611bd6576040805162461bcd60e51b815260206004820152600e60248201526d2737ba1033b0b6b29030b236b4b760911b604482015290519081900360640190fd5b81611be8816380ac58cd60e01b6132ad565b611bf157600080fd5b6116c583611c00846064612fb2565b6132c9565b6000828152603360205260408120611117908363ffffffff612fa616565b6000828152603360205260408120611117908363ffffffff612f7a16565b606c6020526000908152604090205460ff1681565b600081565b604080516923a0a6a2afa0a226a4a760b11b8152905190819003600a019020611c849033611c23565b611cc6576040805162461bcd60e51b815260206004820152600e60248201526d2737ba1033b0b6b29030b236b4b760911b604482015290519081900360640190fd5b82611cd8816380ac58cd60e01b6132ad565b611ce157600080fd5b611cef84611c008585612fb2565b50505050565b336000908152606c602052604090205460ff1615611d4d576040805162461bcd60e51b815260206004820152601060248201526f466f7262696464656e2061636365737360801b604482015290519081900360640190fd5b8282611d6060698363ffffffff612f7a16565b8015611d8f57506001600160a01b0382166000908152606860205260409020611d8f908263ffffffff612f8f16565b611dd6576040805162461bcd60e51b8152602060048201526013602482015272151bdad95b881251081b9bdd081b1a5cdd1959606a1b604482015290519081900360640190fd5b6000611de28686612a03565b905083811115611e30576040805162461bcd60e51b8152602060048201526014602482015273427579696e6720707269636520746f6f206c6f7760601b604482015290519081900360640190fd5b611e38613d47565b506001600160a01b038087166000908152606760209081526040808320898452825280832081518083019092528054909416815260019093015490830152611e8088886110e8565b6001600160a01b03891660008181526067602090815260408083208c8452825280832080546001600160a01b03191681556001018390559282526068905220909150611ed2908863ffffffff61337816565b50611edc88613384565b606654606554611f01916001600160a01b03918216913391168463ffffffff6133c216565b8151611f33903390611f19868563ffffffff61313c16565b6065546001600160a01b031692919063ffffffff6133c216565b60408051632142170760e11b81523060048201523360248201526044810189905290516001600160a01b038a16916342842e0e91606480830192600092919082900301818387803b158015611f8757600080fd5b505af1158015611f9b573d6000803e3d6000fd5b50508351604080516001600160a01b0392831681526020810188905281518c9550928d16935033927f7762d23dc0afc60972698afa4f7ab7e5853e961dad5c968fe29b0fd3b14fffb5929181900390910190a45050505050505050565b336000908152606c602052604090205460ff1615612050576040805162461bcd60e51b815260206004820152601060248201526f466f7262696464656e2061636365737360801b604482015290519081900360640190fd5b818161206360698363ffffffff612f7a16565b801561209257506001600160a01b0382166000908152606860205260409020612092908263ffffffff612f8f16565b6120d9576040805162461bcd60e51b8152602060048201526013602482015272151bdad95b881251081b9bdd081b1a5cdd1959606a1b604482015290519081900360640190fd5b6001600160a01b03808516600090815260676020908152604080832087845290915290205485918591163314806121345750604080516923a0a6a2afa0a226a4a760b11b8152905190819003600a0190206121349033611c23565b612175576040805162461bcd60e51b815260206004820152600d60248201526c1058d8d95cdcc819195b9a5959609a1b604482015290519081900360640190fd5b6001600160a01b0386166000818152606760209081526040808320898452825280832080546001600160a01b031916815560010183905592825260689052206121c4908663ffffffff61337816565b506121ce86613384565b60408051632142170760e11b81523060048201523360248201526044810187905290516001600160a01b038816916342842e0e91606480830192600092919082900301818387803b15801561222257600080fd5b505af1158015612236573d6000803e3d6000fd5b50506040518792506001600160a01b038916915033907fd66e7fc4b7515678684c4cbafb29ad2dbe872f0d8913ac2227c7cfead5d6923490600090a4505050505050565b604080516923a0a6a2afa0a226a4a760b11b8152905190819003600a0190206122a39033611c23565b6122e5576040805162461bcd60e51b815260206004820152600e60248201526d2737ba1033b0b6b29030b236b4b760911b604482015290519081900360640190fd5b806122f7816380ac58cd60e01b6132ad565b61230057600080fd5b6116c560708363ffffffff61341c16565b606b6020526000908152604090205460ff1681565b604080516923a0a6a2afa0a226a4a760b11b8152905190819003600a01902061234f9033611c23565b612391576040805162461bcd60e51b815260206004820152600e60248201526d2737ba1033b0b6b29030b236b4b760911b604482015290519081900360640190fd5b61239b8282612fb2565b606f8054600f9290920b6001600160801b03166001600160801b03199092169190911790555050565b604080516923a0a6a2afa0a226a4a760b11b8152905190819003600a0190206123ed9033611c23565b61242f576040805162461bcd60e51b815260206004820152600e60248201526d2737ba1033b0b6b29030b236b4b760911b604482015290519081900360640190fd5b6001600160a01b03919091166000908152606c60205260409020805460ff1916911515919091179055565b6000818152603360205260408120610c8490612f9b565b6001600160a01b0385166000908152606860205260408120606091612497888686611808565b905060ff871660018701026000818310156124c6576124c18360ff8b168a0263ffffffff61313c16565b6124cb565b8860ff165b905060608167ffffffffffffffff811180156124e657600080fd5b50604051908082528060200260200182016040528015612510578160200160208202803683370190505b509050600080805b61252188612f9b565b8110801561252e57508583105b156126c7576072546000906001600160a01b031663acb586df6125578b8563ffffffff612fa616565b6040518263ffffffff1660e01b81526004018082815260200191505060206040518083038186803b15801561258b57600080fd5b505afa15801561259f573d6000803e3d6000fd5b505050506040513d60208110156125b557600080fd5b50516072549091506000906001600160a01b031663adf04f206125de8c8663ffffffff612fa616565b6040518263ffffffff1660e01b81526004018082815260200191505060206040518083038186803b15801561261257600080fd5b505afa158015612626573d6000803e3d6000fd5b505050506040513d602081101561263c57600080fd5b5051905060ff808e16148061265657508c60ff168260ff16145b801561267457508b60ff1660ff148061267457508b60ff168160ff16145b156126bd578e60ff16880385106126b6576126958a8463ffffffff612fa616565b868560ff16815181106126a457fe5b60209081029190910101526001909301925b6001909401935b5050600101612518565b50919c9b505050505050505050505050565b6001600160a01b0381166000908152606860205260408120610c8490612f9b565b6065546001600160a01b031681565b6000828152603360205260409020600201546127279061113c61305a565b61128c5760405162461bcd60e51b8152600401808060200182810382526030815260200180613dd66030913960400191505060405180910390fd5b6001600160a01b0384166000908152606860205260408120818080805b61278885612f9b565b8110156128fe576073546001600160a01b03166386481d406127b0878463ffffffff612fa616565b6040518263ffffffff1660e01b81526004018082815260200191505060206040518083038186803b1580156127e457600080fd5b505afa1580156127f8573d6000803e3d6000fd5b505050506040513d602081101561280e57600080fd5b50516073549093506001600160a01b031663acb586df612834878463ffffffff612fa616565b6040518263ffffffff1660e01b81526004018082815260200191505060206040518083038186803b15801561286857600080fd5b505afa15801561287c573d6000803e3d6000fd5b505050506040513d602081101561289257600080fd5b5051915060ff808a1614806128ac57508860ff168260ff16145b80156128ea57508760ff1660ff14806128c857508660ff1660ff145b806128ea57508760ff168360ff16101580156128ea57508660ff168360ff1611155b156128f6576001909301925b60010161277f565b509198975050505050505050565b6060600061291a84846116ca565b90508067ffffffffffffffff8111801561293357600080fd5b5060405190808252806020026020018201604052801561295d578160200160208202803683370190505b506001600160a01b0385166000908152606860205260408120919350805b61298483612f9b565b8110156129f957600061299d848363ffffffff612fa616565b6001600160a01b038981166000908152606760209081526040808320858452909152902054919250888116911614156129f057808684806001019550815181106129e357fe5b6020026020010181815250505b5060010161297b565b5050505092915050565b6000611117612a1284846110e8565b612a1c8585610c5c565b9063ffffffff61343116565b6060606981612a3682612f9b565b67ffffffffffffffff81118015612a4c57600080fd5b50604051908082528060200260200182016040528015612a76578160200160208202803683370190505b50905060005b8151811015610dc957612a95838263ffffffff612fa616565b828281518110612aa157fe5b6001600160a01b0390921660209283029190910190910152600101612a7c565b604080516923a0a6a2afa0a226a4a760b11b8152905190819003600a019020612aea9033611c23565b612b2c576040805162461bcd60e51b815260206004820152600e60248201526d2737ba1033b0b6b29030b236b4b760911b604482015290519081900360640190fd5b61118660708263ffffffff61348b16565b336000908152606c602052604090205460ff1615612b95576040805162461bcd60e51b815260206004820152601060248201526f466f7262696464656e2061636365737360801b604482015290519081900360640190fd5b8282612ba860698363ffffffff612f7a16565b8015612bd757506001600160a01b0382166000908152606860205260409020612bd7908263ffffffff612f8f16565b612c1e576040805162461bcd60e51b8152602060048201526013602482015272151bdad95b881251081b9bdd081b1a5cdd1959606a1b604482015290519081900360640190fd5b6001600160a01b03808616600090815260676020908152604080832088845290915290205486918691163314612c8b576040805162461bcd60e51b815260206004820152600d60248201526c1058d8d95cdcc819195b9a5959609a1b604482015290519081900360640190fd5b6001600160a01b03871660008181526067602090815260408083208a84528252918290206001018890558151888152915189939233927f35717041cfb73c9917e328a2cdd6bae61d669e3c8b024b049188bb5cd35d00cb92918290030190a450505050505050565b336000908152606c602052604090205460ff1615612d4b576040805162461bcd60e51b815260206004820152601060248201526f466f7262696464656e2061636365737360801b604482015290519081900360640190fd5b82612d5581612f67565b612d905760405162461bcd60e51b8152600401808060200182810382526027815260200180613e346027913960400191505060405180910390fd5b83612da2816380ac58cd60e01b6132ad565b612dab57600080fd5b8484612dbe60698363ffffffff612f7a16565b1580612def57506001600160a01b0382166000908152606860205260409020612ded908263ffffffff612f8f16565b155b612e40576040805162461bcd60e51b815260206004820152601b60248201527f546f6b656e204944206d757374206e6f74206265206c69737465640000000000604482015290519081900360640190fd5b60408051808201825233815260208082018881526001600160a01b038b81166000818152606785528681208d82528552868120955186546001600160a01b0319169316929092178555915160019094019390935582526068905220612ea590876134a0565b50612eaf87613384565b60408051632142170760e11b81523360048201523060248201526044810188905290516001600160a01b038916916342842e0e91606480830192600092919082900301818387803b158015612f0357600080fd5b505af1158015612f17573d6000803e3d6000fd5b50506040805188815290518993506001600160a01b038b16925033917f062bbf144ceb4ac73469f757015d16a5ba66b478ede809652e46b8f30750b4e5919081900360200190a450505050505050565b6000610c8460708363ffffffff612f7a16565b6000611117836001600160a01b0384166134ac565b600061111783836134ac565b6000610c84826134c4565b600061111783836134c8565b600081612fbe57600080fd5b6000612fca848461352c565b90506f7fffffffffffffffffffffffffffffff6001600160801b038216111561111757600080fd5b60008161300157506000610c84565b600083600f0b121561301257600080fd5b600f83900b6001600160801b038316810260401c90608084901c026001600160c01b0381111561304157600080fd5b60401b811981111561305257600080fd5b019392505050565b3390565b600082815260336020526040902061307c908263ffffffff61341c16565b156111865761308961305a565b6001600160a01b0316816001600160a01b0316837f2f8788117e7eff1d82e926ec794901d17c78024a50270940304540a733656f0d60405160405180910390a45050565b60008281526033602052604090206130eb908263ffffffff61348b16565b15611186576130f861305a565b6001600160a01b0316816001600160a01b0316837ff6391f5c32d9c69d2a47ea670b442974b53935d1edc7fd64eb21e047a839171b60405160405180910390a45050565b600082821115613193576040805162461bcd60e51b815260206004820152601e60248201527f536166654d6174683a207375627472616374696f6e206f766572666c6f770000604482015290519081900360640190fd5b50900390565b60006131a430613676565b15905090565b600054610100900460ff16806131c357506131c3613199565b806131d1575060005460ff16155b61320c5760405162461bcd60e51b815260040180806020018281038252602e815260200180613e06602e913960400191505060405180910390fd5b600054610100900460ff16158015613237576000805460ff1961ff0019909116610100171660011790555b61323f61367c565b61324761367c565b8015611805576000805461ff001916905550565b604080516001600160a01b038416602482015260448082018490528251808303909101815260649091019091526020810180516001600160e01b031663a9059cbb60e01b1790526116c590849061371c565b60006132b8836137cd565b801561111757506111178383613800565b600081600f0b1215613322576040805162461bcd60e51b815260206004820181905260248201527f5765277265206e6f742072756e6e696e67206120636861726974792068657265604482015290519081900360640190fd5b6001600160a01b03919091166000908152606d6020908152604080832080546001600160801b0319166001600160801b03600f9690960b958616179055606e90915290208054911560ff19909216919091179055565b60006111178383613826565b6001600160a01b03811660009081526068602052604081206133a590612f9b565b11156133b9576133b4816138ec565b611805565b611805816139a1565b604080516001600160a01b0380861660248301528416604482015260648082018490528251808303909101815260849091019091526020810180516001600160e01b03166323b872dd60e01b179052611cef90859061371c565b6000611117836001600160a01b0384166139b2565b600082820183811015611117576040805162461bcd60e51b815260206004820152601b60248201527f536166654d6174683a206164646974696f6e206f766572666c6f770000000000604482015290519081900360640190fd5b6000611117836001600160a01b038416613826565b600061111783836139b2565b60009081526001919091016020526040902054151590565b5490565b8154600090821061350a5760405162461bcd60e51b8152600401808060200182810382526022815260200180613d5f6022913960400191505060405180910390fd5b82600001828154811061351957fe5b9060005260206000200154905092915050565b60008161353857600080fd5b60006001600160c01b03841161355d5782604085901b8161355557fe5b049050613662565b60c084811c6401000000008110613576576020918201911c5b620100008110613588576010918201911c5b6101008110613599576008918201911c5b601081106135a9576004918201911c5b600481106135b9576002918201911c5b600281106135c8576001820191505b60bf820360018603901c6001018260ff0387901b816135e357fe5b0492506001600160801b038311156135fa57600080fd5b608085901c83026001600160801b038616840260c088901c604089901b82811015613626576001820391505b608084901b9290038281101561363d576001820391505b829003608084901c821461364d57fe5b88818161365657fe5b04870196505050505050505b6001600160801b0381111561111757600080fd5b3b151590565b600054610100900460ff16806136955750613695613199565b806136a3575060005460ff16155b6136de5760405162461bcd60e51b815260040180806020018281038252602e815260200180613e06602e913960400191505060405180910390fd5b600054610100900460ff16158015613247576000805460ff1961ff0019909116610100171660011790558015611805576000805461ff001916905550565b6060613771826040518060400160405280602081526020017f5361666545524332303a206c6f772d6c6576656c2063616c6c206661696c6564815250856001600160a01b03166139fc9092919063ffffffff16565b8051909150156116c55780806020019051602081101561379057600080fd5b50516116c55760405162461bcd60e51b815260040180806020018281038252602a815260200180613e5b602a913960400191505060405180910390fd5b60006137e0826301ffc9a760e01b613800565b8015610c8457506137f9826001600160e01b0319613800565b1592915050565b600080600061380f8585613a13565b9150915081801561381d5750805b95945050505050565b600081815260018301602052604081205480156138e2578354600019808301919081019060009087908390811061385957fe5b906000526020600020015490508087600001848154811061387657fe5b6000918252602080832090910192909255828152600189810190925260409020908401905586548790806138a657fe5b60019003818190600052602060002001600090559055866001016000878152602001908152602001600020600090556001945050505050610c84565b6000915050610c84565b6138fd60698263ffffffff612f7a16565b6118055761391260698263ffffffff61341c16565b506001600160a01b0381166000908152606d6020526040902054600f90810b900b15801561395957506001600160a01b0381166000908152606e602052604090205460ff16155b1561180557606f546001600160a01b0382166000908152606d602052604090208054600f92830b90920b6001600160801b03166001600160801b031990921691909117905550565b61118660698263ffffffff61348b16565b60006139be83836134ac565b6139f457508154600181810184556000848152602080822090930184905584548482528286019093526040902091909155610c84565b506000610c84565b6060613a0b8484600085613b47565b949350505050565b604080516001600160e01b0319831660248083019190915282518083039091018152604490910182526020810180516001600160e01b03166301ffc9a760e01b1781529151815160009384939284926060926001600160a01b038a169261753092879282918083835b60208310613a9b5780518252601f199092019160209182019101613a7c565b6001836020036101000a0380198251168184511680821785525050505050509050019150506000604051808303818686fa925050503d8060008114613afc576040519150601f19603f3d011682016040523d82523d6000602084013e613b01565b606091505b5091509150602081511015613b1f5760008094509450505050613b40565b81818060200190516020811015613b3557600080fd5b505190955093505050505b9250929050565b606082471015613b885760405162461bcd60e51b8152600401808060200182810382526026815260200180613db06026913960400191505060405180910390fd5b613b9185613676565b613be2576040805162461bcd60e51b815260206004820152601d60248201527f416464726573733a2063616c6c20746f206e6f6e2d636f6e7472616374000000604482015290519081900360640190fd5b60006060866001600160a01b031685876040518082805190602001908083835b60208310613c215780518252601f199092019160209182019101613c02565b6001836020036101000a03801982511681845116808217855250505050505090500191505060006040518083038185875af1925050503d8060008114613c83576040519150601f19603f3d011682016040523d82523d6000602084013e613c88565b606091505b5091509150613c98828286613ca3565b979650505050505050565b60608315613cb2575081611117565b825115613cc25782518084602001fd5b8160405162461bcd60e51b81526004018080602001828103825283818151815260200191508051906020019080838360005b83811015613d0c578181015183820152602001613cf4565b50505050905090810190601f168015613d395780820380516001836020036101000a031916815260200191505b509250505060405180910390fd5b60408051808201909152600080825260208201529056fe456e756d657261626c655365743a20696e646578206f7574206f6620626f756e6473416363657373436f6e74726f6c3a2073656e646572206d75737420626520616e2061646d696e20746f206772616e74416464726573733a20696e73756666696369656e742062616c616e636520666f722063616c6c416363657373436f6e74726f6c3a2073656e646572206d75737420626520616e2061646d696e20746f207265766f6b65496e697469616c697a61626c653a20636f6e747261637420697320616c726561647920696e697469616c697a6564546869732074797065206f66204e4654206d6179206e6f742062652074726164656420686572655361666545524332303a204552433230206f7065726174696f6e20646964206e6f742073756363656564416363657373436f6e74726f6c3a2063616e206f6e6c792072656e6f756e636520726f6c657320666f722073656c66a26469706673582212205d6746aee3d640e2aa55e58d4a9dd9506940c44b4da6852b007194eaa17a5fac64736f6c63430006050033",
  "immutableReferences": {},
  "source": "pragma solidity ^0.6.0;\n\nimport \"@openzeppelin/contracts-upgradeable/proxy/Initializable.sol\";\nimport \"@openzeppelin/contracts-upgradeable/access/AccessControlUpgradeable.sol\";\nimport \"@openzeppelin/contracts-upgradeable/token/ERC721/IERC721ReceiverUpgradeable.sol\";\nimport \"@openzeppelin/contracts/utils/EnumerableSet.sol\";\nimport \"@openzeppelin/contracts/math/SafeMath.sol\";\nimport \"@openzeppelin/contracts/introspection/ERC165Checker.sol\";\nimport \"@openzeppelin/contracts/token/ERC20/IERC20.sol\";\nimport \"@openzeppelin/contracts/token/ERC721/IERC721.sol\";\nimport \"@openzeppelin/contracts/token/ERC20/SafeERC20.sol\";\nimport \"abdk-libraries-solidity/ABDKMath64x64.sol\";\nimport \"./interfaces/IPriceOracle.sol\";\nimport \"./characters.sol\";\nimport \"./weapons.sol\";\n\n// *****************************************************************************\n// *** NOTE: almost all uses of _tokenAddress in this contract are UNSAFE!!! ***\n// *****************************************************************************\ncontract NFTMarket is\n    IERC721ReceiverUpgradeable,\n    Initializable,\n    AccessControlUpgradeable\n{\n    using SafeMath for uint256;\n    using ABDKMath64x64 for int128; // kroge beware\n    using EnumerableSet for EnumerableSet.UintSet;\n    using EnumerableSet for EnumerableSet.AddressSet;\n    using SafeERC20 for IERC20;\n\n    bytes4 private constant _INTERFACE_ID_ERC721 = 0x80ac58cd;\n\n    bytes32 public constant GAME_ADMIN = keccak256(\"GAME_ADMIN\");\n\n    // ############\n    // Initializer\n    // ############\n    function initialize(IERC20 _dkcToken, address _taxRecipient)\n        public\n        initializer\n    {\n        __AccessControl_init();\n\n        _setupRole(DEFAULT_ADMIN_ROLE, msg.sender);\n\n        dkcToken = _dkcToken;\n\n        taxRecipient = _taxRecipient;\n        defaultTax = ABDKMath64x64.divu(1, 10); // 10%\n    }\n\n    function migrateTo_a98a9ac(Characters _charactersContract, Weapons _weaponsContract) external {\n        require(hasRole(DEFAULT_ADMIN_ROLE, msg.sender), \"Not admin\");\n\n        characters = _charactersContract;\n        weapons = _weaponsContract;\n    }\n\n    // basic listing; we can easily offer other types (auction / buy it now)\n    // if the struct can be extended, that's one way, otherwise different mapping per type.\n    struct Listing {\n        address seller;\n        uint256 price;\n        //int128 usdTether; // this would be to \"tether\" price dynamically to our oracle\n    }\n\n    // ############\n    // State\n    // ############\n    IERC20 public dkcToken; //0x154A9F9cbd3449AD22FDaE23044319D6eF2a1Fab;\n    address public taxRecipient; //game contract\n    //IPriceOracle public priceOracleDkcPerUsd; // we may want this for dynamic pricing\n\n    // address is IERC721 -- kept like this because of OpenZeppelin upgrade plugin bug\n    mapping(address => mapping(uint256 => Listing)) private listings;\n    // address is IERC721 -- kept like this because of OpenZeppelin upgrade plugin bug\n    mapping(address => EnumerableSet.UintSet) private listedTokenIDs;\n    // address is IERC721\n    EnumerableSet.AddressSet private listedTokenTypes; // stored for a way to know the types we have on offer\n\n    // UNUSED; KEPT FOR UPGRADEABILITY PROXY COMPATIBILITY\n    mapping(address => bool) public isTokenBanned;\n\n    // address is IERC721 -- kept like this because of OpenZeppelin upgrade plugin bug\n    mapping(address => bool) public isUserBanned;\n\n    // address is IERC721 -- kept like this because of OpenZeppelin upgrade plugin bug\n    mapping(address => int128) public tax; // per NFT type tax\n    // address is IERC721 -- kept like this because of OpenZeppelin upgrade plugin bug\n    mapping(address => bool) private freeTax; // since tax is 0-default, this specifies it to fix an exploit\n    int128 public defaultTax; // fallback in case we haven't specified it\n\n    // address is IERC721 -- kept like this because of OpenZeppelin upgrade plugin bug\n    EnumerableSet.AddressSet private allowedTokenTypes;\n\n    Weapons internal weapons;\n    Characters internal characters;\n\n    // ############\n    // Events\n    // ############\n    event NewListing(\n        address indexed seller,\n        IERC721 indexed nftAddress,\n        uint256 indexed nftID,\n        uint256 price\n    );\n    event ListingPriceChange(\n        address indexed seller,\n        IERC721 indexed nftAddress,\n        uint256 indexed nftID,\n        uint256 newPrice\n    );\n    event CancelledListing(\n        address indexed seller,\n        IERC721 indexed nftAddress,\n        uint256 indexed nftID\n    );\n    event PurchasedListing(\n        address indexed buyer,\n        address seller,\n        IERC721 indexed nftAddress,\n        uint256 indexed nftID,\n        uint256 price\n    );\n\n    // ############\n    // Modifiers\n    // ############\n    modifier restricted() {\n        require(hasRole(GAME_ADMIN, msg.sender), \"Not game admin\");\n        _;\n    }\n\n    modifier isListed(IERC721 _tokenAddress, uint256 id) {\n        require(\n            listedTokenTypes.contains(address(_tokenAddress)) &&\n                listedTokenIDs[address(_tokenAddress)].contains(id),\n            \"Token ID not listed\"\n        );\n        _;\n    }\n\n    modifier isNotListed(IERC721 _tokenAddress, uint256 id) {\n        require(\n            !listedTokenTypes.contains(address(_tokenAddress)) ||\n                !listedTokenIDs[address(_tokenAddress)].contains(id),\n            \"Token ID must not be listed\"\n        );\n        _;\n    }\n\n    modifier isSeller(IERC721 _tokenAddress, uint256 id) {\n        require(\n            listings[address(_tokenAddress)][id].seller == msg.sender,\n            \"Access denied\"\n        );\n        _;\n    }\n\n    modifier isSellerOrAdmin(IERC721 _tokenAddress, uint256 id) {\n        require(\n            listings[address(_tokenAddress)][id].seller == msg.sender ||\n                hasRole(GAME_ADMIN, msg.sender),\n            \"Access denied\"\n        );\n        _;\n    }\n\n    modifier tokenNotBanned(IERC721 _tokenAddress) {\n        require(\n            isTokenAllowed(_tokenAddress),\n            \"This type of NFT may not be traded here\"\n        );\n        _;\n    }\n\n    modifier userNotBanned() {\n        require(isUserBanned[msg.sender] == false, \"Forbidden access\");\n        _;\n    }\n\n    modifier isValidERC721(IERC721 _tokenAddress) {\n        require(\n            ERC165Checker.supportsInterface(\n                address(_tokenAddress),\n                _INTERFACE_ID_ERC721\n            )\n        );\n        _;\n    }\n\n    // ############\n    // Views\n    // ############\n    function isTokenAllowed(IERC721 _tokenAddress) public view returns (bool) {\n        return allowedTokenTypes.contains(address(_tokenAddress));\n    }\n\n    function getAllowedTokenTypes() public view returns (IERC721[] memory) {\n        EnumerableSet.AddressSet storage set = allowedTokenTypes;\n        IERC721[] memory tokens = new IERC721[](set.length());\n\n        for (uint256 i = 0; i < tokens.length; i++) {\n            tokens[i] = IERC721(set.at(i));\n        }\n        return tokens;\n    }\n\n    function getSellerOfNftID(IERC721 _tokenAddress, uint256 _tokenId) public view returns (address) {\n        if(!listedTokenTypes.contains(address(_tokenAddress))) {\n            return address(0);\n        }\n\n        if(!listedTokenIDs[address(_tokenAddress)].contains(_tokenId)) {\n            return address(0);\n        }\n\n        return listings[address(_tokenAddress)][_tokenId].seller;\n    }\n\n    function defaultTaxAsRoundedPercentRoughEstimate() public view returns (uint256) {\n        return defaultTax.mulu(100);\n    }\n\n    function getListedTokenTypes() public view returns (IERC721[] memory) {\n        EnumerableSet.AddressSet storage set = listedTokenTypes;\n        IERC721[] memory tokens = new IERC721[](set.length());\n\n        for (uint256 i = 0; i < tokens.length; i++) {\n            tokens[i] = IERC721(set.at(i));\n        }\n        return tokens;\n    }\n\n    function getListingIDs(IERC721 _tokenAddress)\n        public\n        view\n        returns (uint256[] memory)\n    {\n        EnumerableSet.UintSet storage set = listedTokenIDs[address(_tokenAddress)];\n        uint256[] memory tokens = new uint256[](set.length());\n\n        for (uint256 i = 0; i < tokens.length; i++) {\n            tokens[i] = set.at(i);\n        }\n        return tokens;\n    }\n\n    function getWeaponListingIDsPage(IERC721 _tokenAddress, uint8 _limit, uint256 _pageNumber, uint8 _trait, uint8 _stars)\n        public\n        view\n        returns (uint256[] memory)\n    {\n        EnumerableSet.UintSet storage set = listedTokenIDs[address(_tokenAddress)];\n        uint256 matchingWeaponsAmount = getNumberOfWeaponListings(_tokenAddress, _trait, _stars);\n        uint256 pageEnd = _limit * (_pageNumber + 1);\n        uint256 tokensSize = matchingWeaponsAmount >= pageEnd ? _limit : matchingWeaponsAmount.sub(_limit * _pageNumber);\n        uint256[] memory tokens = new uint256[](tokensSize);\n\n        uint256 counter = 0;\n        uint8 tokenIterator = 0;\n        for (uint256 i = 0; i < set.length() && counter < pageEnd; i++) {\n            uint8 weaponTrait = weapons.getTrait(set.at(i));\n            uint8 weaponStars = weapons.getStars(set.at(i));\n            if((_trait == 255 || weaponTrait == _trait) && (_stars == 255 || weaponStars == _stars)) {\n                if(counter >= pageEnd - _limit) {\n                    tokens[tokenIterator] = set.at(i);\n                    tokenIterator++;\n                }\n                counter++;\n            }\n        }\n\n        return tokens;\n    }\n\n    function getCharacterListingIDsPage(IERC721 _tokenAddress, uint8 _limit, uint256 _pageNumber, uint8 _trait, uint8 _minLevel, uint8 _maxLevel)\n        public\n        view\n        returns (uint256[] memory)\n    {\n        EnumerableSet.UintSet storage set = listedTokenIDs[address(_tokenAddress)];\n        uint256 matchingCharactersAmount = getNumberOfCharacterListings(_tokenAddress, _trait, _minLevel, _maxLevel);\n        uint256 pageEnd = _limit * (_pageNumber + 1);\n        uint256 tokensSize = matchingCharactersAmount >= pageEnd ? _limit : matchingCharactersAmount.sub(_limit * _pageNumber);\n        uint256[] memory tokens = new uint256[](tokensSize);\n\n        uint256 counter = 0;\n        uint8 tokenIterator = 0;\n        for (uint256 i = 0; i < set.length() && counter < pageEnd; i++) {\n            uint8 characterTrait = characters.getTrait(set.at(i));\n            uint8 characterLevel = characters.getLevel(set.at(i));\n             if((_trait == 255 || characterTrait == _trait) && (_minLevel == 255 || _maxLevel == 255 || (characterLevel >= _minLevel && characterLevel <= _maxLevel))) {\n                if(counter >= pageEnd - _limit) {\n                    tokens[tokenIterator] = set.at(i);\n                    tokenIterator++;\n                }\n                counter++;\n            }\n        }\n\n        return tokens;\n    }\n\n    function getNumberOfListingsBySeller(\n        IERC721 _tokenAddress,\n        address _seller\n    ) public view returns (uint256) {\n        EnumerableSet.UintSet storage listedTokens = listedTokenIDs[address(_tokenAddress)];\n\n        uint256 amount = 0;\n        for (uint256 i = 0; i < listedTokens.length(); i++) {\n            if (\n                listings[address(_tokenAddress)][listedTokens.at(i)].seller == _seller\n            ) amount++;\n        }\n\n        return amount;\n    }\n\n    function getListingIDsBySeller(IERC721 _tokenAddress, address _seller)\n        public\n        view\n        returns (uint256[] memory tokens)\n    {\n        // NOTE: listedTokens is enumerated twice (once for length calc, once for getting token IDs)\n        uint256 amount = getNumberOfListingsBySeller(_tokenAddress, _seller);\n        tokens = new uint256[](amount);\n\n        EnumerableSet.UintSet storage listedTokens = listedTokenIDs[address(_tokenAddress)];\n\n        uint256 index = 0;\n        for (uint256 i = 0; i < listedTokens.length(); i++) {\n            uint256 id = listedTokens.at(i);\n            if (listings[address(_tokenAddress)][id].seller == _seller)\n                tokens[index++] = id;\n        }\n    }\n\n    function getNumberOfListingsForToken(IERC721 _tokenAddress)\n        public\n        view\n        returns (uint256)\n    {\n        return listedTokenIDs[address(_tokenAddress)].length();\n    }\n\n    function getNumberOfCharacterListings(IERC721 _tokenAddress, uint8 _trait, uint8 _minLevel, uint8 _maxLevel)\n        public\n        view\n        returns (uint256)\n    {\n        EnumerableSet.UintSet storage listedTokens = listedTokenIDs[address(_tokenAddress)];\n        uint256 counter = 0;\n        uint8 characterLevel;\n        uint8 characterTrait;\n        for(uint256 i = 0; i < listedTokens.length(); i++) {\n            characterLevel = characters.getLevel(listedTokens.at(i));\n            characterTrait = characters.getTrait(listedTokens.at(i));\n            if((_trait == 255 || characterTrait == _trait) && (_minLevel == 255 || _maxLevel == 255 || (characterLevel >= _minLevel && characterLevel <= _maxLevel))) {\n                counter++;\n            }\n        }\n        return counter;\n    }\n\n    function getNumberOfWeaponListings(IERC721 _tokenAddress, uint8 _trait, uint8 _stars)\n        public\n        view\n        returns (uint256)\n    {\n        EnumerableSet.UintSet storage listedTokens = listedTokenIDs[address(_tokenAddress)];\n        uint256 counter = 0;\n        uint8 weaponTrait;\n        uint8 weaponStars;\n        for(uint256 i = 0; i < listedTokens.length(); i++) {\n            weaponTrait = weapons.getTrait(listedTokens.at(i));\n            weaponStars = weapons.getStars(listedTokens.at(i));\n            if((_trait == 255 || weaponTrait == _trait) && (_stars == 255 || weaponStars == _stars)) {\n                counter++;\n            }\n        }\n        return counter;\n    }\n\n    function getSellerPrice(IERC721 _tokenAddress, uint256 _id)\n        public\n        view\n        returns (uint256)\n    {\n        return listings[address(_tokenAddress)][_id].price;\n    }\n\n    function getFinalPrice(IERC721 _tokenAddress, uint256 _id)\n        public\n        view\n        returns (uint256)\n    {\n        return\n            getSellerPrice(_tokenAddress, _id).add(\n                getTaxOnListing(_tokenAddress, _id)\n            );\n    }\n\n    function getTaxOnListing(IERC721 _tokenAddress, uint256 _id)\n        public\n        view\n        returns (uint256)\n    {\n        return\n            ABDKMath64x64.mulu(\n                tax[address(_tokenAddress)],\n                getSellerPrice(_tokenAddress, _id)\n            );\n    }\n\n    function getListingSlice(IERC721 _tokenAddress, uint256 start, uint256 length)\n        public\n        view\n        returns (uint256 returnedCount, uint256[] memory ids, address[] memory sellers, uint256[] memory prices)\n    {\n        returnedCount = length;\n        ids = new uint256[](length);\n        sellers = new address[](length);\n        prices = new uint256[](length);\n\n        uint index = 0;\n        EnumerableSet.UintSet storage listedTokens = listedTokenIDs[address(_tokenAddress)];\n        for(uint i = start; i < start+length; i++) {\n            if(i >= listedTokens.length())\n                return(index, ids, sellers, prices);\n\n            uint256 id = listedTokens.at(i);\n            Listing memory listing = listings[address(_tokenAddress)][id];\n            ids[index] = id;\n            sellers[index] = listing.seller;\n            prices[index++] = listing.price;\n        }\n    }\n\n    // ############\n    // Mutative\n    // ############\n    function addListing(\n        IERC721 _tokenAddress,\n        uint256 _id,\n        uint256 _price\n    )\n        public\n        userNotBanned\n        tokenNotBanned(_tokenAddress)\n        isValidERC721(_tokenAddress)\n        isNotListed(_tokenAddress, _id)\n    {\n        listings[address(_tokenAddress)][_id] = Listing(msg.sender, _price);\n        listedTokenIDs[address(_tokenAddress)].add(_id);\n\n        _updateListedTokenTypes(_tokenAddress);\n\n        // in theory the transfer and required approval already test non-owner operations\n        _tokenAddress.safeTransferFrom(msg.sender, address(this), _id);\n\n        emit NewListing(msg.sender, _tokenAddress, _id, _price);\n    }\n\n    function changeListingPrice(\n        IERC721 _tokenAddress,\n        uint256 _id,\n        uint256 _newPrice\n    )\n        public\n        userNotBanned\n        isListed(_tokenAddress, _id)\n        isSeller(_tokenAddress, _id)\n    {\n        listings[address(_tokenAddress)][_id].price = _newPrice;\n        emit ListingPriceChange(\n            msg.sender,\n            _tokenAddress,\n            _id,\n            _newPrice\n        );\n    }\n\n    function cancelListing(IERC721 _tokenAddress, uint256 _id)\n        public\n        userNotBanned\n        isListed(_tokenAddress, _id)\n        isSellerOrAdmin(_tokenAddress, _id)\n    {\n        delete listings[address(_tokenAddress)][_id];\n        listedTokenIDs[address(_tokenAddress)].remove(_id);\n\n        _updateListedTokenTypes(_tokenAddress);\n\n        _tokenAddress.safeTransferFrom(address(this), msg.sender, _id);\n\n        emit CancelledListing(msg.sender, _tokenAddress, _id);\n    }\n\n    function purchaseListing(\n        IERC721 _tokenAddress,\n        uint256 _id,\n        uint256 _maxPrice\n    ) public userNotBanned isListed(_tokenAddress, _id) {\n        uint256 finalPrice = getFinalPrice(_tokenAddress, _id);\n        require(finalPrice <= _maxPrice, \"Buying price too low\");\n\n        Listing memory listing = listings[address(_tokenAddress)][_id];\n        uint256 taxAmount = getTaxOnListing(_tokenAddress, _id);\n\n        delete listings[address(_tokenAddress)][_id];\n        listedTokenIDs[address(_tokenAddress)].remove(_id);\n        _updateListedTokenTypes(_tokenAddress);\n\n        dkcToken.safeTransferFrom(msg.sender, taxRecipient, taxAmount);\n        dkcToken.safeTransferFrom(\n            msg.sender,\n            listing.seller,\n            finalPrice.sub(taxAmount)\n        );\n        _tokenAddress.safeTransferFrom(address(this), msg.sender, _id);\n\n        emit PurchasedListing(\n            msg.sender,\n            listing.seller,\n            _tokenAddress,\n            _id,\n            finalPrice\n        );\n    }\n\n    function setTaxRecipient(address _taxRecipient) public restricted {\n        taxRecipient = _taxRecipient;\n    }\n\n    function setDefaultTax(int128 _defaultTax) public restricted {\n        defaultTax = _defaultTax;\n    }\n\n    function setDefaultTaxAsRational(uint256 _numerator, uint256 _denominator)\n        public\n        restricted\n    {\n        defaultTax = ABDKMath64x64.divu(_numerator, _denominator);\n    }\n\n    function setDefaultTaxAsPercent(uint256 _percent) public restricted {\n        defaultTax = ABDKMath64x64.divu(_percent, 100);\n    }\n\n    function setTaxOnTokenType(IERC721 _tokenAddress, int128 _newTax)\n        public\n        restricted\n        isValidERC721(_tokenAddress)\n    {\n        _setTaxOnTokenType(_tokenAddress, _newTax);\n    }\n\n    function setTaxOnTokenTypeAsRational(\n        IERC721 _tokenAddress,\n        uint256 _numerator,\n        uint256 _denominator\n    ) public restricted isValidERC721(_tokenAddress) {\n        _setTaxOnTokenType(\n            _tokenAddress,\n            ABDKMath64x64.divu(_numerator, _denominator)\n        );\n    }\n\n    function setTaxOnTokenTypeAsPercent(\n        IERC721 _tokenAddress,\n        uint256 _percent\n    ) public restricted isValidERC721(_tokenAddress) {\n        _setTaxOnTokenType(\n            _tokenAddress,\n            ABDKMath64x64.divu(_percent, 100)\n        );\n    }\n\n    function setUserBan(address user, bool to) public restricted {\n        isUserBanned[user] = to;\n    }\n\n    function allowToken(IERC721 _tokenAddress) public restricted isValidERC721(_tokenAddress) {\n        allowedTokenTypes.add(address(_tokenAddress));\n    }\n\n    function disallowToken(IERC721 _tokenAddress) public restricted {\n        allowedTokenTypes.remove(address(_tokenAddress));\n    }\n\n    function recoverDkc(uint256 amount) public restricted {\n        dkcToken.safeTransfer(msg.sender, amount); // dont expect we'll hold tokens here but might as well\n    }\n\n    function onERC721Received(\n        address, /* operator */\n        address, /* from */\n        uint256 _id,\n        bytes calldata /* data */\n    ) external override returns (bytes4) {\n        // NOTE: The contract address is always the message sender.\n        address _tokenAddress = msg.sender;\n\n        require(\n            listedTokenTypes.contains(_tokenAddress) &&\n                listedTokenIDs[_tokenAddress].contains(_id),\n            \"Token ID not listed\"\n        );\n\n        return IERC721ReceiverUpgradeable.onERC721Received.selector;\n    }\n\n    // ############\n    // Internal helpers\n    // ############\n    function _setTaxOnTokenType(IERC721 tokenAddress, int128 newTax) private {\n        require(newTax >= 0, \"We're not running a charity here\");\n        tax[address(tokenAddress)] = newTax;\n        freeTax[address(tokenAddress)] = newTax == 0;\n    }\n\n    function _updateListedTokenTypes(IERC721 tokenAddress) private {\n        if (listedTokenIDs[address(tokenAddress)].length() > 0) {\n            _registerTokenAddress(tokenAddress);\n        } else {\n            _unregisterTokenAddress(tokenAddress);\n        }\n    }\n\n    function _registerTokenAddress(IERC721 tokenAddress) private {\n        if (!listedTokenTypes.contains(address(tokenAddress))) {\n            listedTokenTypes.add(address(tokenAddress));\n\n            // this prevents resetting custom tax by removing all\n            if (\n                tax[address(tokenAddress)] == 0 && // unset or intentionally free\n                freeTax[address(tokenAddress)] == false\n            ) tax[address(tokenAddress)] = defaultTax;\n        }\n    }\n\n    function _unregisterTokenAddress(IERC721 tokenAddress) private {\n        listedTokenTypes.remove(address(tokenAddress));\n    }\n}\n",
  "sourcePath": "H:\\8.5.1\\contracts\\NFTMarket.sol",
  "compiler": {
    "name": "solc",
    "version": "0.6.5+commit.f956cc89.Emscripten.clang"
  },
  "schemaVersion": "3.4.16",
  "updatedAt": "2023-09-14T02:49:34.989Z",
  "networkType": "ethereum",
  "devdoc": {
    "methods": {
      "getRoleAdmin(bytes32)": {
        "details": "Returns the admin role that controls `role`. See {grantRole} and {revokeRole}.     * To change a role's admin, use {_setRoleAdmin}."
      },
      "getRoleMember(bytes32,uint256)": {
        "details": "Returns one of the accounts that have `role`. `index` must be a value between 0 and {getRoleMemberCount}, non-inclusive.     * Role bearers are not sorted in any particular way, and their ordering may change at any point.     * WARNING: When using {getRoleMember} and {getRoleMemberCount}, make sure you perform all queries on the same block. See the following https://forum.openzeppelin.com/t/iterating-over-elements-on-enumerableset-in-openzeppelin-contracts/2296[forum post] for more information."
      },
      "getRoleMemberCount(bytes32)": {
        "details": "Returns the number of accounts that have `role`. Can be used together with {getRoleMember} to enumerate all bearers of a role."
      },
      "grantRole(bytes32,address)": {
        "details": "Grants `role` to `account`.     * If `account` had not been already granted `role`, emits a {RoleGranted} event.     * Requirements:     * - the caller must have ``role``'s admin role."
      },
      "hasRole(bytes32,address)": {
        "details": "Returns `true` if `account` has been granted `role`."
      },
      "renounceRole(bytes32,address)": {
        "details": "Revokes `role` from the calling account.     * Roles are often managed via {grantRole} and {revokeRole}: this function's purpose is to provide a mechanism for accounts to lose their privileges if they are compromised (such as when a trusted device is misplaced).     * If the calling account had been granted `role`, emits a {RoleRevoked} event.     * Requirements:     * - the caller must be `account`."
      },
      "revokeRole(bytes32,address)": {
        "details": "Revokes `role` from `account`.     * If `account` had been granted `role`, emits a {RoleRevoked} event.     * Requirements:     * - the caller must have ``role``'s admin role."
      }
    }
  },
  "userdoc": {
    "methods": {}
  }
}