{
  "contractName": "Weapons",
  "abi": [
    {
      "anonymous": false,
      "inputs": [
        {
          "indexed": true,
          "internalType": "address",
          "name": "owner",
          "type": "address"
        },
        {
          "indexed": true,
          "internalType": "address",
          "name": "approved",
          "type": "address"
        },
        {
          "indexed": true,
          "internalType": "uint256",
          "name": "tokenId",
          "type": "uint256"
        }
      ],
      "name": "Approval",
      "type": "event"
    },
    {
      "anonymous": false,
      "inputs": [
        {
          "indexed": true,
          "internalType": "address",
          "name": "owner",
          "type": "address"
        },
        {
          "indexed": true,
          "internalType": "address",
          "name": "operator",
          "type": "address"
        },
        {
          "indexed": false,
          "internalType": "bool",
          "name": "approved",
          "type": "bool"
        }
      ],
      "name": "ApprovalForAll",
      "type": "event"
    },
    {
      "anonymous": false,
      "inputs": [
        {
          "indexed": true,
          "internalType": "address",
          "name": "owner",
          "type": "address"
        },
        {
          "indexed": true,
          "internalType": "uint256",
          "name": "burned",
          "type": "uint256"
        }
      ],
      "name": "Burned",
      "type": "event"
    },
    {
      "anonymous": false,
      "inputs": [
        {
          "indexed": true,
          "internalType": "uint256",
          "name": "weapon",
          "type": "uint256"
        },
        {
          "indexed": true,
          "internalType": "address",
          "name": "minter",
          "type": "address"
        }
      ],
      "name": "NewWeapon",
      "type": "event"
    },
    {
      "anonymous": false,
      "inputs": [
        {
          "indexed": true,
          "internalType": "address",
          "name": "owner",
          "type": "address"
        },
        {
          "indexed": true,
          "internalType": "uint256",
          "name": "reforged",
          "type": "uint256"
        },
        {
          "indexed": true,
          "internalType": "uint256",
          "name": "burned",
          "type": "uint256"
        },
        {
          "indexed": false,
          "internalType": "uint8",
          "name": "lowPoints",
          "type": "uint8"
        },
        {
          "indexed": false,
          "internalType": "uint8",
          "name": "fourPoints",
          "type": "uint8"
        },
        {
          "indexed": false,
          "internalType": "uint8",
          "name": "fivePoints",
          "type": "uint8"
        }
      ],
      "name": "Reforged",
      "type": "event"
    },
    {
      "anonymous": false,
      "inputs": [
        {
          "indexed": true,
          "internalType": "address",
          "name": "owner",
          "type": "address"
        },
        {
          "indexed": true,
          "internalType": "uint256",
          "name": "reforged",
          "type": "uint256"
        },
        {
          "indexed": false,
          "internalType": "uint8",
          "name": "lowDust",
          "type": "uint8"
        },
        {
          "indexed": false,
          "internalType": "uint8",
          "name": "fourDust",
          "type": "uint8"
        },
        {
          "indexed": false,
          "internalType": "uint8",
          "name": "fiveDust",
          "type": "uint8"
        },
        {
          "indexed": false,
          "internalType": "uint8",
          "name": "lowPoints",
          "type": "uint8"
        },
        {
          "indexed": false,
          "internalType": "uint8",
          "name": "fourPoints",
          "type": "uint8"
        },
        {
          "indexed": false,
          "internalType": "uint8",
          "name": "fivePoints",
          "type": "uint8"
        }
      ],
      "name": "ReforgedWithDust",
      "type": "event"
    },
    {
      "anonymous": false,
      "inputs": [
        {
          "indexed": true,
          "internalType": "bytes32",
          "name": "role",
          "type": "bytes32"
        },
        {
          "indexed": true,
          "internalType": "bytes32",
          "name": "previousAdminRole",
          "type": "bytes32"
        },
        {
          "indexed": true,
          "internalType": "bytes32",
          "name": "newAdminRole",
          "type": "bytes32"
        }
      ],
      "name": "RoleAdminChanged",
      "type": "event"
    },
    {
      "anonymous": false,
      "inputs": [
        {
          "indexed": true,
          "internalType": "bytes32",
          "name": "role",
          "type": "bytes32"
        },
        {
          "indexed": true,
          "internalType": "address",
          "name": "account",
          "type": "address"
        },
        {
          "indexed": true,
          "internalType": "address",
          "name": "sender",
          "type": "address"
        }
      ],
      "name": "RoleGranted",
      "type": "event"
    },
    {
      "anonymous": false,
      "inputs": [
        {
          "indexed": true,
          "internalType": "bytes32",
          "name": "role",
          "type": "bytes32"
        },
        {
          "indexed": true,
          "internalType": "address",
          "name": "account",
          "type": "address"
        },
        {
          "indexed": true,
          "internalType": "address",
          "name": "sender",
          "type": "address"
        }
      ],
      "name": "RoleRevoked",
      "type": "event"
    },
    {
      "anonymous": false,
      "inputs": [
        {
          "indexed": true,
          "internalType": "address",
          "name": "from",
          "type": "address"
        },
        {
          "indexed": true,
          "internalType": "address",
          "name": "to",
          "type": "address"
        },
        {
          "indexed": true,
          "internalType": "uint256",
          "name": "tokenId",
          "type": "uint256"
        }
      ],
      "name": "Transfer",
      "type": "event"
    },
    {
      "inputs": [],
      "name": "DEFAULT_ADMIN_ROLE",
      "outputs": [
        {
          "internalType": "bytes32",
          "name": "",
          "type": "bytes32"
        }
      ],
      "stateMutability": "view",
      "type": "function",
      "constant": true
    },
    {
      "inputs": [],
      "name": "GAME_ADMIN",
      "outputs": [
        {
          "internalType": "bytes32",
          "name": "",
          "type": "bytes32"
        }
      ],
      "stateMutability": "view",
      "type": "function",
      "constant": true
    },
    {
      "inputs": [],
      "name": "RECEIVE_DOES_NOT_SET_TRANSFER_TIMESTAMP",
      "outputs": [
        {
          "internalType": "bytes32",
          "name": "",
          "type": "bytes32"
        }
      ],
      "stateMutability": "view",
      "type": "function",
      "constant": true
    },
    {
      "inputs": [
        {
          "internalType": "address",
          "name": "to",
          "type": "address"
        },
        {
          "internalType": "uint256",
          "name": "tokenId",
          "type": "uint256"
        }
      ],
      "name": "approve",
      "outputs": [],
      "stateMutability": "nonpayable",
      "type": "function"
    },
    {
      "inputs": [
        {
          "internalType": "address",
          "name": "owner",
          "type": "address"
        }
      ],
      "name": "balanceOf",
      "outputs": [
        {
          "internalType": "uint256",
          "name": "",
          "type": "uint256"
        }
      ],
      "stateMutability": "view",
      "type": "function",
      "constant": true
    },
    {
      "inputs": [],
      "name": "baseURI",
      "outputs": [
        {
          "internalType": "string",
          "name": "",
          "type": "string"
        }
      ],
      "stateMutability": "view",
      "type": "function",
      "constant": true
    },
    {
      "inputs": [],
      "name": "burnPointMultiplier",
      "outputs": [
        {
          "internalType": "uint256",
          "name": "",
          "type": "uint256"
        }
      ],
      "stateMutability": "view",
      "type": "function",
      "constant": true
    },
    {
      "inputs": [],
      "name": "fiveStarBurnPowerPerPoint",
      "outputs": [
        {
          "internalType": "uint256",
          "name": "",
          "type": "uint256"
        }
      ],
      "stateMutability": "view",
      "type": "function",
      "constant": true
    },
    {
      "inputs": [],
      "name": "fourStarBurnPowerPerPoint",
      "outputs": [
        {
          "internalType": "uint256",
          "name": "",
          "type": "uint256"
        }
      ],
      "stateMutability": "view",
      "type": "function",
      "constant": true
    },
    {
      "inputs": [
        {
          "internalType": "uint256",
          "name": "tokenId",
          "type": "uint256"
        }
      ],
      "name": "getApproved",
      "outputs": [
        {
          "internalType": "address",
          "name": "",
          "type": "address"
        }
      ],
      "stateMutability": "view",
      "type": "function",
      "constant": true
    },
    {
      "inputs": [
        {
          "internalType": "bytes32",
          "name": "role",
          "type": "bytes32"
        }
      ],
      "name": "getRoleAdmin",
      "outputs": [
        {
          "internalType": "bytes32",
          "name": "",
          "type": "bytes32"
        }
      ],
      "stateMutability": "view",
      "type": "function",
      "constant": true
    },
    {
      "inputs": [
        {
          "internalType": "bytes32",
          "name": "role",
          "type": "bytes32"
        },
        {
          "internalType": "uint256",
          "name": "index",
          "type": "uint256"
        }
      ],
      "name": "getRoleMember",
      "outputs": [
        {
          "internalType": "address",
          "name": "",
          "type": "address"
        }
      ],
      "stateMutability": "view",
      "type": "function",
      "constant": true
    },
    {
      "inputs": [
        {
          "internalType": "bytes32",
          "name": "role",
          "type": "bytes32"
        }
      ],
      "name": "getRoleMemberCount",
      "outputs": [
        {
          "internalType": "uint256",
          "name": "",
          "type": "uint256"
        }
      ],
      "stateMutability": "view",
      "type": "function",
      "constant": true
    },
    {
      "inputs": [
        {
          "internalType": "bytes32",
          "name": "role",
          "type": "bytes32"
        },
        {
          "internalType": "address",
          "name": "account",
          "type": "address"
        }
      ],
      "name": "grantRole",
      "outputs": [],
      "stateMutability": "nonpayable",
      "type": "function"
    },
    {
      "inputs": [
        {
          "internalType": "bytes32",
          "name": "role",
          "type": "bytes32"
        },
        {
          "internalType": "address",
          "name": "account",
          "type": "address"
        }
      ],
      "name": "hasRole",
      "outputs": [
        {
          "internalType": "bool",
          "name": "",
          "type": "bool"
        }
      ],
      "stateMutability": "view",
      "type": "function",
      "constant": true
    },
    {
      "inputs": [
        {
          "internalType": "address",
          "name": "owner",
          "type": "address"
        },
        {
          "internalType": "address",
          "name": "operator",
          "type": "address"
        }
      ],
      "name": "isApprovedForAll",
      "outputs": [
        {
          "internalType": "bool",
          "name": "",
          "type": "bool"
        }
      ],
      "stateMutability": "view",
      "type": "function",
      "constant": true
    },
    {
      "inputs": [
        {
          "internalType": "uint256",
          "name": "",
          "type": "uint256"
        }
      ],
      "name": "lastTransferTimestamp",
      "outputs": [
        {
          "internalType": "uint256",
          "name": "",
          "type": "uint256"
        }
      ],
      "stateMutability": "view",
      "type": "function",
      "constant": true
    },
    {
      "inputs": [],
      "name": "lowStarBurnPowerPerPoint",
      "outputs": [
        {
          "internalType": "uint256",
          "name": "",
          "type": "uint256"
        }
      ],
      "stateMutability": "view",
      "type": "function",
      "constant": true
    },
    {
      "inputs": [],
      "name": "maxDurability",
      "outputs": [
        {
          "internalType": "uint256",
          "name": "",
          "type": "uint256"
        }
      ],
      "stateMutability": "view",
      "type": "function",
      "constant": true
    },
    {
      "inputs": [],
      "name": "name",
      "outputs": [
        {
          "internalType": "string",
          "name": "",
          "type": "string"
        }
      ],
      "stateMutability": "view",
      "type": "function",
      "constant": true
    },
    {
      "inputs": [],
      "name": "oneFrac",
      "outputs": [
        {
          "internalType": "int128",
          "name": "",
          "type": "int128"
        }
      ],
      "stateMutability": "view",
      "type": "function",
      "constant": true
    },
    {
      "inputs": [
        {
          "internalType": "uint256",
          "name": "tokenId",
          "type": "uint256"
        }
      ],
      "name": "ownerOf",
      "outputs": [
        {
          "internalType": "address",
          "name": "",
          "type": "address"
        }
      ],
      "stateMutability": "view",
      "type": "function",
      "constant": true
    },
    {
      "inputs": [],
      "name": "powerMultPerPointBasic",
      "outputs": [
        {
          "internalType": "int128",
          "name": "",
          "type": "int128"
        }
      ],
      "stateMutability": "view",
      "type": "function",
      "constant": true
    },
    {
      "inputs": [],
      "name": "powerMultPerPointMatching",
      "outputs": [
        {
          "internalType": "int128",
          "name": "",
          "type": "int128"
        }
      ],
      "stateMutability": "view",
      "type": "function",
      "constant": true
    },
    {
      "inputs": [],
      "name": "powerMultPerPointPWR",
      "outputs": [
        {
          "internalType": "int128",
          "name": "",
          "type": "int128"
        }
      ],
      "stateMutability": "view",
      "type": "function",
      "constant": true
    },
    {
      "inputs": [
        {
          "internalType": "bytes32",
          "name": "role",
          "type": "bytes32"
        },
        {
          "internalType": "address",
          "name": "account",
          "type": "address"
        }
      ],
      "name": "renounceRole",
      "outputs": [],
      "stateMutability": "nonpayable",
      "type": "function"
    },
    {
      "inputs": [
        {
          "internalType": "bytes32",
          "name": "role",
          "type": "bytes32"
        },
        {
          "internalType": "address",
          "name": "account",
          "type": "address"
        }
      ],
      "name": "revokeRole",
      "outputs": [],
      "stateMutability": "nonpayable",
      "type": "function"
    },
    {
      "inputs": [
        {
          "internalType": "address",
          "name": "from",
          "type": "address"
        },
        {
          "internalType": "address",
          "name": "to",
          "type": "address"
        },
        {
          "internalType": "uint256",
          "name": "tokenId",
          "type": "uint256"
        }
      ],
      "name": "safeTransferFrom",
      "outputs": [],
      "stateMutability": "nonpayable",
      "type": "function"
    },
    {
      "inputs": [
        {
          "internalType": "address",
          "name": "from",
          "type": "address"
        },
        {
          "internalType": "address",
          "name": "to",
          "type": "address"
        },
        {
          "internalType": "uint256",
          "name": "tokenId",
          "type": "uint256"
        },
        {
          "internalType": "bytes",
          "name": "_data",
          "type": "bytes"
        }
      ],
      "name": "safeTransferFrom",
      "outputs": [],
      "stateMutability": "nonpayable",
      "type": "function"
    },
    {
      "inputs": [],
      "name": "secondsPerDurability",
      "outputs": [
        {
          "internalType": "uint256",
          "name": "",
          "type": "uint256"
        }
      ],
      "stateMutability": "view",
      "type": "function",
      "constant": true
    },
    {
      "inputs": [
        {
          "internalType": "address",
          "name": "operator",
          "type": "address"
        },
        {
          "internalType": "bool",
          "name": "approved",
          "type": "bool"
        }
      ],
      "name": "setApprovalForAll",
      "outputs": [],
      "stateMutability": "nonpayable",
      "type": "function"
    },
    {
      "inputs": [
        {
          "internalType": "bytes4",
          "name": "interfaceId",
          "type": "bytes4"
        }
      ],
      "name": "supportsInterface",
      "outputs": [
        {
          "internalType": "bool",
          "name": "",
          "type": "bool"
        }
      ],
      "stateMutability": "view",
      "type": "function",
      "constant": true
    },
    {
      "inputs": [],
      "name": "symbol",
      "outputs": [
        {
          "internalType": "string",
          "name": "",
          "type": "string"
        }
      ],
      "stateMutability": "view",
      "type": "function",
      "constant": true
    },
    {
      "inputs": [
        {
          "internalType": "uint256",
          "name": "index",
          "type": "uint256"
        }
      ],
      "name": "tokenByIndex",
      "outputs": [
        {
          "internalType": "uint256",
          "name": "",
          "type": "uint256"
        }
      ],
      "stateMutability": "view",
      "type": "function",
      "constant": true
    },
    {
      "inputs": [
        {
          "internalType": "address",
          "name": "owner",
          "type": "address"
        },
        {
          "internalType": "uint256",
          "name": "index",
          "type": "uint256"
        }
      ],
      "name": "tokenOfOwnerByIndex",
      "outputs": [
        {
          "internalType": "uint256",
          "name": "",
          "type": "uint256"
        }
      ],
      "stateMutability": "view",
      "type": "function",
      "constant": true
    },
    {
      "inputs": [
        {
          "internalType": "uint256",
          "name": "tokenId",
          "type": "uint256"
        }
      ],
      "name": "tokenURI",
      "outputs": [
        {
          "internalType": "string",
          "name": "",
          "type": "string"
        }
      ],
      "stateMutability": "view",
      "type": "function",
      "constant": true
    },
    {
      "inputs": [],
      "name": "totalSupply",
      "outputs": [
        {
          "internalType": "uint256",
          "name": "",
          "type": "uint256"
        }
      ],
      "stateMutability": "view",
      "type": "function",
      "constant": true
    },
    {
      "inputs": [
        {
          "internalType": "address",
          "name": "from",
          "type": "address"
        },
        {
          "internalType": "address",
          "name": "to",
          "type": "address"
        },
        {
          "internalType": "uint256",
          "name": "tokenId",
          "type": "uint256"
        }
      ],
      "name": "transferFrom",
      "outputs": [],
      "stateMutability": "nonpayable",
      "type": "function"
    },
    {
      "inputs": [],
      "name": "initialize",
      "outputs": [],
      "stateMutability": "nonpayable",
      "type": "function"
    },
    {
      "inputs": [],
      "name": "migrateTo_e55d8c5",
      "outputs": [],
      "stateMutability": "nonpayable",
      "type": "function"
    },
    {
      "inputs": [],
      "name": "migrateTo_aa9da90",
      "outputs": [],
      "stateMutability": "nonpayable",
      "type": "function"
    },
    {
      "inputs": [],
      "name": "migrateTo_951a020",
      "outputs": [],
      "stateMutability": "nonpayable",
      "type": "function"
    },
    {
      "inputs": [
        {
          "internalType": "uint256",
          "name": "id",
          "type": "uint256"
        }
      ],
      "name": "get",
      "outputs": [
        {
          "internalType": "uint16",
          "name": "_properties",
          "type": "uint16"
        },
        {
          "internalType": "uint16",
          "name": "_stat1",
          "type": "uint16"
        },
        {
          "internalType": "uint16",
          "name": "_stat2",
          "type": "uint16"
        },
        {
          "internalType": "uint16",
          "name": "_stat3",
          "type": "uint16"
        },
        {
          "internalType": "uint8",
          "name": "_level",
          "type": "uint8"
        },
        {
          "internalType": "uint8",
          "name": "_blade",
          "type": "uint8"
        },
        {
          "internalType": "uint8",
          "name": "_crossguard",
          "type": "uint8"
        },
        {
          "internalType": "uint8",
          "name": "_grip",
          "type": "uint8"
        },
        {
          "internalType": "uint8",
          "name": "_pommel",
          "type": "uint8"
        },
        {
          "internalType": "uint24",
          "name": "_burnPoints",
          "type": "uint24"
        },
        {
          "internalType": "uint24",
          "name": "_bonusPower",
          "type": "uint24"
        }
      ],
      "stateMutability": "view",
      "type": "function",
      "constant": true
    },
    {
      "inputs": [
        {
          "internalType": "address",
          "name": "minter",
          "type": "address"
        },
        {
          "internalType": "uint256",
          "name": "seed",
          "type": "uint256"
        }
      ],
      "name": "mint",
      "outputs": [
        {
          "internalType": "uint256",
          "name": "",
          "type": "uint256"
        }
      ],
      "stateMutability": "nonpayable",
      "type": "function"
    },
    {
      "inputs": [
        {
          "internalType": "address",
          "name": "minter",
          "type": "address"
        },
        {
          "internalType": "uint256",
          "name": "stars",
          "type": "uint256"
        },
        {
          "internalType": "uint256",
          "name": "seed",
          "type": "uint256"
        }
      ],
      "name": "mintWeaponWithStars",
      "outputs": [
        {
          "internalType": "uint256",
          "name": "",
          "type": "uint256"
        }
      ],
      "stateMutability": "nonpayable",
      "type": "function"
    },
    {
      "inputs": [
        {
          "internalType": "address",
          "name": "minter",
          "type": "address"
        },
        {
          "internalType": "uint16",
          "name": "properties",
          "type": "uint16"
        },
        {
          "internalType": "uint16",
          "name": "stat1",
          "type": "uint16"
        },
        {
          "internalType": "uint16",
          "name": "stat2",
          "type": "uint16"
        },
        {
          "internalType": "uint16",
          "name": "stat3",
          "type": "uint16"
        },
        {
          "internalType": "uint256",
          "name": "cosmeticSeed",
          "type": "uint256"
        }
      ],
      "name": "performMintWeapon",
      "outputs": [
        {
          "internalType": "uint256",
          "name": "",
          "type": "uint256"
        }
      ],
      "stateMutability": "nonpayable",
      "type": "function"
    },
    {
      "inputs": [
        {
          "internalType": "uint256",
          "name": "stars",
          "type": "uint256"
        },
        {
          "internalType": "uint256",
          "name": "seed",
          "type": "uint256"
        }
      ],
      "name": "getRandomProperties",
      "outputs": [
        {
          "internalType": "uint16",
          "name": "",
          "type": "uint16"
        }
      ],
      "stateMutability": "pure",
      "type": "function",
      "constant": true
    },
    {
      "inputs": [
        {
          "internalType": "uint16",
          "name": "minRoll",
          "type": "uint16"
        },
        {
          "internalType": "uint16",
          "name": "maxRoll",
          "type": "uint16"
        },
        {
          "internalType": "uint256",
          "name": "seed",
          "type": "uint256"
        },
        {
          "internalType": "uint256",
          "name": "seed2",
          "type": "uint256"
        }
      ],
      "name": "getRandomStat",
      "outputs": [
        {
          "internalType": "uint16",
          "name": "",
          "type": "uint16"
        }
      ],
      "stateMutability": "pure",
      "type": "function",
      "constant": true
    },
    {
      "inputs": [
        {
          "internalType": "uint256",
          "name": "seed",
          "type": "uint256"
        },
        {
          "internalType": "uint256",
          "name": "seed2",
          "type": "uint256"
        },
        {
          "internalType": "uint8",
          "name": "limit",
          "type": "uint8"
        }
      ],
      "name": "getRandomCosmetic",
      "outputs": [
        {
          "internalType": "uint8",
          "name": "",
          "type": "uint8"
        }
      ],
      "stateMutability": "pure",
      "type": "function",
      "constant": true
    },
    {
      "inputs": [
        {
          "internalType": "uint256",
          "name": "stars",
          "type": "uint256"
        }
      ],
      "name": "getStatMinRoll",
      "outputs": [
        {
          "internalType": "uint16",
          "name": "",
          "type": "uint16"
        }
      ],
      "stateMutability": "pure",
      "type": "function",
      "constant": true
    },
    {
      "inputs": [
        {
          "internalType": "uint256",
          "name": "stars",
          "type": "uint256"
        }
      ],
      "name": "getStatMaxRoll",
      "outputs": [
        {
          "internalType": "uint16",
          "name": "",
          "type": "uint16"
        }
      ],
      "stateMutability": "pure",
      "type": "function",
      "constant": true
    },
    {
      "inputs": [
        {
          "internalType": "uint256",
          "name": "stars",
          "type": "uint256"
        }
      ],
      "name": "getStatCount",
      "outputs": [
        {
          "internalType": "uint8",
          "name": "",
          "type": "uint8"
        }
      ],
      "stateMutability": "pure",
      "type": "function",
      "constant": true
    },
    {
      "inputs": [
        {
          "internalType": "uint256",
          "name": "id",
          "type": "uint256"
        }
      ],
      "name": "getProperties",
      "outputs": [
        {
          "internalType": "uint16",
          "name": "",
          "type": "uint16"
        }
      ],
      "stateMutability": "view",
      "type": "function",
      "constant": true
    },
    {
      "inputs": [
        {
          "internalType": "uint256",
          "name": "id",
          "type": "uint256"
        }
      ],
      "name": "getStars",
      "outputs": [
        {
          "internalType": "uint8",
          "name": "",
          "type": "uint8"
        }
      ],
      "stateMutability": "view",
      "type": "function",
      "constant": true
    },
    {
      "inputs": [
        {
          "internalType": "uint16",
          "name": "properties",
          "type": "uint16"
        }
      ],
      "name": "getStarsFromProperties",
      "outputs": [
        {
          "internalType": "uint8",
          "name": "",
          "type": "uint8"
        }
      ],
      "stateMutability": "pure",
      "type": "function",
      "constant": true
    },
    {
      "inputs": [
        {
          "internalType": "uint256",
          "name": "id",
          "type": "uint256"
        }
      ],
      "name": "getTrait",
      "outputs": [
        {
          "internalType": "uint8",
          "name": "",
          "type": "uint8"
        }
      ],
      "stateMutability": "view",
      "type": "function",
      "constant": true
    },
    {
      "inputs": [
        {
          "internalType": "uint16",
          "name": "properties",
          "type": "uint16"
        }
      ],
      "name": "getTraitFromProperties",
      "outputs": [
        {
          "internalType": "uint8",
          "name": "",
          "type": "uint8"
        }
      ],
      "stateMutability": "pure",
      "type": "function",
      "constant": true
    },
    {
      "inputs": [
        {
          "internalType": "uint256",
          "name": "id",
          "type": "uint256"
        }
      ],
      "name": "getStatPattern",
      "outputs": [
        {
          "internalType": "uint8",
          "name": "",
          "type": "uint8"
        }
      ],
      "stateMutability": "view",
      "type": "function",
      "constant": true
    },
    {
      "inputs": [
        {
          "internalType": "uint16",
          "name": "properties",
          "type": "uint16"
        }
      ],
      "name": "getStatPatternFromProperties",
      "outputs": [
        {
          "internalType": "uint8",
          "name": "",
          "type": "uint8"
        }
      ],
      "stateMutability": "pure",
      "type": "function",
      "constant": true
    },
    {
      "inputs": [
        {
          "internalType": "uint8",
          "name": "statPattern",
          "type": "uint8"
        }
      ],
      "name": "getStat1Trait",
      "outputs": [
        {
          "internalType": "uint8",
          "name": "",
          "type": "uint8"
        }
      ],
      "stateMutability": "pure",
      "type": "function",
      "constant": true
    },
    {
      "inputs": [
        {
          "internalType": "uint8",
          "name": "statPattern",
          "type": "uint8"
        }
      ],
      "name": "getStat2Trait",
      "outputs": [
        {
          "internalType": "uint8",
          "name": "",
          "type": "uint8"
        }
      ],
      "stateMutability": "pure",
      "type": "function",
      "constant": true
    },
    {
      "inputs": [
        {
          "internalType": "uint8",
          "name": "statPattern",
          "type": "uint8"
        }
      ],
      "name": "getStat3Trait",
      "outputs": [
        {
          "internalType": "uint8",
          "name": "",
          "type": "uint8"
        }
      ],
      "stateMutability": "pure",
      "type": "function",
      "constant": true
    },
    {
      "inputs": [
        {
          "internalType": "uint256",
          "name": "id",
          "type": "uint256"
        }
      ],
      "name": "getLevel",
      "outputs": [
        {
          "internalType": "uint8",
          "name": "",
          "type": "uint8"
        }
      ],
      "stateMutability": "view",
      "type": "function",
      "constant": true
    },
    {
      "inputs": [
        {
          "internalType": "uint256",
          "name": "id",
          "type": "uint256"
        }
      ],
      "name": "getStat1",
      "outputs": [
        {
          "internalType": "uint16",
          "name": "",
          "type": "uint16"
        }
      ],
      "stateMutability": "view",
      "type": "function",
      "constant": true
    },
    {
      "inputs": [
        {
          "internalType": "uint256",
          "name": "id",
          "type": "uint256"
        }
      ],
      "name": "getStat2",
      "outputs": [
        {
          "internalType": "uint16",
          "name": "",
          "type": "uint16"
        }
      ],
      "stateMutability": "view",
      "type": "function",
      "constant": true
    },
    {
      "inputs": [
        {
          "internalType": "uint256",
          "name": "id",
          "type": "uint256"
        }
      ],
      "name": "getStat3",
      "outputs": [
        {
          "internalType": "uint16",
          "name": "",
          "type": "uint16"
        }
      ],
      "stateMutability": "view",
      "type": "function",
      "constant": true
    },
    {
      "inputs": [
        {
          "internalType": "uint256",
          "name": "id",
          "type": "uint256"
        }
      ],
      "name": "getPowerMultiplier",
      "outputs": [
        {
          "internalType": "int128",
          "name": "",
          "type": "int128"
        }
      ],
      "stateMutability": "view",
      "type": "function",
      "constant": true
    },
    {
      "inputs": [
        {
          "internalType": "uint16",
          "name": "properties",
          "type": "uint16"
        },
        {
          "internalType": "uint16",
          "name": "stat1",
          "type": "uint16"
        },
        {
          "internalType": "uint16",
          "name": "stat2",
          "type": "uint16"
        },
        {
          "internalType": "uint16",
          "name": "stat3",
          "type": "uint16"
        },
        {
          "internalType": "uint8",
          "name": "trait",
          "type": "uint8"
        }
      ],
      "name": "getPowerMultiplierForTrait",
      "outputs": [
        {
          "internalType": "int128",
          "name": "",
          "type": "int128"
        }
      ],
      "stateMutability": "view",
      "type": "function",
      "constant": true
    },
    {
      "inputs": [
        {
          "internalType": "address",
          "name": "playerAddress",
          "type": "address"
        }
      ],
      "name": "getDustSupplies",
      "outputs": [
        {
          "internalType": "uint32[]",
          "name": "",
          "type": "uint32[]"
        }
      ],
      "stateMutability": "view",
      "type": "function",
      "constant": true
    },
    {
      "inputs": [
        {
          "internalType": "uint256",
          "name": "burnID",
          "type": "uint256"
        }
      ],
      "name": "_calculateBurnValues",
      "outputs": [
        {
          "internalType": "uint8[]",
          "name": "",
          "type": "uint8[]"
        }
      ],
      "stateMutability": "view",
      "type": "function",
      "constant": true
    },
    {
      "inputs": [
        {
          "internalType": "uint256",
          "name": "burnID",
          "type": "uint256"
        }
      ],
      "name": "burn",
      "outputs": [],
      "stateMutability": "nonpayable",
      "type": "function"
    },
    {
      "inputs": [
        {
          "internalType": "uint256",
          "name": "reforgeID",
          "type": "uint256"
        },
        {
          "internalType": "uint256",
          "name": "burnID",
          "type": "uint256"
        }
      ],
      "name": "reforge",
      "outputs": [],
      "stateMutability": "nonpayable",
      "type": "function"
    },
    {
      "inputs": [
        {
          "internalType": "uint256",
          "name": "reforgeID",
          "type": "uint256"
        },
        {
          "internalType": "uint8",
          "name": "amountLB",
          "type": "uint8"
        },
        {
          "internalType": "uint8",
          "name": "amount4B",
          "type": "uint8"
        },
        {
          "internalType": "uint8",
          "name": "amount5B",
          "type": "uint8"
        }
      ],
      "name": "reforgeWithDust",
      "outputs": [],
      "stateMutability": "nonpayable",
      "type": "function"
    },
    {
      "inputs": [
        {
          "internalType": "uint256",
          "name": "id",
          "type": "uint256"
        }
      ],
      "name": "getBonusPower",
      "outputs": [
        {
          "internalType": "uint24",
          "name": "",
          "type": "uint24"
        }
      ],
      "stateMutability": "view",
      "type": "function",
      "constant": true
    },
    {
      "inputs": [
        {
          "internalType": "uint256",
          "name": "id",
          "type": "uint256"
        },
        {
          "internalType": "uint8",
          "name": "level",
          "type": "uint8"
        }
      ],
      "name": "getBonusPowerForFight",
      "outputs": [
        {
          "internalType": "uint24",
          "name": "",
          "type": "uint24"
        }
      ],
      "stateMutability": "view",
      "type": "function",
      "constant": true
    },
    {
      "inputs": [
        {
          "internalType": "uint256",
          "name": "id",
          "type": "uint256"
        },
        {
          "internalType": "uint8",
          "name": "charTrait",
          "type": "uint8"
        }
      ],
      "name": "getFightData",
      "outputs": [
        {
          "internalType": "int128",
          "name": "",
          "type": "int128"
        },
        {
          "internalType": "int128",
          "name": "",
          "type": "int128"
        },
        {
          "internalType": "uint24",
          "name": "",
          "type": "uint24"
        },
        {
          "internalType": "uint8",
          "name": "",
          "type": "uint8"
        }
      ],
      "stateMutability": "view",
      "type": "function",
      "constant": true
    },
    {
      "inputs": [
        {
          "internalType": "uint256",
          "name": "id",
          "type": "uint256"
        },
        {
          "internalType": "uint8",
          "name": "charTrait",
          "type": "uint8"
        },
        {
          "internalType": "uint8",
          "name": "drainAmount",
          "type": "uint8"
        }
      ],
      "name": "getFightDataAndDrainDurability",
      "outputs": [
        {
          "internalType": "int128",
          "name": "",
          "type": "int128"
        },
        {
          "internalType": "int128",
          "name": "",
          "type": "int128"
        },
        {
          "internalType": "uint24",
          "name": "",
          "type": "uint24"
        },
        {
          "internalType": "uint8",
          "name": "",
          "type": "uint8"
        }
      ],
      "stateMutability": "nonpayable",
      "type": "function"
    },
    {
      "inputs": [
        {
          "internalType": "uint256",
          "name": "id",
          "type": "uint256"
        },
        {
          "internalType": "uint8",
          "name": "amount",
          "type": "uint8"
        }
      ],
      "name": "drainDurability",
      "outputs": [],
      "stateMutability": "nonpayable",
      "type": "function"
    },
    {
      "inputs": [
        {
          "internalType": "uint256",
          "name": "multiplier",
          "type": "uint256"
        }
      ],
      "name": "setBurnPointMultiplier",
      "outputs": [],
      "stateMutability": "nonpayable",
      "type": "function"
    },
    {
      "inputs": [
        {
          "internalType": "uint256",
          "name": "powerPerBurnPoint",
          "type": "uint256"
        }
      ],
      "name": "setLowStarBurnPowerPerPoint",
      "outputs": [],
      "stateMutability": "nonpayable",
      "type": "function"
    },
    {
      "inputs": [
        {
          "internalType": "uint256",
          "name": "powerPerBurnPoint",
          "type": "uint256"
        }
      ],
      "name": "setFourStarBurnPowerPerPoint",
      "outputs": [],
      "stateMutability": "nonpayable",
      "type": "function"
    },
    {
      "inputs": [
        {
          "internalType": "uint256",
          "name": "powerPerBurnPoint",
          "type": "uint256"
        }
      ],
      "name": "setFiveStarBurnPowerPerPoint",
      "outputs": [],
      "stateMutability": "nonpayable",
      "type": "function"
    },
    {
      "inputs": [
        {
          "internalType": "uint256",
          "name": "id",
          "type": "uint256"
        }
      ],
      "name": "getDurabilityTimestamp",
      "outputs": [
        {
          "internalType": "uint64",
          "name": "",
          "type": "uint64"
        }
      ],
      "stateMutability": "view",
      "type": "function",
      "constant": true
    },
    {
      "inputs": [
        {
          "internalType": "uint256",
          "name": "id",
          "type": "uint256"
        },
        {
          "internalType": "uint64",
          "name": "timestamp",
          "type": "uint64"
        }
      ],
      "name": "setDurabilityTimestamp",
      "outputs": [],
      "stateMutability": "nonpayable",
      "type": "function"
    },
    {
      "inputs": [
        {
          "internalType": "uint256",
          "name": "id",
          "type": "uint256"
        }
      ],
      "name": "getDurabilityPoints",
      "outputs": [
        {
          "internalType": "uint8",
          "name": "",
          "type": "uint8"
        }
      ],
      "stateMutability": "view",
      "type": "function",
      "constant": true
    },
    {
      "inputs": [
        {
          "internalType": "uint64",
          "name": "timestamp",
          "type": "uint64"
        }
      ],
      "name": "getDurabilityPointsFromTimestamp",
      "outputs": [
        {
          "internalType": "uint8",
          "name": "",
          "type": "uint8"
        }
      ],
      "stateMutability": "view",
      "type": "function",
      "constant": true
    },
    {
      "inputs": [
        {
          "internalType": "uint256",
          "name": "id",
          "type": "uint256"
        }
      ],
      "name": "isDurabilityFull",
      "outputs": [
        {
          "internalType": "bool",
          "name": "",
          "type": "bool"
        }
      ],
      "stateMutability": "view",
      "type": "function",
      "constant": true
    },
    {
      "inputs": [],
      "name": "getDurabilityMaxWait",
      "outputs": [
        {
          "internalType": "uint64",
          "name": "",
          "type": "uint64"
        }
      ],
      "stateMutability": "pure",
      "type": "function",
      "constant": true
    }
  ],
  "bytecode": "0x608060405234801561001057600080fd5b50615b0e80620000216000396000f3fe608060405234801561001057600080fd5b50600436106104d85760003560e01c8063752fde9e11610283578063ae5d498e1161015c578063d58227c8116100ce578063e8d5fe4411610092578063e8d5fe44146110e3578063e985e9c514611133578063ecd4738b14611161578063f8e678a71461118d578063fa9b6e8714611195578063fa9e8398146111b2576104d8565b8063d58227c81461103c578063d9514cb314611062578063dfd371291461107f578063e06efad8146110a0578063e0760886146110bd576104d8565b8063c6a5108811610120578063c6a5108814610f4b578063c87b56dd14610f6b578063ca15c87314610f88578063cd69289614610fa5578063ce20b64214610fcb578063d547741f14611010576104d8565b8063ae5d498e14610dee578063b88d4fde14610e23578063c366620b14610ee7578063c394f9db14610f0b578063c47efcf614610f43576104d8565b806395d06a0f116101f5578063a217fddf116101b9578063a217fddf14610d50578063a22cb46514610d58578063a3b5ccb114610d86578063aa66377714610dac578063acb586df14610db4578063adf04f2014610dd1576104d8565b806395d06a0f14610cdf57806395d89b4114610d005780639abcafef14610d085780639d7c828b14610d2b578063a1570c8e14610d48576104d8565b80638c7f7242116102475780638c7f724214610bad5780638d1d1de414610bb55780639010d07c14610bd257806390e4e06c14610bf557806391d1485414610c275780639507d39a14610c53576104d8565b8063752fde9e14610af05780637d1a789414610af857806380aa68cd14610b655780638129fc1c14610b8857806386481d4014610b90576104d8565b8063316a7ba5116103b55780634c0647f611610327578063586064f3116102eb578063586064f314610a8d5780636352211e14610a955780636a4d521d14610ab25780636c0360eb14610aba57806370a0823114610ac25780637294510014610ae8576104d8565b80634c0647f614610a235780634f6ccce714610a2b5780634fbff6a214610a4857806352bc59ea14610a685780635504d3d214610a85576104d8565b80633f5e6180116103795780633f5e61801461091a57806340c10f191461092257806342842e0e1461094e57806342966c681461098457806344d59e0a146109a15780634b14027714610a06576104d8565b8063316a7ba51461088a57806333ee5a53146108a7578063350b7995146108af57806336568abe146108b75780633e68b604146108e3576104d8565b806323b872dd1161044e5780632a9f22f2116104125780632a9f22f2146107af5780632c3048a2146107cc5780632c3fc619146107e95780632f2ff15d146108155780632f745c5914610841578063308bdc6f1461086d576104d8565b806323b872dd14610705578063248a9ca31461073b57806324f7bb1b1461075857806327cd91de146107755780632a716b3c14610792576104d8565b8063095ea7b3116104a0578063095ea7b31461060e5780630a583a931461063a5780630a724cff1461067157806316f1daf61461069157806318160ddd146106b75780631b8ca217146106d1576104d8565b806301ffc9a7146104dd578063064187781461051857806306fdde0314610522578063081812fc1461059f578063083659eb146105d8575b600080fd5b610504600480360360208110156104f357600080fd5b50356001600160e01b0319166111cf565b604080519115158252519081900360200190f35b6105206111f2565b005b61052a61132a565b6040805160208082528351818301528351919283929083019185019080838360005b8381101561056457818101518382015260200161054c565b50505050905090810190601f1680156105915780820380516001836020036101000a031916815260200191505b509250505060405180910390f35b6105bc600480360360208110156105b557600080fd5b50356113c1565b604080516001600160a01b039092168252519081900360200190f35b6105f5600480360360208110156105ee57600080fd5b5035611423565b60408051600f92830b90920b8252519081900360200190f35b6105206004803603604081101561062457600080fd5b506001600160a01b03813516906020013561153e565b61065b6004803603602081101561065057600080fd5b503561ffff16611619565b6040805160ff9092168252519081900360200190f35b61065b6004803603602081101561068757600080fd5b503560ff1661161f565b61065b600480360360208110156106a757600080fd5b50356001600160401b031661163f565b6106bf61167d565b60408051918252519081900360200190f35b6106ee600480360360208110156106e757600080fd5b503561168e565b6040805161ffff9092168252519081900360200190f35b6105206004803603606081101561071b57600080fd5b506001600160a01b038135811691602081013590911690604001356116be565b6106bf6004803603602081101561075157600080fd5b5035611715565b61065b6004803603602081101561076e57600080fd5b503561172a565b6106ee6004803603602081101561078b57600080fd5b503561174e565b610520600480360360208110156107a857600080fd5b5035611785565b61065b600480360360208110156107c557600080fd5b503561183e565b6106ee600480360360208110156107e257600080fd5b5035611859565b610520600480360360408110156107ff57600080fd5b50803590602001356001600160401b031661188f565b6105206004803603604081101561082b57600080fd5b50803590602001356001600160a01b03166118c6565b6106bf6004803603604081101561085757600080fd5b506001600160a01b038135169060200135611932565b6105206004803603602081101561088357600080fd5b503561195a565b6106ee600480360360208110156108a057600080fd5b50356119e7565b6105f5611a33565b6106bf611a43565b610520600480360360408110156108cd57600080fd5b50803590602001356001600160a01b0316611a49565b6106ee600480360360808110156108f957600080fd5b5061ffff813581169160208101359091169060408101359060600135611aaa565b610520611ad3565b6106bf6004803603604081101561093857600080fd5b506001600160a01b038135169060200135611b31565b6105206004803603606081101561096457600080fd5b506001600160a01b03813581169160208101359091169060400135611ba2565b6105206004803603602081101561099a57600080fd5b5035611bbd565b6109cf600480360360608110156109b757600080fd5b5080359060ff60208201358116916040013516611cc5565b60408051600f95860b860b815293850b90940b602084015262ffffff9091168284015260ff16606082015290519081900360800190f35b61052060048036036020811015610a1c57600080fd5b5035611eb7565b6106bf611f5a565b6106bf60048036036020811015610a4157600080fd5b5035611f60565b61065b60048036036020811015610a5e57600080fd5b503560ff16611f7c565b61065b60048036036020811015610a7e57600080fd5b5035611f8e565b6106bf611faf565b6105f5611fd1565b6105bc60048036036020811015610aab57600080fd5b5035611fda565b6106bf612008565b61052a612023565b6106bf60048036036020811015610ad857600080fd5b50356001600160a01b0316612084565b6106bf6120ec565b6105206120f2565b610b1560048036036020811015610b0e57600080fd5b503561214c565b60408051602080825283518183015283519192839290830191858101910280838360005b83811015610b51578181015183820152602001610b39565b505050509050019250505060405180910390f35b6106ee60048036036040811015610b7b57600080fd5b50803590602001356122d3565b610520612315565b61065b60048036036020811015610ba657600080fd5b503561241a565b6106bf612450565b61052060048036036020811015610bcb57600080fd5b5035612456565b6105bc60048036036040811015610be857600080fd5b50803590602001356124e3565b6106bf60048036036060811015610c0b57600080fd5b506001600160a01b038135169060208101359060400135612501565b61050460048036036040811015610c3d57600080fd5b50803590602001356001600160a01b031661258b565b610c7060048036036020811015610c6957600080fd5b50356125a9565b6040805161ffff9c8d1681529a8c1660208c0152988b168a8a015296909916606089015260ff948516608089015292841660a088015290831660c0870152821660e08601521661010084015262ffffff9384166101208401529092166101408201529051908190036101600190f35b61065b60048036036020811015610cf557600080fd5b503561ffff166125f3565b61052a6125fc565b61052060048036036040811015610d1e57600080fd5b508035906020013561265d565b6106bf60048036036020811015610d4157600080fd5b5035612741565b6106bf612753565b6106bf612759565b61052060048036036040811015610d6e57600080fd5b506001600160a01b038135169060200135151561275e565b610b1560048036036020811015610d9c57600080fd5b50356001600160a01b0316612863565b6105f5612927565b61065b60048036036020811015610dca57600080fd5b5035612930565b61065b60048036036020811015610de757600080fd5b503561294d565b610e0b60048036036020811015610e0457600080fd5b503561296a565b6040805162ffffff9092168252519081900360200190f35b61052060048036036080811015610e3957600080fd5b6001600160a01b03823581169260208101359091169160408201359190810190608081016060820135600160201b811115610e7357600080fd5b820183602082011115610e8557600080fd5b803590602001918460018302840111600160201b83111715610ea657600080fd5b91908080601f0160208091040260200160405190810160405280939291908181526020018383808284376000920191909152509295506129ac945050505050565b610eef612a0a565b604080516001600160401b039092168252519081900360200190f35b61052060048036036080811015610f2157600080fd5b5080359060ff6020820135811691604081013582169160609091013516612a10565b6105f5612af4565b61065b60048036036020811015610f6157600080fd5b503560ff16612b04565b61052a60048036036020811015610f8157600080fd5b5035612b11565b6106bf60048036036020811015610f9e57600080fd5b5035612d94565b610e0b60048036036040811015610fbb57600080fd5b508035906020013560ff16612dab565b6105f5600480360360a0811015610fe157600080fd5b50803561ffff90811691602081013582169160408201358116916060810135909116906080013560ff16612e36565b6105206004803603604081101561102657600080fd5b50803590602001356001600160a01b0316613012565b6109cf6004803603604081101561105257600080fd5b508035906020013560ff1661306b565b610eef6004803603602081101561107857600080fd5b5035613136565b61065b6004803603602081101561109557600080fd5b503561ffff16613151565b6106ee600480360360208110156110b657600080fd5b503561315a565b610520600480360360408110156110d357600080fd5b508035906020013560ff16613191565b6106bf600480360360c08110156110f957600080fd5b506001600160a01b038135169061ffff60208201358116916040810135821691606082013581169160808101359091169060a001356132a4565b6105046004803603604081101561114957600080fd5b506001600160a01b03813581169160200135166134c3565b61065b6004803603606081101561117757600080fd5b508035906020810135906040013560ff166134f1565b6106bf613506565b610504600480360360208110156111ab57600080fd5b503561350b565b6106ee600480360360208110156111c857600080fd5b5035613523565b6001600160e01b0319811660009081526033602052604090205460ff165b919050565b6111fd60003361258b565b61123a576040805162461bcd60e51b81526020600482015260096024820152682737ba1030b236b4b760b91b604482015290519081900360640190fd5b611244600161354e565b60d08054600f9290920b6001600160801b03166001600160801b0319909216919091179055611276600161019061356c565b60d060106101000a8154816001600160801b030219169083600f0b6001600160801b031602179055506112cb6112ae6067606461356c565b60d054600160801b9004600f90810b900b9063ffffffff6135a316565b60d18054600f9290920b6001600160801b03166001600160801b03199092169190911790556112ff6112ae606b606461356c565b60d160106101000a8154816001600160801b030219169083600f0b6001600160801b03160217905550565b606a8054604080516020601f60026000196101006001881615020190951694909404938401819004810282018101909252828152606093909290918301828280156113b65780601f1061138b576101008083540402835291602001916113b6565b820191906000526020600020905b81548152906001019060200180831161139957829003601f168201915b505050505090505b90565b60006113cc826135da565b6114075760405162461bcd60e51b815260040180806020018281038252602c815260200180615948602c913960400191505060405180910390fd5b506000908152606860205260409020546001600160a01b031690565b60008161142f816135ed565b6114376155a4565b60c9848154811061144457fe5b600091825260208083206040805160a081018252939091015461ffff8082168552620100008204811693850193909352600160201b8104831691840191909152600160301b81049091166060830152600160401b900460ff16608082015291506114b1600161019061356c565b905060006114d9826114ca856020015161ffff1661354e565b600f0b9063ffffffff6135a316565b905060006114f2836114ca866040015161ffff1661354e565b9050600061150b846114ca876060015161ffff1661354e565b9050611532816115238461152387611523600161354e565b600f0b9063ffffffff61364616565b98975050505050505050565b600061154982611fda565b9050806001600160a01b0316836001600160a01b0316141561159c5760405162461bcd60e51b81526004018080602001828103825260218152602001806159cc6021913960400191505060405180910390fd5b806001600160a01b03166115ae613679565b6001600160a01b031614806115cf57506115cf816115ca613679565b6134c3565b61160a5760405162461bcd60e51b815260040180806020018281038252603881526020018061582b6038913960400191505060405180910390fd5b611614838361367d565b505050565b60071690565b600060056116318360ff1660196136eb565b8161163857fe5b0692915050565b600042826001600160401b0316111561165a575060006111ed565b610bb86001600160401b0383164203046014811115611677575060145b92915050565b60006116896066613752565b905090565b60008161169a816135ed565b60c983815481106116a757fe5b60009182526020909120015461ffff169392505050565b6116cf6116c9613679565b8261375d565b61170a5760405162461bcd60e51b81526004018080602001828103825260318152602001806159ed6031913960400191505060405180910390fd5b6116148383836137f9565b60009081526097602052604090206002015490565b600081611736816135ed565b6117476117428461168e565b613151565b9392505050565b60008161175a816135ed565b60c9838154811061176757fe5b600091825260209091200154600160301b900461ffff169392505050565b61178d613957565b60018110156117e3576040805162461bcd60e51b815260206004820152601b60248201527f4275726e506f696e744d756c7469706c69657220746f6f206c6f770000000000604482015290519081900360640190fd5b6005811115611839576040805162461bcd60e51b815260206004820152601c60248201527f4275726e506f696e744d756c7469706c69657220746f6f206869676800000000604482015290519081900360640190fd5b60cc55565b60006003821015611851575060016111ed565b506000190190565b600081611865816135ed565b60c9838154811061187257fe5b60009182526020909120015462010000900461ffff169392505050565b611897613957565b600091825260d56020526040909120805467ffffffffffffffff19166001600160401b03909216919091179055565b6000828152609760205260409020600201546118e9906118e4613679565b61258b565b6119245760405162461bcd60e51b815260040180806020018281038252602f815260200180615729602f913960400191505060405180910390fd5b61192e82826139c2565b5050565b6001600160a01b0382166000908152606560205260408120611747908363ffffffff613a3116565b611962613957565b60198110156119a25760405162461bcd60e51b8152600401808060200182810382526021815260200180615a406021913960400191505060405180910390fd5b60238111156119e25760405162461bcd60e51b8152600401808060200182810382526022815260200180615a1e6022913960400191505060405180910390fd5b60ce55565b6000816119f6575060046111ed565b8160011415611a07575060b46111ed565b8160021415611a1957506101186111ed565b8160031415611a2a575060c86111ed565b5061010c919050565b60d054600160801b9004600f0b81565b60ce5481565b611a51613679565b6001600160a01b0316816001600160a01b031614611aa05760405162461bcd60e51b815260040180806020018281038252602f815260200180615aaa602f913960400191505060405180910390fd5b61192e8282613a3d565b6000611ac88561ffff168561ffff16611ac38686613aac565b613ad8565b90505b949350505050565b611ade60003361258b565b611b1b576040805162461bcd60e51b81526020600482015260096024820152682737ba1030b236b4b760b91b604482015290519081900360640190fd5b600260cc55600f60cd55601e60ce55603c60cf55565b6000611b3b613957565b6000606483066001811015611b535760049150611b8e565b6006811015611b655760039150611b8e565b6015811015611b775760029150611b8e565b6038811015611b895760019150611b8e565b600091505b611b99858386612501565b95945050505050565b611614838383604051806020016040528060008152506129ac565b611bc5613957565b6060611bd08261214c565b90506000611bdd83611fda565b9050611c308183600081518110611bf057fe5b602002602001015160ff1684600181518110611c0857fe5b602002602001015160ff1685600281518110611c2057fe5b602002602001015160ff16613b42565b611c3983613caf565b611c8a8183600081518110611c4a57fe5b602002602001015160ff1684600181518110611c6257fe5b602002602001015160ff1685600281518110611c7a57fe5b602002602001015160ff16613d88565b60405183906001600160a01b038316907f696de425f79f4a40bc6d2122ca50507f0efbeabbff86a84871b7196ab8ea8df790600090a3505050565b600080600080611cd3613957565b86611cdd816135ed565b600088815260d56020526040812054611cfe906001600160401b031661163f565b90508660ff168160ff161015611d54576040805162461bcd60e51b81526020600482015260166024820152754e6f7420656e6f756768206475726162696c6974792160501b604482015290519081900360640190fd5b60ff808816610bb80290601490831610611db457806001600160401b0316611d7a612a0a565b60008c815260d560205260409020805467ffffffffffffffff19166001600160401b03928316420393909301909116919091179055611de3565b60008a815260d56020526040902080546001600160401b0380821684011667ffffffffffffffff199091161790555b600060c98b81548110611df257fe5b60009182526020909120018054909150611e4e90611e38906112ae9062010000810461ffff908116600160201b8304821601600160301b9092048116919091011661354e565b60d054600f90810b900b9063ffffffff61364616565b8154611e7c9061ffff80821691620100008104821691600160201b8204811691600160301b9004168f612e36565b8254611e93908e90600160401b900460ff16612dab565b8354611ea29061ffff166125f3565b97509750975097505050505093509350935093565b611ebf613957565b600a811015611f15576040805162461bcd60e51b815260206004820181905260248201527f4c6f77537461724275726e506f776572506572506f696e7420746f6f206c6f77604482015290519081900360640190fd5b6014811115611f555760405162461bcd60e51b81526004018080602001828103825260218152602001806159066021913960400191505060405180910390fd5b60cd55565b60cf5481565b600080611f7460668463ffffffff613e7316565b509392505050565b600060056116318360ff1660056136eb565b600081815260d56020526040812054611677906001600160401b031661163f565b604080516923a0a6a2afa0a226a4a760b11b8152905190819003600a01902081565b60d154600f0b81565b60006116778260405180606001604052806029815260200161588d602991396066919063ffffffff613e8f16565b604051806027615a8382396027019050604051809103902081565b606d8054604080516020601f60026000196101006001881615020190951694909404938401819004810282018101909252828152606093909290918301828280156113b65780601f1061138b576101008083540402835291602001916113b6565b60006001600160a01b0382166120cb5760405162461bcd60e51b815260040180806020018281038252602a815260200180615863602a913960400191505060405180910390fd5b6001600160a01b038216600090815260656020526040902061167790613752565b60cc5481565b6120fd60003361258b565b61213a576040805162461bcd60e51b81526020600482015260096024820152682737ba1030b236b4b760b91b604482015290519081900360640190fd5b61214a63398b9a5d60e21b613e9c565b565b6040805160038082526080820190925260609182919060208201838036833701905050600084815260cb6020526040902080549192509060029060ff90811660010116048260008151811061219d57fe5b60ff9283166020918202929092010152815460029161010090910481166001011604826001815181106121cc57fe5b60ff928316602091820292909201015281546002916201000090910481166001011604826002815181106121fc57fe5b602002602001019060ff16908160ff1681525050600060c9858154811061221f57fe5b60009182526020822001805490925061223b9061ffff16611619565b905060038160ff16101561227b578060010160ff1660cc54028460008151811061226157fe5b6020908102919091010180519190910160ff1690526122c9565b8060ff16600314156122975760cc548460018151811061226157fe5b8060ff16600414156122c95760cc54846002815181106122b357fe5b6020908102919091010180519190910160ff1690525b5091949350505050565b600060056122e96000607c611ac3866002613aac565b607f16901b600361230260006003611ac3876001613aac565b600316901b846007161717905092915050565b600054610100900460ff168061232e575061232e613f20565b8061233c575060005460ff16155b6123775760405162461bcd60e51b815260040180806020018281038252602e8152602001806158b6602e913960400191505060405180910390fd5b600054610100900460ff161580156123a2576000805460ff1961ff0019909116610100171660011790555b6123f26040518060400160405280601381526020017221b93cb83a37a13630b232b9903bb2b0b837b760691b8152506040518060400160405280600381526020016243425760e81b815250613f31565b6123fa613fee565b612405600033611924565b8015612417576000805461ff00191690555b50565b600081612426816135ed565b60c9838154811061243357fe5b600091825260209091200154600160401b900460ff169392505050565b610bb881565b61245e613957565b602881101561249e5760405162461bcd60e51b815260040180806020018281038252602181526020018061580a6021913960400191505060405180910390fd5b60508111156124de5760405162461bcd60e51b8152600401808060200182810382526022815260200180615a616022913960400191505060405180910390fd5b60cf55565b6000828152609760205260408120611747908363ffffffff613a3116565b600061250b613957565b6008831061254a5760405162461bcd60e51b81526004018080602001828103825260218152602001806156e66021913960400191505060405180910390fd5b6000806000612559868661408e565b9250925092506125808761256d88886122d3565b85858561257b8b6003613aac565b6132a4565b979650505050505050565b6000828152609760205260408120611747908363ffffffff61411616565b60008060008060008060008060008060008b6125c4816135ed565b6125cd8d61412b565b9b509b509b509b509b509b509b509b509b509b509b505091939597999b90929496989a50565b600390811c1690565b606b8054604080516020601f60026000196101006001881615020190951694909404938401819004810282018101909252828152606093909290918301828280156113b65780601f1061138b576101008083540402835291602001916113b6565b612665613957565b60606126708261214c565b90506126ba838260008151811061268357fe5b60200260200101518360018151811061269857fe5b6020026020010151846002815181106126ad57fe5b60200260200101516141e7565b6126c382613caf565b600083815260cb6020526040902082846126dc81611fda565b83546040805160ff80841682526101008404811660208301526201000090930490921682820152516001600160a01b0392909216917fd1b1d9a936fc3409b20503a5fd66b94b1c2a8b4986d01def5b9ef60272896e3c9181900360600190a450505050565b60d26020526000908152604090205481565b60cd5481565b600081565b612766613679565b6001600160a01b0316826001600160a01b031614156127cc576040805162461bcd60e51b815260206004820152601960248201527f4552433732313a20617070726f766520746f2063616c6c657200000000000000604482015290519081900360640190fd5b80606960006127d9613679565b6001600160a01b03908116825260208083019390935260409182016000908120918716808252919093529120805460ff19169215159290921790915561281d613679565b60408051841515815290516001600160a01b0392909216917f17307eab39ab6107e8899845ad3d59bd9653f200f220920489ca2b5937696c319181900360200190a35050565b6001600160a01b038116600090815260d660205260409081902054815160038082526080820190935260609283919081602001602082028036833701905050905081816000815181106128b257fe5b602002602001019063ffffffff16908163ffffffff1681525050602082901c816001815181106128de57fe5b602002602001019063ffffffff16908163ffffffff1681525050604082901c8160028151811061290a57fe5b63ffffffff90921660209283029190910190910152915050919050565b60d054600f0b81565b60008161293c816135ed565b6117476129488461168e565b6125f3565b600081612959816135ed565b6117476129658461168e565b611619565b600081612976816135ed565b600060c9848154811061298557fe5b906000526020600020019050611acb848260000160089054906101000a900460ff16612dab565b6129bd6129b7613679565b8361375d565b6129f85760405162461bcd60e51b81526004018080602001828103825260318152602001806159ed6031913960400191505060405180910390fd5b612a04848484846143d0565b50505050565b61ea6090565b612a18613957565b612a35612a2485611fda565b8460ff168460ff168460ff16614422565b612a41848484846141e7565b612a5e612a4d85611fda565b8460ff168460ff168460ff16614576565b600084815260cb6020526040902084612a7681611fda565b82546040805160ff808a16825280891660208301528088168284015280841660608301526101008404811660808301526201000090930490921660a0830152516001600160a01b0392909216917fd07aff3873e60e4df29e5f960d1422759a3ef9f5aa27eec562431cddcd9bba019181900360c00190a35050505050565b60d154600160801b9004600f0b81565b6000600560ff8316611638565b6060612b1c826135da565b612b575760405162461bcd60e51b815260040180806020018281038252602f81526020018061599d602f913960400191505060405180910390fd5b6000828152606c602090815260409182902080548351601f6002600019610100600186161502019093169290920491820184900484028101840190945280845260609392830182828015612bec5780601f10612bc157610100808354040283529160200191612bec565b820191906000526020600020905b815481529060010190602001808311612bcf57829003601f168201915b505050505090506060612bfd612023565b9050805160001415612c11575090506111ed565b815115612cd25780826040516020018083805190602001908083835b60208310612c4c5780518252601f199092019160209182019101612c2d565b51815160209384036101000a600019018019909216911617905285519190930192850191508083835b60208310612c945780518252601f199092019160209182019101612c75565b6001836020036101000a03801982511681845116808217855250505050505090500192505050604051602081830303815290604052925050506111ed565b80612cdc8561461e565b6040516020018083805190602001908083835b60208310612d0e5780518252601f199092019160209182019101612cef565b51815160209384036101000a600019018019909216911617905285519190930192850191508083835b60208310612d565780518252601f199092019160209182019101612d37565b6001836020036101000a0380198251168184511680821785525050505050509050019250505060405160208183030381529060405292505050919050565b600081815260976020526040812061167790613752565b600082612db7816135ed565b600084815260cb60205260409020611b99612ddc600f60ff871663ffffffff6146f816565b825460cf54612e2a91612df8919062010000900460ff166146f8565b845460ce54612e2a91612e139190610100900460ff166146f8565b865460cd54612e2a9160ff1663ffffffff6146f816565b9063ffffffff61475116565b600080612e4287613151565b60d054909150600f0b60ff8416612e5883612b04565b60ff161415612e9b5760d154612e9490612e8390600160801b9004600f0b6114ca61ffff8b1661354e565b600f83900b9063ffffffff61364616565b9050612eef565b612ea482612b04565b60ff1660041415612eca5760d154612e9490612e8390600f0b6114ca61ffff8b1661354e565b60d054612eec90612e8390600160801b9004600f0b6114ca61ffff8b1661354e565b90505b8360ff16612efc83611f7c565b60ff161415612f2e5760d154612f2790612e8390600160801b9004600f0b6114ca61ffff8a1661354e565b9050612f82565b612f3782611f7c565b60ff1660041415612f5d5760d154612f2790612e8390600f0b6114ca61ffff8a1661354e565b60d054612f7f90612e8390600160801b9004600f0b6114ca61ffff8a1661354e565b90505b8360ff16612f8f8361161f565b60ff161415612fc15760d154612fba90612e8390600160801b9004600f0b6114ca61ffff891661354e565b9050612580565b612fca8261161f565b60ff1660041415612ff05760d154612fba90612e8390600f0b6114ca61ffff891661354e565b60d05461153290612e8390600160801b9004600f0b6114ca61ffff891661354e565b600082815260976020526040902060020154613030906118e4613679565b611aa05760405162461bcd60e51b81526004018080602001828103825260308152602001806157da6030913960400191505060405180910390fd5b6000806000808561307b816135ed565b600060c9888154811061308a57fe5b600091825260209091200180549091506130d090611e38906112ae9062010000810461ffff908116600160201b8304821601600160301b9092048116919091011661354e565b81546130fe9061ffff80821691620100008104821691600160201b8204811691600160301b9004168c612e36565b8254613115908b90600160401b900460ff16612dab565b83546131249061ffff166125f3565b929b919a509850909650945050505050565b600090815260d560205260409020546001600160401b031690565b60051c607f1690565b600081613166816135ed565b60c9838154811061317357fe5b600091825260209091200154600160201b900461ffff169392505050565b613199613957565b600082815260d560205260408120546131ba906001600160401b031661163f565b90508160ff168160ff161015613210576040805162461bcd60e51b81526020600482015260166024820152754e6f7420656e6f756768206475726162696c6974792160501b604482015290519081900360640190fd5b60ff808316610bb8029060149083161061327057806001600160401b0316613236612a0a565b600086815260d560205260409020805467ffffffffffffffff19166001600160401b03928316420393909301909116919091179055612a04565b600084815260d56020526040902080546001600160401b0380821684011667ffffffffffffffff1990911617905550505050565b60006132ae613957565b60c95460d35443146132c05760d48190555b4360d3556040805160a08101825261ffff898116825288811660208084019182528983168486019081528984166060860190815260006080870181815260c980546001808201835591845298517f66be4f155c5ef2ebd3772b228f2f00681e4ed5826cdb3b1943cc11ad15ad1d289099018054975195519451925161ffff199098169989169990991763ffff0000191662010000958916959095029490941765ffff000000001916600160201b938816939093029290921767ffff0000000000001916600160301b92909616919091029490941768ff00000000000000001916600160401b60ff94851602179094558451808601909552828552840187815260ca8054948501815590925292517f42d72674974f694b5f5159593243114d38a5c39c89d6b62fee061ff523240ee16002909302928301805460ff1916919094161790925590517f42d72674974f694b5f5159593243114d38a5c39c89d6b62fee061ff523240ee29091015561343588826147ab565b613456613440612a0a565b42906001600160401b031663ffffffff6148e516565b600082815260d56020526040808220805467ffffffffffffffff19166001600160401b03949094169390931790925590516001600160a01b038a169183917fa90298fff9b7c2ea259d17bcbd0821ef6fe7d48b4f8fd9380d54ae299ee730449190a3979650505050505050565b6001600160a01b03918216600090815260696020908152604080832093909416825291909152205460ff1690565b6000611acb60008360ff16611ac38787613aac565b601481565b6000601461351883611f8e565b60ff16101592915050565b6000600182111561353757506101906111ed565b8115613546575061012c6111ed565b5060c8919050565b6000677fffffffffffffff82111561356557600080fd5b5060401b90565b60008161357857600080fd5b60006135848484614942565b905060016001607f1b036001600160801b038216111561174757600080fd5b6000600f83810b9083900b0260401d60016001607f1b031981128015906135d1575060016001607f1b038113155b61174757600080fd5b600061167760668363ffffffff614a8b16565b60d4548110806135fe57504360d354105b612417576040805162461bcd60e51b81526020600482015260146024820152730546f6f20667265736820666f72206c6f6f6b75760641b604482015290519081900360640190fd5b6000600f83810b9083900b0160016001607f1b031981128015906135d1575060016001607f1b0381131561174757600080fd5b3390565b600081815260686020526040902080546001600160a01b0319166001600160a01b03841690811790915581906136b282611fda565b6001600160a01b03167f8c5be1e5ebec7d5bd14f71427d1e84f3dd0314c0f7b2291e5b200ac8c7c3b92560405160405180910390a45050565b6000808211613741576040805162461bcd60e51b815260206004820152601a60248201527f536166654d6174683a206469766973696f6e206279207a65726f000000000000604482015290519081900360640190fd5b81838161374a57fe5b049392505050565b600061167782614a97565b6000613768826135da565b6137a35760405162461bcd60e51b815260040180806020018281038252602c8152602001806157ae602c913960400191505060405180910390fd5b60006137ae83611fda565b9050806001600160a01b0316846001600160a01b031614806137e95750836001600160a01b03166137de846113c1565b6001600160a01b0316145b80611acb5750611acb81856134c3565b826001600160a01b031661380c82611fda565b6001600160a01b0316146138515760405162461bcd60e51b81526004018080602001828103825260298152602001806159746029913960400191505060405180910390fd5b6001600160a01b0382166138965760405162461bcd60e51b815260040180806020018281038252602481526020018061578a6024913960400191505060405180910390fd5b6138a1838383611614565b6138ac60008261367d565b6001600160a01b03831660009081526065602052604090206138d4908263ffffffff614a9b16565b506001600160a01b03821660009081526065602052604090206138fd908263ffffffff614aa716565b506139106066828463ffffffff614ab316565b5080826001600160a01b0316846001600160a01b03167fddf252ad1be2c89b69c2b068fc378daa952ba7f163c4a11628f55a4df523b3ef60405160405180910390a4505050565b604080516923a0a6a2afa0a226a4a760b11b8152905190819003600a019020613980903361258b565b61214a576040805162461bcd60e51b815260206004820152600e60248201526d2737ba1033b0b6b29030b236b4b760911b604482015290519081900360640190fd5b60008281526097602052604090206139e0908263ffffffff614ac916565b1561192e576139ed613679565b6001600160a01b0316816001600160a01b0316837f2f8788117e7eff1d82e926ec794901d17c78024a50270940304540a733656f0d60405160405180910390a45050565b60006117478383614ade565b6000828152609760205260409020613a5b908263ffffffff614b4216565b1561192e57613a68613679565b6001600160a01b0316816001600160a01b0316837ff6391f5c32d9c69d2a47ea670b442974b53935d1edc7fd64eb21e047a839171b60405160405180910390a45050565b604080516020808201949094528082019290925280518083038201815260609092019052805191012090565b600080613af06001612e2a868863ffffffff6148e516565b6040805160208082018790528251808303820181529183019092528051910120909150600090613b26908363ffffffff614b5716565b9050613b38818763ffffffff61475116565b9695505050505050565b6060613b4d85612863565b905063ffffffff8463ffffffff1682600081518110613b6857fe5b602002602001015163ffffffff16011115613bc2576040805162461bcd60e51b8152602060048201526015602482015274111d5cdd081310881cdd5c1c1b1e4818d85c1c1959605a1b604482015290519081900360640190fd5b63ffffffff8363ffffffff1682600181518110613bdb57fe5b602002602001015163ffffffff16011115613c35576040805162461bcd60e51b8152602060048201526015602482015274111d5cdd080d10881cdd5c1c1b1e4818d85c1c1959605a1b604482015290519081900360640190fd5b63ffffffff8263ffffffff1682600281518110613c4e57fe5b602002602001015163ffffffff16011115613ca8576040805162461bcd60e51b8152602060048201526015602482015274111d5cdd080d50881cdd5c1c1b1e4818d85c1c1959605a1b604482015290519081900360640190fd5b5050505050565b6000613cba82611fda565b9050613cc881600084611614565b613cd360008361367d565b6000828152606c60205260409020546002600019610100600184161502019091160415613d11576000828152606c60205260408120613d11916155d2565b6001600160a01b0381166000908152606560205260409020613d39908363ffffffff614a9b16565b50613d4b60668363ffffffff614bbe16565b5060405182906000906001600160a01b038416907fddf252ad1be2c89b69c2b068fc378daa952ba7f163c4a11628f55a4df523b3ef908390a45050565b613d9484848484613b42565b6060613d9f85612863565b90508381600081518110613daf57fe5b602002602001018181510191509063ffffffff16908163ffffffff16815250508281600181518110613ddd57fe5b602002602001018181510191509063ffffffff16908163ffffffff16815250508181600281518110613e0b57fe5b602002602001018181510191509063ffffffff16908163ffffffff1681525050613ca88582600081518110613e3c57fe5b602002602001015183600181518110613e5157fe5b602002602001015184600281518110613e6657fe5b6020026020010151614bca565b6000808080613e828686614c1b565b9097909650945050505050565b6000611acb848484614c96565b6001600160e01b03198082161415613efb576040805162461bcd60e51b815260206004820152601c60248201527f4552433136353a20696e76616c696420696e7465726661636520696400000000604482015290519081900360640190fd5b6001600160e01b0319166000908152603360205260409020805460ff19166001179055565b6000613f2b30614d60565b15905090565b600054610100900460ff1680613f4a5750613f4a613f20565b80613f58575060005460ff16155b613f935760405162461bcd60e51b815260040180806020018281038252602e8152602001806158b6602e913960400191505060405180910390fd5b600054610100900460ff16158015613fbe576000805460ff1961ff0019909116610100171660011790555b613fc6613fee565b613fce614d66565b613fd88383614e03565b8015611614576000805461ff0019169055505050565b600054610100900460ff16806140075750614007613f20565b80614015575060005460ff16155b6140505760405162461bcd60e51b815260040180806020018281038252602e8152602001806158b6602e913960400191505060405180910390fd5b600054610100900460ff16158015612405576000805460ff1961ff0019909116610100171660011790558015612417576000805461ff001916905550565b60008060008061409d866119e7565b905060006140aa87613523565b905060006140b78861183e565b905060006140c884848a6005611aaa565b9050600080600160ff851611156140e9576140e686868c6003611aaa565b91505b60028460ff1611156141055761410286868c6004611aaa565b90505b919750955093505050509250925092565b6000611747836001600160a01b038416614ee8565b60008060008060008060008060008060006141458c614f00565b939e50919c509a509850965061415a8c614f92565b9298509096509450925061416c615616565b5060008c815260cb60209081526040918290208251606081018452905460ff808216808452610100830480831695850195909552620100009092049081169483019490945260109390931b62ff00001660089290921b61ff00169092171792506141d58d61296a565b91505091939597999b90929496989a50565b600084815260cb6020526040902060ff841615614259578054606460ff90911610614259576040805162461bcd60e51b815260206004820152601f60248201527f4c6f772073746172206275726e20706f696e7473206172652063617070656400604482015290519081900360640190fd5b60ff8316156142c1578054601961010090910460ff16106142c1576040805162461bcd60e51b815260206004820181905260248201527f466f75722073746172206275726e20706f696e74732061726520636170706564604482015290519081900360640190fd5b60ff82161561432a578054600a6201000090910460ff161061432a576040805162461bcd60e51b815260206004820181905260248201527f466976652073746172206275726e20706f696e74732061726520636170706564604482015290519081900360640190fd5b805462ff00001961ff001960ff19831660ff9384168801841617908116610100918290048416870184169091021790811662010000918290048316850183169091021780835560649116111561438657805460ff191660641781555b8054601961010090910460ff1611156143a757805461ff0019166119001781555b8054600a6201000090910460ff161115613ca857805462ff00001916620a000017905550505050565b6143db8484846137f9565b6143e78484848461502d565b612a045760405162461bcd60e51b81526004018080602001828103825260328152602001806157586032913960400191505060405180910390fd5b606061442d85612863565b90508363ffffffff168160008151811061444357fe5b602002602001015163ffffffff16101561449c576040805162461bcd60e51b8152602060048201526015602482015274111d5cdd081310881cdd5c1c1b1e481b9959591959605a1b604482015290519081900360640190fd5b8263ffffffff16816001815181106144b057fe5b602002602001015163ffffffff161015614509576040805162461bcd60e51b8152602060048201526015602482015274111d5cdd080d10881cdd5c1c1b1e481b9959591959605a1b604482015290519081900360640190fd5b8163ffffffff168160028151811061451d57fe5b602002602001015163ffffffff161015613ca8576040805162461bcd60e51b8152602060048201526015602482015274111d5cdd080d50881cdd5c1c1b1e481b9959591959605a1b604482015290519081900360640190fd5b606061458185612863565b9050838160008151811061459157fe5b602002602001018181510391509063ffffffff16908163ffffffff168152505082816001815181106145bf57fe5b602002602001018181510391509063ffffffff16908163ffffffff168152505081816002815181106145ed57fe5b602002602001018181510391509063ffffffff16908163ffffffff1681525050613ca88582600081518110613e3c57fe5b60608161464357506040805180820190915260018152600360fc1b60208201526111ed565b8160005b811561465b57600101600a82049150614647565b6060816001600160401b038111801561467357600080fd5b506040519080825280601f01601f19166020018201604052801561469e576020820181803683370190505b50859350905060001982015b83156146ef57600a840660300160f81b828280600190039350815181106146cd57fe5b60200101906001600160f81b031916908160001a905350600a840493506146aa565b50949350505050565b60008261470757506000611677565b8282028284828161471457fe5b04146117475760405162461bcd60e51b81526004018080602001828103825260218152602001806159276021913960400191505060405180910390fd5b600082820183811015611747576040805162461bcd60e51b815260206004820152601b60248201527f536166654d6174683a206164646974696f6e206f766572666c6f770000000000604482015290519081900360640190fd5b6001600160a01b038216614806576040805162461bcd60e51b815260206004820181905260248201527f4552433732313a206d696e7420746f20746865207a65726f2061646472657373604482015290519081900360640190fd5b61480f816135da565b15614861576040805162461bcd60e51b815260206004820152601c60248201527f4552433732313a20746f6b656e20616c7265616479206d696e74656400000000604482015290519081900360640190fd5b61486d60008383611614565b6001600160a01b0382166000908152606560205260409020614895908263ffffffff614aa716565b506148a86066828463ffffffff614ab316565b5060405181906001600160a01b038416906000907fddf252ad1be2c89b69c2b068fc378daa952ba7f163c4a11628f55a4df523b3ef908290a45050565b60008282111561493c576040805162461bcd60e51b815260206004820152601e60248201527f536166654d6174683a207375627472616374696f6e206f766572666c6f770000604482015290519081900360640190fd5b50900390565b60008161494e57600080fd5b60006001600160c01b0384116149735782604085901b8161496b57fe5b049050614a77565b60c084811c600160201b811061498b576020918201911c5b62010000811061499d576010918201911c5b61010081106149ae576008918201911c5b601081106149be576004918201911c5b600481106149ce576002918201911c5b600281106149dd576001820191505b60bf820360018603901c6001018260ff0387901b816149f857fe5b0492506001600160801b03831115614a0f57600080fd5b608085901c83026001600160801b038616840260c088901c604089901b82811015614a3b576001820391505b608084901b92900382811015614a52576001820391505b829003608084901c8214614a6257fe5b888181614a6b57fe5b04870196505050505050505b6001600160801b0381111561174757600080fd5b60006117478383614ee8565b5490565b600061174783836151ad565b60006117478383615273565b6000611acb84846001600160a01b0385166152bd565b6000611747836001600160a01b038416615273565b81546000908210614b205760405162461bcd60e51b81526004018080602001828103825260228152602001806157076022913960400191505060405180910390fd5b826000018281548110614b2f57fe5b9060005260206000200154905092915050565b6000611747836001600160a01b0384166151ad565b6000808211614bad576040805162461bcd60e51b815260206004820152601860248201527f536166654d6174683a206d6f64756c6f206279207a65726f0000000000000000604482015290519081900360640190fd5b818381614bb657fe5b069392505050565b60006117478383615354565b6001600160a01b0393909316600090815260d6602090815260409182902063ffffffff9490941692901b67ffffffff000000001693901b6bffffffff00000000000000001692909201919091019055565b815460009081908310614c5f5760405162461bcd60e51b81526004018080602001828103825260228152602001806158e46022913960400191505060405180910390fd5b6000846000018481548110614c7057fe5b906000526020600020906002020190508060000154816001015492509250509250929050565b60008281526001840160205260408120548281614d315760405162461bcd60e51b81526004018080602001828103825283818151815260200191508051906020019080838360005b83811015614cf6578181015183820152602001614cde565b50505050905090810190601f168015614d235780820380516001836020036101000a031916815260200191505b509250505060405180910390fd5b50846000016001820381548110614d4457fe5b9060005260206000209060020201600101549150509392505050565b3b151590565b600054610100900460ff1680614d7f5750614d7f613f20565b80614d8d575060005460ff16155b614dc85760405162461bcd60e51b815260040180806020018281038252602e8152602001806158b6602e913960400191505060405180910390fd5b600054610100900460ff16158015614df3576000805460ff1961ff0019909116610100171660011790555b6124056301ffc9a760e01b613e9c565b600054610100900460ff1680614e1c5750614e1c613f20565b80614e2a575060005460ff16155b614e655760405162461bcd60e51b815260040180806020018281038252602e8152602001806158b6602e913960400191505060405180910390fd5b600054610100900460ff16158015614e90576000805460ff1961ff0019909116610100171660011790555b8251614ea390606a906020860190615636565b508151614eb790606b906020850190615636565b50614ec86380ac58cd60e01b613e9c565b614ed8635b5e139f60e01b613e9c565b613fd863780e9d6360e01b613e9c565b60009081526001919091016020526040902054151590565b6000806000806000614f106155a4565b60c98781548110614f1d57fe5b60009182526020918290206040805160a081018252929091015461ffff8082168085526201000083048216958501869052600160201b83048216938501849052600160301b830490911660608501819052600160401b90920460ff1660809094018490529b939a509098509650945092505050565b600080600080614fa06156b4565b60ca8681548110614fad57fe5b600091825260209182902060408051808201909152600290920201805460ff168252600190810154928201839052909250614fea919060186134f1565b9450614ffd8160200151600260186134f1565b93506150108160200151600360186134f1565b92506150238160200151600460186134f1565b9150509193509193565b6000615041846001600160a01b0316614d60565b61504d57506001611acb565b6060615173630a85bd0160e11b615062613679565b88878760405160240180856001600160a01b03166001600160a01b03168152602001846001600160a01b03166001600160a01b0316815260200183815260200180602001828103825283818151815260200191508051906020019080838360005b838110156150db5781810151838201526020016150c3565b50505050905090810190601f1680156151085780820380516001836020036101000a031916815260200191505b5095505050505050604051602081830303815290604052906001600160e01b0319166020820180516001600160e01b038381831617835250505050604051806060016040528060328152602001615758603291396001600160a01b038816919063ffffffff61542816565b9050600081806020019051602081101561518c57600080fd5b50516001600160e01b031916630a85bd0160e11b1492505050949350505050565b6000818152600183016020526040812054801561526957835460001980830191908101906000908790839081106151e057fe5b90600052602060002001549050808760000184815481106151fd57fe5b60009182526020808320909101929092558281526001898101909252604090209084019055865487908061522d57fe5b60019003818190600052602060002001600090559055866001016000878152602001908152602001600020600090556001945050505050611677565b6000915050611677565b600061527f8383614ee8565b6152b557508154600181810184556000848152602080822090930184905584548482528286019093526040902091909155611677565b506000611677565b600082815260018401602052604081205480615322575050604080518082018252838152602080820184815286546001818101895560008981528481209551600290930290950191825591519082015586548684528188019092529290912055611747565b8285600001600183038154811061533557fe5b9060005260206000209060020201600101819055506000915050611747565b60008181526001830160205260408120548015615269578354600019808301919081019060009087908390811061538757fe5b90600052602060002090600202019050808760000184815481106153a757fe5b6000918252602080832084546002909302019182556001938401549184019190915583548252898301905260409020908401905586548790806153e657fe5b60008281526020808220600260001990940193840201828155600190810183905592909355888152898201909252604082209190915594506116779350505050565b6060611acb84846000858561543c85614d60565b61548d576040805162461bcd60e51b815260206004820152601d60248201527f416464726573733a2063616c6c20746f206e6f6e2d636f6e7472616374000000604482015290519081900360640190fd5b60006060866001600160a01b031685876040518082805190602001908083835b602083106154cc5780518252601f1990920191602091820191016154ad565b6001836020036101000a03801982511681845116808217855250505050505090500191505060006040518083038185875af1925050503d806000811461552e576040519150601f19603f3d011682016040523d82523d6000602084013e615533565b606091505b50915091506125808282866060831561554d575081611747565b82511561555d5782518084602001fd5b60405162461bcd60e51b8152602060048201818152845160248401528451859391928392604401919085019080838360008315614cf6578181015183820152602001614cde565b6040805160a08101825260008082526020820181905291810182905260608101829052608081019190915290565b50805460018160011615610100020316600290046000825580601f106155f85750612417565b601f01602090049060005260206000209081019061241791906156cb565b604080516060810182526000808252602082018190529181019190915290565b828054600181600116156101000203166002900490600052602060002090601f016020900481019282601f1061567757805160ff19168380011785556156a4565b828001600101855582156156a4579182015b828111156156a4578251825591602001919060010190615689565b506156b09291506156cb565b5090565b604080518082019091526000808252602082015290565b6113be91905b808211156156b057600081556001016156d156fe537461727320706172616d6574657220746f6f20686967682120286d6178203729456e756d657261626c655365743a20696e646578206f7574206f6620626f756e6473416363657373436f6e74726f6c3a2073656e646572206d75737420626520616e2061646d696e20746f206772616e744552433732313a207472616e7366657220746f206e6f6e20455243373231526563656976657220696d706c656d656e7465724552433732313a207472616e7366657220746f20746865207a65726f20616464726573734552433732313a206f70657261746f7220717565727920666f72206e6f6e6578697374656e7420746f6b656e416363657373436f6e74726f6c3a2073656e646572206d75737420626520616e2061646d696e20746f207265766f6b6546697665537461724275726e506f776572506572506f696e7420746f6f206c6f774552433732313a20617070726f76652063616c6c6572206973206e6f74206f776e6572206e6f7220617070726f76656420666f7220616c6c4552433732313a2062616c616e636520717565727920666f7220746865207a65726f20616464726573734552433732313a206f776e657220717565727920666f72206e6f6e6578697374656e7420746f6b656e496e697469616c697a61626c653a20636f6e747261637420697320616c726561647920696e697469616c697a6564456e756d657261626c654d61703a20696e646578206f7574206f6620626f756e64734c6f77537461724275726e506f776572506572506f696e7420746f6f2068696768536166654d6174683a206d756c7469706c69636174696f6e206f766572666c6f774552433732313a20617070726f76656420717565727920666f72206e6f6e6578697374656e7420746f6b656e4552433732313a207472616e73666572206f6620746f6b656e2074686174206973206e6f74206f776e4552433732314d657461646174613a2055524920717565727920666f72206e6f6e6578697374656e7420746f6b656e4552433732313a20617070726f76616c20746f2063757272656e74206f776e65724552433732313a207472616e736665722063616c6c6572206973206e6f74206f776e6572206e6f7220617070726f766564466f7572537461724275726e506f776572506572506f696e7420746f6f2068696768466f7572537461724275726e506f776572506572506f696e7420746f6f206c6f7746697665537461724275726e506f776572506572506f696e7420746f6f2068696768524543454956455f444f45535f4e4f545f5345545f5452414e534645525f54494d455354414d50416363657373436f6e74726f6c3a2063616e206f6e6c792072656e6f756e636520726f6c657320666f722073656c66a264697066735822122073e7a3546876f994eb77fc9ca44e0d85b01962b5844125969ad08d93c5a30fa364736f6c63430006050033",
  "immutableReferences": {},
  "source": "pragma solidity ^0.6.0;\n\nimport \"@openzeppelin/contracts-upgradeable/proxy/Initializable.sol\";\nimport \"@openzeppelin/contracts-upgradeable/token/ERC721/ERC721Upgradeable.sol\";\nimport \"@openzeppelin/contracts-upgradeable/access/AccessControlUpgradeable.sol\";\nimport \"@openzeppelin/contracts/math/SafeMath.sol\";\nimport \"abdk-libraries-solidity/ABDKMath64x64.sol\";\nimport \"./util.sol\";\n\ncontract Weapons is Initializable, ERC721Upgradeable, AccessControlUpgradeable {\n\n    using ABDKMath64x64 for int128;\n    using ABDKMath64x64 for uint16;\n\n    bytes32 public constant GAME_ADMIN = keccak256(\"GAME_ADMIN\");\n    bytes32 public constant RECEIVE_DOES_NOT_SET_TRANSFER_TIMESTAMP = keccak256(\"RECEIVE_DOES_NOT_SET_TRANSFER_TIMESTAMP\");\n\n    function initialize () public initializer {\n        __ERC721_init(\"CryptoBlades weapon\", \"CBW\");\n        __AccessControl_init_unchained();\n\n        _setupRole(DEFAULT_ADMIN_ROLE, msg.sender);\n    }\n\n    function migrateTo_e55d8c5() public {\n        require(hasRole(DEFAULT_ADMIN_ROLE, msg.sender), \"Not admin\");\n\n        burnPointMultiplier = 2;\n        lowStarBurnPowerPerPoint = 15;\n        fourStarBurnPowerPerPoint = 30;\n        fiveStarBurnPowerPerPoint = 60;\n    }\n\n    function migrateTo_aa9da90() public {\n        require(hasRole(DEFAULT_ADMIN_ROLE, msg.sender), \"Not admin\");\n\n        oneFrac = ABDKMath64x64.fromUInt(1);\n        powerMultPerPointBasic =  ABDKMath64x64.divu(1, 400);// 0.25%\n        powerMultPerPointPWR = powerMultPerPointBasic.mul(ABDKMath64x64.divu(103, 100)); // 0.2575% (+3%)\n        powerMultPerPointMatching = powerMultPerPointBasic.mul(ABDKMath64x64.divu(107, 100)); // 0.2675% (+7%)\n    }\n\n    function migrateTo_951a020() public {\n        require(hasRole(DEFAULT_ADMIN_ROLE, msg.sender), \"Not admin\");\n\n        // Apparently ERC165 interfaces cannot be removed in this version of the OpenZeppelin library.\n        // But if we remove the registration, then while local deployments would not register the interface ID,\n        // existing deployments on both testnet and mainnet would still be registered to handle it.\n        // That sort of inconsistency is a good way to attract bugs that only happens on some environments.\n        // Hence, we keep registering the interface despite not actually implementing the interface.\n        _registerInterface(0xe62e6974); // TransferCooldownableInterfaceId.interfaceId()\n    }\n\n    /*\n        visual numbers start at 0, increment values by 1\n        levels: 1-128\n        stars: 1-5 (1,2,3: primary only, 4: one secondary, 5: two secondaries)\n        traits: 0-3 [0(fire) > 1(earth) > 2(lightning) > 3(water) > repeat]\n        stats: STR(fire), DEX(earth), CHA(lightning), INT(water), PWR(traitless)\n        base stat rolls: 1*(1-50), 2*(45-75), 3*(70-100), 4*(50-100), 5*(66-100, main is 68-100)\n        burns: add level & main stat, and 50% chance to increase secondaries\n        power: each point contributes .25% to fight power\n        cosmetics: 0-255 but only 24 is used, may want to cap so future expansions dont change existing weps\n    */\n\n    struct Weapon {\n        uint16 properties; // right to left: 3b stars, 2b trait, 7b stat pattern, 4b EMPTY\n        // stats (each point refers to .25% improvement)\n        uint16 stat1;\n        uint16 stat2;\n        uint16 stat3;\n        uint8 level; // separate from stat1 because stat1 will have a pre-roll\n    }\n\n    struct WeaponBurnPoints {\n        uint8 lowStarBurnPoints;\n        uint8 fourStarBurnPoints;\n        uint8 fiveStarBurnPoints;\n    }\n\n    struct WeaponCosmetics {\n        uint8 version;\n        uint256 seed;\n    }\n\n    Weapon[] private tokens;\n    WeaponCosmetics[] private cosmetics;\n    mapping(uint256 => WeaponBurnPoints) burnPoints;\n\n    uint public burnPointMultiplier; // 2\n    uint public lowStarBurnPowerPerPoint; // 15\n    uint public fourStarBurnPowerPerPoint; // 30\n    uint public fiveStarBurnPowerPerPoint; // 60\n\n    int128 public oneFrac; // 1.0\n    int128 public powerMultPerPointBasic; // 0.25%\n    int128 public powerMultPerPointPWR; // 0.2575% (+3%)\n    int128 public powerMultPerPointMatching; // 0.2675% (+7%)\n\n    // UNUSED; KEPT FOR UPGRADEABILITY PROXY COMPATIBILITY\n    mapping(uint256 => uint256) public lastTransferTimestamp;\n\n    uint256 private lastMintedBlock;\n    uint256 private firstMintedOfLastBlock;\n\n    mapping(uint256 => uint64) durabilityTimestamp;\n\n    uint256 public constant maxDurability = 20;\n    uint256 public constant secondsPerDurability = 3000; //50 * 60\n\n    mapping(address => uint256) burnDust; // user address : burned item dust counts\n\n    event Burned(address indexed owner, uint256 indexed burned);\n    event NewWeapon(uint256 indexed weapon, address indexed minter);\n    event Reforged(address indexed owner, uint256 indexed reforged, uint256 indexed burned, uint8 lowPoints, uint8 fourPoints, uint8 fivePoints);\n    event ReforgedWithDust(address indexed owner, uint256 indexed reforged, uint8 lowDust, uint8 fourDust, uint8 fiveDust, uint8 lowPoints, uint8 fourPoints, uint8 fivePoints);\n\n    modifier restricted() {\n        _restricted();\n        _;\n    }\n\n    function _restricted() internal view {\n        require(hasRole(GAME_ADMIN, msg.sender), \"Not game admin\");\n    }\n\n    modifier noFreshLookup(uint256 id) {\n        _noFreshLookup(id);\n        _;\n    }\n\n    function _noFreshLookup(uint256 id) internal view {\n        require(id < firstMintedOfLastBlock || lastMintedBlock < block.number, \"Too fresh for lookup\");\n    }\n\n    function getStats(uint256 id) internal view\n        returns (uint16 _properties, uint16 _stat1, uint16 _stat2, uint16 _stat3, uint8 _level) {\n\n        Weapon memory w = tokens[id];\n        return (w.properties, w.stat1, w.stat2, w.stat3, w.level);\n    }\n\n    function getCosmetics(uint256 id) internal view\n        returns (uint8 _blade, uint8 _crossguard, uint8 _grip, uint8 _pommel) {\n\n        WeaponCosmetics memory wc = cosmetics[id];\n        _blade = getRandomCosmetic(wc.seed, 1, 24);\n        _crossguard = getRandomCosmetic(wc.seed, 2, 24);\n        _grip = getRandomCosmetic(wc.seed, 3, 24);\n        _pommel = getRandomCosmetic(wc.seed, 4, 24);\n    }\n\n    function get(uint256 id) public view noFreshLookup(id)\n        returns (\n            uint16 _properties, uint16 _stat1, uint16 _stat2, uint16 _stat3, uint8 _level,\n            uint8 _blade, uint8 _crossguard, uint8 _grip, uint8 _pommel,\n            uint24 _burnPoints, // burn points.. got stack limits so i put them together\n            uint24 _bonusPower // bonus power\n    ) {\n        return _get(id);\n    }\n\n    function _get(uint256 id) internal view\n        returns (\n            uint16 _properties, uint16 _stat1, uint16 _stat2, uint16 _stat3, uint8 _level,\n            uint8 _blade, uint8 _crossguard, uint8 _grip, uint8 _pommel,\n            uint24 _burnPoints, // burn points.. got stack limits so i put them together\n            uint24 _bonusPower // bonus power\n    ) {\n        (_properties, _stat1, _stat2, _stat3, _level) = getStats(id);\n        (_blade, _crossguard, _grip, _pommel) = getCosmetics(id);\n\n        WeaponBurnPoints memory wbp = burnPoints[id];\n        _burnPoints =\n            uint24(wbp.lowStarBurnPoints) |\n            (uint24(wbp.fourStarBurnPoints) << 8) |\n            (uint24(wbp.fiveStarBurnPoints) << 16);\n\n        _bonusPower = getBonusPower(id);\n    }\n\n    function mint(address minter, uint256 seed) public restricted returns(uint256) {\n        uint256 stars;\n        uint256 roll = seed % 100;\n        // will need revision, possibly manual configuration if we support more than 5 stars\n        if(roll < 1) {\n            stars = 4; // 5* at 1%\n        }\n        else if(roll < 6) { // 4* at 5%\n            stars = 3;\n        }\n        else if(roll < 21) { // 3* at 15%\n            stars = 2;\n        }\n        else if(roll < 56) { // 2* at 35%\n            stars = 1;\n        }\n        else {\n            stars = 0; // 1* at 44%\n        }\n\n        return mintWeaponWithStars(minter, stars, seed);\n    }\n\n    function mintWeaponWithStars(address minter, uint256 stars, uint256 seed) public restricted returns(uint256) {\n        require(stars < 8, \"Stars parameter too high! (max 7)\");\n        (uint16 stat1, uint16 stat2, uint16 stat3) = getStatRolls(stars, seed);\n\n        return performMintWeapon(minter,\n            getRandomProperties(stars, seed),\n            stat1,\n            stat2,\n            stat3,\n            RandomUtil.combineSeeds(seed,3)\n        );\n    }\n\n    function performMintWeapon(address minter,\n        uint16 properties,\n        uint16 stat1, uint16 stat2, uint16 stat3,\n        uint256 cosmeticSeed\n    ) public restricted returns(uint256) {\n\n        uint256 tokenID = tokens.length;\n\n        if(block.number != lastMintedBlock)\n            firstMintedOfLastBlock = tokenID;\n        lastMintedBlock = block.number;\n\n        tokens.push(Weapon(properties, stat1, stat2, stat3, 0));\n        cosmetics.push(WeaponCosmetics(0, cosmeticSeed));\n        _mint(minter, tokenID);\n        durabilityTimestamp[tokenID] = uint64(now.sub(getDurabilityMaxWait()));\n\n        emit NewWeapon(tokenID, minter);\n        return tokenID;\n    }\n\n    function getRandomProperties(uint256 stars, uint256 seed) public pure returns (uint16) {\n        return uint16((stars & 0x7) // stars aren't randomized here!\n            | ((RandomUtil.randomSeededMinMax(0,3,RandomUtil.combineSeeds(seed,1)) & 0x3) << 3) // trait\n            | ((RandomUtil.randomSeededMinMax(0,124,RandomUtil.combineSeeds(seed,2)) & 0x7F) << 5)); // statPattern\n    }\n\n    function getStatRolls(uint256 stars, uint256 seed) private pure returns (uint16, uint16, uint16) {\n        // each point refers to .25%\n        // so 1 * 4 is 1%\n        uint16 minRoll = getStatMinRoll(stars);\n        uint16 maxRoll = getStatMaxRoll(stars);\n        uint8 statCount = getStatCount(stars);\n\n        uint16 stat1 = getRandomStat(minRoll, maxRoll, seed, 5);\n        uint16 stat2 = 0;\n        uint16 stat3 = 0;\n        if(statCount > 1) {\n            stat2 = getRandomStat(minRoll, maxRoll, seed, 3);\n        }\n        if(statCount > 2) {\n            stat3 = getRandomStat(minRoll, maxRoll, seed, 4);\n        }\n        return (stat1, stat2, stat3);\n    }\n\n    function getRandomStat(uint16 minRoll, uint16 maxRoll, uint256 seed, uint256 seed2) public pure returns (uint16) {\n        return uint16(RandomUtil.randomSeededMinMax(minRoll, maxRoll,RandomUtil.combineSeeds(seed, seed2)));\n    }\n\n    function getRandomCosmetic(uint256 seed, uint256 seed2, uint8 limit) public pure returns (uint8) {\n        return uint8(RandomUtil.randomSeededMinMax(0, limit, RandomUtil.combineSeeds(seed, seed2)));\n    }\n\n    function getStatMinRoll(uint256 stars) public pure returns (uint16) {\n        // 1 star\n        if (stars == 0) return 4;\n        // 2 star\n        if (stars == 1) return 180;\n        // 3 star\n        if (stars == 2) return 280;\n        // 4 star\n        if (stars == 3) return 200;\n        // 5+ star\n        return 268;\n    }\n\n    function getStatMaxRoll(uint256 stars) public pure returns (uint16) {\n        // 3+ star\n        if (stars > 1) return 400;\n        // 2 star\n        if (stars > 0) return 300;\n        // 1 star\n        return 200;\n    }\n\n    function getStatCount(uint256 stars) public pure returns (uint8) {\n        // 1-2 star\n        if (stars < 3) return 1;\n        // 3+ star\n        return uint8(stars)-1;\n    }\n\n    function getProperties(uint256 id) public view noFreshLookup(id) returns (uint16) {\n        return tokens[id].properties;\n    }\n\n    function getStars(uint256 id) public view noFreshLookup(id) returns (uint8) {\n        return getStarsFromProperties(getProperties(id));\n    }\n\n    function getStarsFromProperties(uint16 properties) public pure returns (uint8) {\n        return uint8(properties & 0x7); // first two bits for stars\n    }\n\n    function getTrait(uint256 id) public view noFreshLookup(id) returns (uint8) {\n        return getTraitFromProperties(getProperties(id));\n    }\n\n    function getTraitFromProperties(uint16 properties) public pure returns (uint8) {\n        return uint8((properties >> 3) & 0x3); // two bits after star bits (3)\n    }\n\n    function getStatPattern(uint256 id) public view noFreshLookup(id) returns (uint8) {\n        return getStatPatternFromProperties(getProperties(id));\n    }\n\n    function getStatPatternFromProperties(uint16 properties) public pure returns (uint8) {\n        return uint8((properties >> 5) & 0x7F); // 7 bits after star(3) and trait(2) bits\n    }\n\n    function getStat1Trait(uint8 statPattern) public pure returns (uint8) {\n        return uint8(uint256(statPattern) % 5); // 0-3 regular traits, 4 = traitless (PWR)\n    }\n\n    function getStat2Trait(uint8 statPattern) public pure returns (uint8) {\n        return uint8(SafeMath.div(statPattern, 5) % 5); // 0-3 regular traits, 4 = traitless (PWR)\n    }\n\n    function getStat3Trait(uint8 statPattern) public pure returns (uint8) {\n        return uint8(SafeMath.div(statPattern, 25) % 5); // 0-3 regular traits, 4 = traitless (PWR)\n    }\n\n    function getLevel(uint256 id) public view noFreshLookup(id) returns (uint8) {\n        return tokens[id].level;\n    }\n\n    function getStat1(uint256 id) public view noFreshLookup(id) returns (uint16) {\n        return tokens[id].stat1;\n    }\n\n    function getStat2(uint256 id) public view noFreshLookup(id) returns (uint16) {\n        return tokens[id].stat2;\n    }\n\n    function getStat3(uint256 id) public view noFreshLookup(id) returns (uint16) {\n        return tokens[id].stat3;\n    }\n\n    function getPowerMultiplier(uint256 id) public view noFreshLookup(id) returns (int128) {\n        // returns a 64.64 fixed point number for power multiplier\n        // this function does not account for traits\n        // it is used to calculate base enemy powers for targeting\n        Weapon memory wep = tokens[id];\n        int128 powerPerPoint = ABDKMath64x64.divu(1, 400); // 0.25% or x0.0025\n        int128 stat1 = wep.stat1.fromUInt().mul(powerPerPoint);\n        int128 stat2 = wep.stat2.fromUInt().mul(powerPerPoint);\n        int128 stat3 = wep.stat3.fromUInt().mul(powerPerPoint);\n        return ABDKMath64x64.fromUInt(1).add(stat1).add(stat2).add(stat3);\n    }\n\n    function getPowerMultiplierForTrait(\n        uint16 properties,\n        uint16 stat1,\n        uint16 stat2,\n        uint16 stat3,\n        uint8 trait\n    ) public view returns(int128) {\n        // Does not include character trait to weapon trait match\n        // Only counts arbitrary trait to weapon stat trait\n        // This function can be used by frontend to get expected % bonus for each type\n        // Making it easy to see on the market how useful it will be to you\n        uint8 statPattern = getStatPatternFromProperties(properties);\n        int128 result = oneFrac;\n\n        if(getStat1Trait(statPattern) == trait)\n            result = result.add(stat1.fromUInt().mul(powerMultPerPointMatching));\n        else if(getStat1Trait(statPattern) == 4) // PWR, traitless\n            result = result.add(stat1.fromUInt().mul(powerMultPerPointPWR));\n        else\n            result = result.add(stat1.fromUInt().mul(powerMultPerPointBasic));\n\n        if(getStat2Trait(statPattern) == trait)\n            result = result.add(stat2.fromUInt().mul(powerMultPerPointMatching));\n        else if(getStat2Trait(statPattern) == 4) // PWR, traitless\n            result = result.add(stat2.fromUInt().mul(powerMultPerPointPWR));\n        else\n            result = result.add(stat2.fromUInt().mul(powerMultPerPointBasic));\n\n        if(getStat3Trait(statPattern) == trait)\n            result = result.add(stat3.fromUInt().mul(powerMultPerPointMatching));\n        else if(getStat3Trait(statPattern) == 4) // PWR, traitless\n            result = result.add(stat3.fromUInt().mul(powerMultPerPointPWR));\n        else\n            result = result.add(stat3.fromUInt().mul(powerMultPerPointBasic));\n\n        return result;\n    }\n\n    function getDustSupplies(address playerAddress) public view returns (uint32[] memory) {\n        uint256 burnDustValue = burnDust[playerAddress];\n        uint32[] memory supplies = new uint32[](3);\n        supplies[0] = uint32(burnDustValue);\n        supplies[1] = uint32(burnDustValue >> 32);\n        supplies[2] = uint32(burnDustValue >> 64);\n        return supplies;\n    }\n\n    function _setDustSupplies(address playerAddress, uint32 amountLB, uint32 amount4B, uint32 amount5B) internal {\n        uint256 burnDustValue = (uint256(amount5B) << 64) + (uint256(amount4B) << 32) + amountLB;\n        burnDust[playerAddress] = burnDustValue;\n    }\n\n    function _decrementDustSuppliesCheck(address playerAddress, uint32 amountLB, uint32 amount4B, uint32 amount5B) internal {\n        uint32[] memory supplies = getDustSupplies(playerAddress);\n        require(supplies[0] >= amountLB, \"Dust LB supply needed\");\n        require(supplies[1] >= amount4B, \"Dust 4B supply needed\");\n        require(supplies[2] >= amount5B, \"Dust 5B supply needed\");\n    }\n\n    function _decrementDustSupplies(address playerAddress, uint32 amountLB, uint32 amount4B, uint32 amount5B) internal {\n        uint32[] memory supplies = getDustSupplies(playerAddress);\n        supplies[0] -= amountLB;\n        supplies[1] -= amount4B;\n        supplies[2] -= amount5B;\n        _setDustSupplies(playerAddress, supplies[0], supplies[1], supplies[2]);\n    }\n\n    function _incrementDustSuppliesCheck(address playerAddress, uint32 amountLB, uint32 amount4B, uint32 amount5B) internal {\n        uint32[] memory supplies = getDustSupplies(playerAddress);\n        require(uint256(supplies[0]) + amountLB <= 0xFFFFFFFF, \"Dust LB supply capped\");\n        require(uint256(supplies[1]) + amount4B <= 0xFFFFFFFF, \"Dust 4B supply capped\");\n        require(uint256(supplies[2]) + amount5B <= 0xFFFFFFFF, \"Dust 5B supply capped\");\n    }\n\n    function _incrementDustSupplies(address playerAddress, uint32 amountLB, uint32 amount4B, uint32 amount5B) internal {\n        _incrementDustSuppliesCheck(playerAddress, amountLB, amount4B, amount5B);\n        uint32[] memory supplies = getDustSupplies(playerAddress);\n        supplies[0] += amountLB;\n        supplies[1] += amount4B;\n        supplies[2] += amount5B;\n        _setDustSupplies(playerAddress, supplies[0], supplies[1], supplies[2]);\n    }\n\n    function _calculateBurnValues(uint256 burnID) public view returns(uint8[] memory) {\n        uint8[] memory values = new uint8[](3);\n\n        // Carried burn points.\n        WeaponBurnPoints storage burningbp = burnPoints[burnID];\n        values[0] = (burningbp.lowStarBurnPoints + 1) / 2;\n        values[1] = (burningbp.fourStarBurnPoints + 1) / 2;\n        values[2] = (burningbp.fiveStarBurnPoints + 1) / 2;\n\n        // Stars-based burn points.\n        Weapon storage burning = tokens[burnID];\n        uint8 stars = getStarsFromProperties(burning.properties);\n        if(stars < 3) { // 1-3 star\n            values[0] += uint8(burnPointMultiplier * (stars + 1));\n        }\n        else if(stars == 3) { // 4 star\n            values[1] += uint8(burnPointMultiplier);\n        }\n        else if(stars == 4) { // 5 star\n            values[2] += uint8(burnPointMultiplier);\n        }\n\n        return values;\n    }\n\n    function burn(uint256 burnID) public restricted {\n        uint8[] memory values = _calculateBurnValues(burnID);\n\n        address burnOwner = ownerOf(burnID);\n\n        // While this may seem redundant, _burn could fail so\n        // dust cannot be pre-incremented.\n        _incrementDustSuppliesCheck(burnOwner, values[0], values[1], values[2]);\n\n        _burn(burnID);\n        _incrementDustSupplies(burnOwner, values[0], values[1], values[2]);\n\n        emit Burned(\n            burnOwner,\n            burnID\n        );\n    }\n\n    function reforge(uint256 reforgeID, uint256 burnID) public restricted {\n        uint8[] memory values = _calculateBurnValues(burnID);\n\n        // Note: preexisting issue of applying burn points even if _burn fails.\n        _applyBurnPoints(reforgeID, values[0], values[1], values[2]);\n        _burn(burnID);\n\n        WeaponBurnPoints storage wbp = burnPoints[reforgeID];\n        emit Reforged(\n            ownerOf(reforgeID),\n            reforgeID,\n            burnID,\n            wbp.lowStarBurnPoints,\n            wbp.fourStarBurnPoints,\n            wbp.fiveStarBurnPoints\n        );\n    }\n\n    function reforgeWithDust(uint256 reforgeID, uint8 amountLB, uint8 amount4B, uint8 amount5B) public restricted {\n        // While this may seem redundant, _applyBurnPoints could fail so\n        // dust cannot be pre-decremented.\n        _decrementDustSuppliesCheck(ownerOf(reforgeID), amountLB, amount4B, amount5B);\n\n        _applyBurnPoints(reforgeID, amountLB, amount4B, amount5B);\n        _decrementDustSupplies(ownerOf(reforgeID), amountLB, amount4B, amount5B);\n\n        WeaponBurnPoints storage wbp = burnPoints[reforgeID];\n        emit ReforgedWithDust(\n            ownerOf(reforgeID),\n            reforgeID,\n            amountLB,\n            amount4B,\n            amount5B,\n            wbp.lowStarBurnPoints,\n            wbp.fourStarBurnPoints,\n            wbp.fiveStarBurnPoints\n        );\n    }\n\n    function _applyBurnPoints(uint256 reforgeID, uint8 amountLB, uint8 amount4B, uint8 amount5B) private {\n        WeaponBurnPoints storage wbp = burnPoints[reforgeID];\n\n        if(amountLB > 0) {\n            require(wbp.lowStarBurnPoints < 100, \"Low star burn points are capped\");\n        }\n        if(amount4B > 0) {\n            require(wbp.fourStarBurnPoints < 25, \"Four star burn points are capped\");\n        }\n        if(amount5B > 0) {\n            require(wbp.fiveStarBurnPoints < 10, \"Five star burn points are capped\");\n        }\n\n        wbp.lowStarBurnPoints += amountLB;\n        wbp.fourStarBurnPoints += amount4B;\n        wbp.fiveStarBurnPoints += amount5B;\n\n        if(wbp.lowStarBurnPoints > 100)\n            wbp.lowStarBurnPoints = 100;\n        if(wbp.fourStarBurnPoints > 25)\n            wbp.fourStarBurnPoints = 25;\n        if(wbp.fiveStarBurnPoints > 10)\n            wbp.fiveStarBurnPoints = 10;\n    }\n\n    // UNUSED FOR NOW!\n    function levelUp(uint256 id, uint256 seed) private {\n        Weapon storage wep = tokens[id];\n\n        wep.level = uint8(SafeMath.add(wep.level, 1));\n        wep.stat1 = uint16(SafeMath.add(wep.stat1, 1));\n\n        uint8 stars = getStarsFromProperties(wep.properties);\n\n        if(stars >= 4 && RandomUtil.randomSeededMinMax(0,1, seed) == 0) {\n            wep.stat2 = uint16(SafeMath.add(wep.stat2, 1));\n        }\n        if(stars >= 5 && RandomUtil.randomSeededMinMax(0,1, RandomUtil.combineSeeds(seed,1)) == 0) {\n            wep.stat3 = uint16(SafeMath.add(wep.stat3, 1));\n        }\n    }\n\n    function getBonusPower(uint256 id) public view noFreshLookup(id) returns (uint24) {\n        Weapon storage wep = tokens[id];\n        return getBonusPowerForFight(id, wep.level);\n    }\n\n    function getBonusPowerForFight(uint256 id, uint8 level) public view noFreshLookup(id) returns (uint24) {\n        WeaponBurnPoints storage wbp = burnPoints[id];\n        return uint24(lowStarBurnPowerPerPoint.mul(wbp.lowStarBurnPoints)\n            .add(fourStarBurnPowerPerPoint.mul(wbp.fourStarBurnPoints))\n            .add(fiveStarBurnPowerPerPoint.mul(wbp.fiveStarBurnPoints))\n            .add(uint256(15).mul(level))\n        );\n    }\n\n    function getFightData(uint256 id, uint8 charTrait) public view noFreshLookup(id) returns (int128, int128, uint24, uint8) {\n        Weapon storage wep = tokens[id];\n        return (\n            oneFrac.add(powerMultPerPointBasic.mul(\n                    ABDKMath64x64.fromUInt(\n                        wep.stat1 + wep.stat2 + wep.stat3\n                    )\n            )),//targetMult\n            getPowerMultiplierForTrait(wep.properties, wep.stat1, wep.stat2, wep.stat3, charTrait),\n            getBonusPowerForFight(id, wep.level),\n            getTraitFromProperties(wep.properties)\n        );\n    }\n\n    function getFightDataAndDrainDurability(uint256 id, uint8 charTrait, uint8 drainAmount) public\n        restricted noFreshLookup(id)\n    returns (int128, int128, uint24, uint8) {\n\n        uint8 durabilityPoints = getDurabilityPointsFromTimestamp(durabilityTimestamp[id]);\n        require(durabilityPoints >= drainAmount, \"Not enough durability!\");\n\n        uint64 drainTime = uint64(drainAmount * secondsPerDurability);\n        if(durabilityPoints >= maxDurability) { // if durability full, we reset timestamp and drain from that\n            durabilityTimestamp[id] = uint64(now - getDurabilityMaxWait() + drainTime);\n        }\n        else {\n            durabilityTimestamp[id] = uint64(durabilityTimestamp[id] + drainTime);\n        }\n        \n        Weapon storage wep = tokens[id];\n        return (\n            oneFrac.add(powerMultPerPointBasic.mul(\n                    ABDKMath64x64.fromUInt(\n                        wep.stat1 + wep.stat2 + wep.stat3\n                    )\n            )),//targetMult\n            getPowerMultiplierForTrait(wep.properties, wep.stat1, wep.stat2, wep.stat3, charTrait),\n            getBonusPowerForFight(id, wep.level),\n            getTraitFromProperties(wep.properties)\n        );\n    }\n\n    function drainDurability(uint256 id, uint8 amount) public restricted {\n        uint8 durabilityPoints = getDurabilityPointsFromTimestamp(durabilityTimestamp[id]);\n        require(durabilityPoints >= amount, \"Not enough durability!\");\n\n        uint64 drainTime = uint64(amount * secondsPerDurability);\n        if(durabilityPoints >= maxDurability) { // if durability full, we reset timestamp and drain from that\n            durabilityTimestamp[id] = uint64(now - getDurabilityMaxWait() + drainTime);\n        }\n        else {\n            durabilityTimestamp[id] = uint64(durabilityTimestamp[id] + drainTime);\n        }\n    }\n\n    function setBurnPointMultiplier(uint256 multiplier) public restricted {\n        require(multiplier >= 1, \"BurnPointMultiplier too low\");\n        require(multiplier <= 5, \"BurnPointMultiplier too high\");\n        burnPointMultiplier = multiplier;\n    }\n    function setLowStarBurnPowerPerPoint(uint256 powerPerBurnPoint) public restricted {\n        require(powerPerBurnPoint >= 10, \"LowStarBurnPowerPerPoint too low\");\n        require(powerPerBurnPoint <= 20, \"LowStarBurnPowerPerPoint too high\");\n        lowStarBurnPowerPerPoint = powerPerBurnPoint;\n    }\n    function setFourStarBurnPowerPerPoint(uint256 powerPerBurnPoint) public restricted {\n        require(powerPerBurnPoint >= 25, \"FourStarBurnPowerPerPoint too low\");\n        require(powerPerBurnPoint <= 35, \"FourStarBurnPowerPerPoint too high\");\n        fourStarBurnPowerPerPoint = powerPerBurnPoint;\n    }\n    function setFiveStarBurnPowerPerPoint(uint256 powerPerBurnPoint) public restricted {\n        require(powerPerBurnPoint >= 40, \"FiveStarBurnPowerPerPoint too low\");\n        require(powerPerBurnPoint <= 80, \"FiveStarBurnPowerPerPoint too high\");\n        fiveStarBurnPowerPerPoint = powerPerBurnPoint;\n    }\n\n    function getDurabilityTimestamp(uint256 id) public view returns (uint64) {\n        return durabilityTimestamp[id];\n    }\n\n    function setDurabilityTimestamp(uint256 id, uint64 timestamp) public restricted {\n        durabilityTimestamp[id] = timestamp;\n    }\n\n    function getDurabilityPoints(uint256 id) public view returns (uint8) {\n        return getDurabilityPointsFromTimestamp(durabilityTimestamp[id]);\n    }\n\n    function getDurabilityPointsFromTimestamp(uint64 timestamp) public view returns (uint8) {\n        if(timestamp  > now)\n            return 0;\n\n        uint256 points = (now - timestamp) / secondsPerDurability;\n        if(points > maxDurability) {\n            points = maxDurability;\n        }\n        return uint8(points);\n    }\n\n    function isDurabilityFull(uint256 id) public view returns (bool) {\n        return getDurabilityPoints(id) >= maxDurability;\n    }\n\n    function getDurabilityMaxWait() public pure returns (uint64) {\n        return uint64(maxDurability * secondsPerDurability);\n    }\n}\n",
  "sourcePath": "H:\\8.5.1\\contracts\\weapons.sol",
  "compiler": {
    "name": "solc",
    "version": "0.6.5+commit.f956cc89.Emscripten.clang"
  },
  "schemaVersion": "3.4.16",
  "updatedAt": "2023-09-14T02:49:25.394Z",
  "networkType": "ethereum",
  "devdoc": {
    "methods": {
      "approve(address,uint256)": {
        "details": "See {IERC721-approve}."
      },
      "balanceOf(address)": {
        "details": "See {IERC721-balanceOf}."
      },
      "baseURI()": {
        "details": "Returns the base URI set via {_setBaseURI}. This will be automatically added as a prefix in {tokenURI} to each token's URI, or to the token ID if no specific URI is set for that token ID."
      },
      "getApproved(uint256)": {
        "details": "See {IERC721-getApproved}."
      },
      "getRoleAdmin(bytes32)": {
        "details": "Returns the admin role that controls `role`. See {grantRole} and {revokeRole}.     * To change a role's admin, use {_setRoleAdmin}."
      },
      "getRoleMember(bytes32,uint256)": {
        "details": "Returns one of the accounts that have `role`. `index` must be a value between 0 and {getRoleMemberCount}, non-inclusive.     * Role bearers are not sorted in any particular way, and their ordering may change at any point.     * WARNING: When using {getRoleMember} and {getRoleMemberCount}, make sure you perform all queries on the same block. See the following https://forum.openzeppelin.com/t/iterating-over-elements-on-enumerableset-in-openzeppelin-contracts/2296[forum post] for more information."
      },
      "getRoleMemberCount(bytes32)": {
        "details": "Returns the number of accounts that have `role`. Can be used together with {getRoleMember} to enumerate all bearers of a role."
      },
      "grantRole(bytes32,address)": {
        "details": "Grants `role` to `account`.     * If `account` had not been already granted `role`, emits a {RoleGranted} event.     * Requirements:     * - the caller must have ``role``'s admin role."
      },
      "hasRole(bytes32,address)": {
        "details": "Returns `true` if `account` has been granted `role`."
      },
      "isApprovedForAll(address,address)": {
        "details": "See {IERC721-isApprovedForAll}."
      },
      "name()": {
        "details": "See {IERC721Metadata-name}."
      },
      "ownerOf(uint256)": {
        "details": "See {IERC721-ownerOf}."
      },
      "renounceRole(bytes32,address)": {
        "details": "Revokes `role` from the calling account.     * Roles are often managed via {grantRole} and {revokeRole}: this function's purpose is to provide a mechanism for accounts to lose their privileges if they are compromised (such as when a trusted device is misplaced).     * If the calling account had been granted `role`, emits a {RoleRevoked} event.     * Requirements:     * - the caller must be `account`."
      },
      "revokeRole(bytes32,address)": {
        "details": "Revokes `role` from `account`.     * If `account` had been granted `role`, emits a {RoleRevoked} event.     * Requirements:     * - the caller must have ``role``'s admin role."
      },
      "safeTransferFrom(address,address,uint256)": {
        "details": "See {IERC721-safeTransferFrom}."
      },
      "safeTransferFrom(address,address,uint256,bytes)": {
        "details": "See {IERC721-safeTransferFrom}."
      },
      "setApprovalForAll(address,bool)": {
        "details": "See {IERC721-setApprovalForAll}."
      },
      "supportsInterface(bytes4)": {
        "details": "See {IERC165-supportsInterface}.     * Time complexity O(1), guaranteed to always use less than 30 000 gas."
      },
      "symbol()": {
        "details": "See {IERC721Metadata-symbol}."
      },
      "tokenByIndex(uint256)": {
        "details": "See {IERC721Enumerable-tokenByIndex}."
      },
      "tokenOfOwnerByIndex(address,uint256)": {
        "details": "See {IERC721Enumerable-tokenOfOwnerByIndex}."
      },
      "tokenURI(uint256)": {
        "details": "See {IERC721Metadata-tokenURI}."
      },
      "totalSupply()": {
        "details": "See {IERC721Enumerable-totalSupply}."
      },
      "transferFrom(address,address,uint256)": {
        "details": "See {IERC721-transferFrom}."
      }
    }
  },
  "userdoc": {
    "methods": {}
  }
}